:020000040800F2
:10000000A0530020114000086D3F00086F3F00081A
:10001000713F0008733F0008753F000800000000B2
:10002000000000000000000000000000693D000822
:10003000773F000800000000113D0008993B0008D0
:10004000294000082D4000083140000835400008D4
:10005000394000083D400008414000084540000884
:10006000494000084D400008514000085540000834
:10007000594000085D4000086140000865400008E4
:10008000694000086D400008714000087540000894
:10009000794000087D400008814000088540000844
:1000A000894000088D4000089140000895400008F4
:1000B000994000089D400008A1400008A5400008A4
:1000C000A9400008AD400008B1400008B540000854
:1000D000B9400008BD400008C1400008C540000804
:1000E000C9400008CD400008D1400008D5400008B4
:1000F000D9400008DD400008E1400008E540000864
:10010000E9400008ED400008F1400008F540000813
:10011000F9400008FD400008793F0008014100084F
:1001200005410008094100080D410008114100087F
:1001300015410008293E0008194100081D4100082A
:100140002141000825410008294100087F3F00089F
:100150002D410008314100083541000839410008AF
:100160003D4100084141000845410008494100085F
:100170004D410008514100085541000800000000B1
:10018000594100085D4100080EB418B504469DF8B9
:100190001100012818D1A06B20F48030A063E16821
:1001A000DFF844090140E160E16821F44011E160B9
:1001B0009DF81800012803D1E06840F48010E06049
:1001C000204600F066FC10E0E06840F04000E0608F
:1001D000204600F05EFC9DF815100029A16B0CBFB5
:1001E00041F4803121F48031A1639DF80E10012982
:1001F00007D1A16841F00601A160A16841F020018A
:10020000A16012BC5DF810FB10B5022A58D1DFF8CE
:10021000DC28DFF8DC3852189A4238BF4FF47051AE
:1002200050D3DFF8D028DFF8D03852189A4238BFC0
:100230004FF4605146D3DFF8C428DFF8C4385218B1
:100240009A4238BF4FF450513CD3DFF8B828DFF85A
:10025000B83852189A4238BF4FF4405132D3DFF8C1
:10026000AC28DFF8AC3852189A4238BF4FF43051FE
:1002700028D3DFF8A028DFF8A03852189A4238BFF8
:100280004FF420511ED3DFF8B428DFF8B4385218E9
:100290009A4215D3DFF8AC48DFF8AC2864189442D2
:1002A00038BF4FF400510DD3DFF8A028DFF8A03895
:1002B000511899422CBF4FF4C0514FF4E05101E066
:1002C0004FF41051C26822F47052C260C2681143E8
:1002D000C160002010BD816841F0010102E0816829
:1002E0004908490081600020704738B50446002560
:1002F000E06820F0C0400129E0600FD1E06840F0E4
:100300000050E0600A2000F035FC60690A35C10742
:1003100001D4C82DF6D3C82D11D10EE069B9E0681B
:1003200040F08040E0600A2000F024FC60690A355B
:10033000C107F0D5C82DF6D3EDE7012032BD00206E
:1003400032BD0EB42DE9F04380460446002700215B
:10035000002004EB8102491C0F29C2F80401F8D3E4
:100360009DF8265008F5006655B9706840F0020007
:100370007060A06B40F40010A06300F0D6FB06E0B4
:10038000A06B20F40010A063A06B40F40020A063D9
:1003900008F56061002008609DF82100012806D161
:1003A0009DF81F20002A14BF0121002100E0032135
:1003B000204600F0BEF81021204600F077F800B18A
:1003C0000127204600F094F800B101270020306199
:1003D00000217161F0614FF67F329DF81C104FF0E3
:1003E00090434FF0006C814607E00026CEF8006095
:1003F000CEF81090CEF80820401C884210D208EBAE
:10040000401606F5106EDEF80060002EEDD50028CF
:1004100006BF08F51066C6F800C0CEF80030E7E762
:10042000002007E00026CEF80060CEF81090CEF84D
:100430000820401C884210D208EB401606F5306EAA
:10044000DEF80060002EEDD5002806BF08F5306606
:10045000C6F800C0CEF80030E7E708F500680021D4
:10046000D8F8100020F48070C8F81000A1616FF077
:10047000804060619DF81E0000F050FBDFF8D4065C
:100480000143A1619DF8220018B1A06940F0080065
:10049000A061012D05D1A06940F0804040F004002A
:1004A000A0613846BDE8F0035DF810FB18B50022E6
:1004B0000092DFF8A426009B5B1C0093009B9342F4
:1004C00012D20469002CF6D500238901009341F073
:1004D000200101610099491C00910099914203D2C9
:1004E00003699906F6D401E0032012BD002012BD75
:1004F00081B000210091DFF86016009A521C009232
:10050000009A8A4210D20369002BF6D5002200928D
:1005100010230361009A521C0092009A8A4203D26F
:100520000369DA06F6D401E0032000E0002001B000
:10053000704700F50060026811432AE200F5006090
:10054000806810F0060006D0022818BF062801D1E6
:10055000022070470F20704770B50A784E78134616
:10056000012502F00F0200EB431405FA02F2012EFE
:1005700000F50060DFF8E4550CD1C669324304F59C
:100580001064C2612068020411D400F012F840EA3D
:1005900083500AE0C36943EA024304F53064C3614F
:1005A0002068020403D400F004F80543256000200D
:1005B00070BD20688A680979C2F30A02104340EAD4
:1005C0008140704730B500F03AF80DD100F5106069
:1005D00000F023F8AC4300F019F824EA0303D361D8
:1005E0000268DFF87C150DE000F5306000F015F8CA
:1005F00024EA054400F00AF824EA0344D4610268BE
:10060000DFF860150A400260002030BDD463D46971
:10061000097801F00F018B4070470468002C07D562
:10062000046844F000640460056845F08045056096
:10063000D46B0D7805F00F0503FA05F570470B78BC
:100640004C7800F5006200EB43100123012C704749
:10065000F8B50D460446697828782746012907F53C
:10066000006307EB4016DFF800C5DFF800E57BD13B
:10067000296906F5106661B930690EEA000EC6F800
:1006800010E0316941F4002131613069C00CC004CF
:1006900035E03169C90CC904316131690EEA010ED6
:1006A000C6F810E02969D5F808E058B970468842C4
:1006B00088BF0846286107F51067386940F40020B4
:1006C000386117E07144491EB1FBFEF031690CEA54
:1006D000C04747EA010CC6F810C02979012909D1A1
:1006E000316921F0C04131614007316900F0C040FB
:1006F0000843306130692969C1F312010843012AB6
:10070000306109D1E86900B1706100F075F83268B4
:1007100042F0044232606DE0306840F004403060E6
:10072000297901290BD02869002863D0586B2A78D1
:10073000012102F00F029140084358635AE0986883
:10074000C10504D4306840F00050306003E03168E7
:1007500041F080513160009220462B692A78E96887
:100760009BB200F0A7F845E006F530663169C90C88
:10077000C904316131690EEA010EC6F810E0AC68B7
:10078000296970B901B12C6107F530672C62C4F397
:100790001204386904433C61386940F40020386130
:1007A0001DE041B93069C4F3120404433461306977
:1007B00040F4002012E06118491EB1FBF4F080B251
:1007C00044432C620CEAC040316940EA010CC6F88F
:1007D00010C03069296AC1F3120108433061012A4F
:1007E00002D1E86800B1706100F006F8306840F0AE
:1007F000044030600020F2BD287901280BD19868B0
:10080000C10504D4306840F0005030607047316852
:1008100041F080513160704778B5002200920B782A
:100820004D7800EB4314012D42F2117318D104F5F9
:1008300010642568002D2DD500F034F804F51064FF
:10084000256845F08045256000F026F821D20D7816
:1008500000EB451606F510663468002CF4D419E058
:1008600004F530642568002D14D500F01BF804F55C
:100870003064256845F08045256000F00DF808D209
:100880000D7800EB451606F530663468002CF4D47C
:1008900000E00122104672BD009C641C0094009C84
:1008A0009C427047256845F0006525600C7800EB98
:1008B00044147047B8B5059CE4B264B9DB1C07E08A
:1008C00000EB023751F8045B07F58057641C3D606C
:1008D000B4EB930FF4D30020B2BD38B5930802F007
:1008E0000302002400F5805003E0056841F8045B32
:1008F000641C9C42F9D313000DD000686C460023A1
:1009000020600098521EDC005B1C95B2E040002D78
:1009100001F8010BF5D1084632BD0A78497800EBA1
:10092000421001290CBF00F5106000F5306001682D
:10093000002904D41AB1016821F0804101600268E5
:1009400042F400120260002070470A7800EB421067
:100950004A78012A0CBF00F5106000F5306002688B
:1009600022F4001202600979032918BF022903D179
:10097000016841F0805101600020704700F500607F
:100980000901026822F4FE62026001F4FE6103685C
:10099000194301600020704700F5606100F50060B8
:1009A0000A68920892000A60416821F002010AE098
:1009B00000F5606100F500600A68920892000A6024
:1009C000416841F0020141600020704701464869DA
:1009D00089690840704700F500618869C969084065
:1009E000000C704700F500618869C969084080B251
:1009F0007047024602EB411000F5306002F50062DC
:100A00008068516908407047024602F5006302EBB6
:100A1000411218695B6B01F00F0102F51062CB40C7
:100A2000DB01926803F0800318431040704740696F
:100A300000F00100704700F5106100F500600A68E1
:100A4000D20AD2020A60416841F48071BBE710B556
:100A5000036CDFF81C41A34200F5306002D3036849
:100A6000002B14D4002303610129046944F40024F9
:100A70000461036943F018030361036943F0C04351
:100A8000036104D14261016841F0802101600020CE
:100A900010BD81B0014600200090DFF8BC20009816
:100AA000401C00900098904218D20B69002BF6D59C
:100AB0000A2001E00098401E009000980028F9D11B
:100AC000086940F0010008610098401C00900098FF
:100AD000904203D20B69D807F6D401E0032000E06E
:100AE000002001B070470000BFFFBDFF405327FF4B
:100AF00000350C00401E1BFF40420F0000DC0BFFC6
:100B0000804F1200808CF9FE20D6130060B6E5FEFF
:100B100060E3160000D3CEFE40771B0018B9A06931
:100B200040F01000A061A1697047A06B20F4002084
:100B3000A063A06B20F4802070470000C05BB3FE70
:100B4000C091210000CA91FE20753800E05459FE82
:100B5000E09C410000383C800100000F0080001044
:100B6000007833EC0078F3EF0000F81FFFFF07E098
:100B70000B30544F38B5044600F010F814F1010F53
:100B8000054602D004480178641800F007F8401BBD
:100B9000A042FAD331BD00BF603000200148406858
:100BA000704700BF603000207CB5040053D0266839
:100BB00004F29445687820B900212970204600F09D
:100BC000BBFC03206870B6F1A04F04BF0020A071E9
:100BD0002068FFF784FB83B000F047F80EBC206864
:100BE000FFF7D2FA002834D120680021FFF77DFBFF
:100BF00078BB0021242000260DE010FB01F22244E6
:100C0000012353751175D1850023491C1376D661D4
:100C100013625662C9B222799142EEDB00210DE0E7
:100C200010FB01F2224402F515720023117053707B
:100C3000491C16719360D6601361C9B22279914242
:100C4000EEDB83B000F011F80EBC2068FFF779FBF3
:100C500018B102206870012076BD607401216970AE
:100C60002068FFF7A5FE002076BD211D68460D22F5
:100C700000F088BD10B500F057FB01D1022010BD77
:100C800000F04CFB01D500F056FBFFF724FB206879
:100C90003EE32DE9F84F054686B0286802900190A2
:100CA000FFF7C5FE002840F0288300F029FB00284C
:100CB00000F02383019800F5006005F2CC418268C2
:100CC000C2F30D20886000F01BFB800704D5286864
:100CD000416901F00201416100F012FBC00633D509
:100CE0002868816921F01001816105F5157102986C
:100CF000066A06F00F02242042438C18C6F34340D4
:100D000002280FD147F6F070064218D0E168029829
:100D1000C6F30A12FFF7E1FDE068C6F30A110844C2
:100D2000E06007E006280AD10298082205F29C41FB
:100D3000FFF7D3FD6169C6F30A10411861612868A5
:100D4000816941F0100181612868019EFFF73EFE34
:100D5000000306F5006640F1D0802868DFF8A8B5EA
:100D6000FFF739FE00242F4605004FF4004A63E0E8
:100D7000002C04BFD7F86402002809D107F29C4276
:100D800000211846FFF763FE02E008B120209060C2
:100D9000E1B2384600F014FC5FEA08701FD5082164
:100DA000C9F808103868016C039100EB441000F595
:100DB00030608168039A5A4503D3090448BFC0F8DC
:100DC00008A0384600F0F6FB0398584507D3B979D8
:100DD000012904D1386807F29C42FFF738FE5FEA28
:100DE000C86044BF1021C9F808105FEA887014D5A4
:100DF00002994869010603D5706840F4806070600C
:100E00000098C178012905D10022C270E1B23846AC
:100E100000F01CFC0220C9F808005FEA886044BFAB
:100E20002021C9F808105FEA884044BF4FF4005100
:100E3000C9F80810641C6D085ED0E807FAD5386858
:100E4000E1B2FFF7D6FD8046019800EB441000F5B3
:100E50003069242107F51570614301445FEAC870C9
:100E6000009199D50121C9F808103B68196C03EB72
:100E7000441202F53062D2F808C097F806E0BEF1DD
:100E8000010F0CF020002BD15FEA0C7305D55945FA
:100E900082D35FEA0C412CD47EE710B12020906011
:100EA0007AE71CF0280FFBD1594502D35FEA0C41C9
:100EB0001FD4009800F10C0148691269C2F31202B4
:100EC000801A002C88600AD1486820B9386807F277
:100ED0009C42012156E708688A6802440A6057E785
:100EE000DFF828E471457FF443AF5FEA0C417FF5FA
:100EF0004CAFC2F808A04FE73D4600F001FA4003AE
:100F000040F1BB802868FFF76DFD0390002438E0B6
:100F1000401A0599D1F808A0824588BF82460AF197
:100F200003004FEA900BA87900901FFA8AF37968C2
:100F3000E2B24846FFF7BEFC7868F96850448A443C
:100F40007860C7F80CA009EB441000F510608169C7
:100F500089B2594505D3B868F968814201D20028A1
:100F6000D6D1F868B968884207D309F50068D8F87F
:100F7000341004980140C8F83410641C03984008E9
:100F800003900398002878D0C107F6D52868E1B20D
:100F9000FFF73AFD8046019800EB441000F5106918
:100FA0002420012200FB04FA04F00F00824005EB2C
:100FB0000A01D2435FEAC87301F11C0704921CD5F1
:100FC000726B0498024072630122C9F80820A87964
:100FD00001280ED1086A3A6802440A62002C04BF54
:100FE000686A002805D1286805F29C420121FFF7B4
:100FF0002EFDE1B2284600F0EDFA5FEA087044BF2A
:101000000821C9F808105FEAC86044BF1021C9F878
:1010100008105FEA486044BF4021C9F8081005F194
:1010200014005FEA8871824411D502982146FFF7C7
:101030003DFA9AF80310012906D100228AF803200C
:10104000E1B2284600F006FB0220C9F808005FEA7A
:10105000086092D5F968B868D5F8009088428CD3BA
:10106000DAF808B0401A834588BF83460BF10300C5
:101070004FEA900BCDF814A065E700F041F9002885
:1010800005F2CC4414D57168490849007160207894
:10109000012805D100212170284600F07FFB02E0E5
:1010A000284600F0CFFA2868416901F0004141610B
:1010B00000F026F900050AD5B168C80744BF2846E4
:1010C00000F0ABFA2868416901F40061416100F069
:1010D00017F9C00451D571684908490071601021A1
:1010E0002868FFF7E3F9019800214FF67F3214E0FA
:1010F00000EB411303F5106603F53063B260491C41
:10110000376827F4001737609A601E6826F40016C7
:101110001E601F6847F000671F602B799942E7D374
:10112000019000F50061C86940F00110C861E87BDA
:1011300050B1D1F8840040F00B00C1F88400486C35
:1011400040F00B00486409E0486940F4005040F06A
:101150002B004861086940F00B00086105F29C42D1
:10116000086820F4FE600860A9792868FFF76FFC22
:101170002868416901F48051416100F0C1F88004A0
:1011800015D52868FFF757FC2868FFF7D7F9E871ED
:1011900000F0CAFB0146EA792868FFF735F82846CF
:1011A00000F025FA2868416901F40051416100F01E
:1011B000A7F8000707D5284600F015FA2868416906
:1011C00001F00801416105F2572700F099F8000687
:1011D00013D50299886920F080008861012609E012
:1011E00024207043395C012903D1F1B2284600F074
:1011F00095F9761C28798642F2D300F081F8C00276
:1012000025D5019E01274FF0240817E006EB471073
:1012100000F5106008FB07F1006805F11802535C47
:10122000012B0AD1002808D529440122CA7547F0AC
:101230008001C9B2284600F071F97F1C28798742E5
:10124000E4D301962868416901F48011416100F0FE
:1012500057F8800236D5029A019B0120242100E034
:10126000401C2E79B04228D203EB401606F5306CB4
:1012700001FB00F72F44DCF8006007F2572797F8CE
:1012800001C0BCF1010FEBD1002EE9D594F808C0E4
:10129000C6F300460CF0010C6645E1D101263E7014
:1012A000976947F08007976156693706D8D403F5E8
:1012B0000063586840F4007058602868416901F480
:1012C0000011416100F01CF8400007D5284600F0ED
:1012D000C5F92868416901F08041416100F010F8CA
:1012E00040070AD529684C68600744BF284600F0CB
:1012F000B9F9286841680C43446007B0BDE8F08F35
:101300002868FFF763BB00000B30544F0A31544F7D
:10131000FFF742FB002084F8940410BD012284F8FA
:101320009424CB685A067047044694F894242068A5
:10133000012A01467047637B012B03D18A6B42F47B
:1013400080328A63704710B5044694F894040128EB
:1013500001D1022010BD012084F89404617420683A
:10136000FFF70CFBD6E738B5054601F00F04242043
:10137000444328190C0647BF00F11404012000F56E
:1013800015740020607001F00F012170C2F30A0291
:101390006078A260237108B121786183022B04BFB9
:1013A0000020607195F89404012801D1022032BD1B
:1013B000012085F8940421462868FFF7CDF877E0EE
:1013C00010B5044601F00F0200F09AF800F08BF817
:1013D00001D1022010BD00F08DF8FFF7F3F899E776
:1013E00038B500F026F804F5157401F00F012361FB
:1013F000002500F024F808BFE26113E001F00F01BE
:10140000242251430844D0F86802704738B500F0F0
:1014100010F8143401F00F012361012500F00FF8DA
:1014200008BFE261827900682146FFF711F90020C8
:1014300032BD01F00F052424654344197047002391
:101440002170E2606361657081790129704738B568
:1014500005460C46297904F00F00814201D2012093
:1014600032BD2421220605D54843284400F1140149
:10147000012005E011FB04F1681800F5157100204A
:10148000487001228A7004F00F040C7095F89404DF
:10149000012801D1022032BD85F894242868FFF785
:1014A0003CFA2CB9A979286805F29C42FFF7CFFADB
:1014B000002085F8940432BD10B5044601F00F02F7
:1014C0002079904201D2012010BD00F019F80023CC
:1014D000837000F008F801D1022010BD00F00AF876
:1014E000FFF733FA16E701F00F01017094F8941436
:1014F00001297047012284F894240146206870472E
:1015000024204243A0180A0603D514300123437057
:10151000704700F5157000224270704701F00F030C
:1015200024225343C21809064CBF02F1140102F5EC
:1015300015710068FFF770B910B586B00446142124
:1015400001A800F029FA2268B2F1A04F30D10020A2
:10155000824C0090216841F0010121600221206845
:1015600000F0010000904FF4C050009A019000225A
:101570000392049202910A22059201A9784800F090
:101580000FFA616841F08001616000200090002244
:10159000616941F4804161610821606900F4804023
:1015A00000900098432000F008FB432000F022FB4D
:1015B00006B010BD00F29C41D0F8E00400F06FBB13
:1015C0000B46242253430344D0F8E004D3F86022AE
:1015D00000F093BB0B46242253430344D0F8E004AD
:1015E0001A6A00F0C7BBD0F8E00400F05CBC38B564
:1015F00004460125E07908B9002503E0022818BF58
:1016000000F026FDD4F8E004294600F035FCD4F8BB
:10161000E004BDE8324000F0FFBB10B50446D4F84A
:10162000E00400F02CFC206800F56060016841F0E7
:1016300001010160E07A20B14A48016841F00601E9
:10164000016010BDD0F8E00400F024BCD0F8E00444
:1016500000F045BCD0F8E00400F033BCD0F8E00462
:1016600000F053BCD0F8E00400F051BC10B5017894
:1016700029BB3D4CC4F8E004C0F8C8424FF0A0407C
:101680002060042100200222A07160812073E0818B
:101690002171E27162722046FFF786FA08B100F00C
:1016A000D7FC8021204600F0F6FC40220021204695
:1016B00000F0D0FC80220121204600F0CBFC00206D
:1016C00010BD80B5D0F8C802FFF7D4FABDE80240DB
:1016D0004FE010B51C461346D0F8C8022246FFF76B
:1016E00042FEBDE8104044E080B5D0F8C802FFF7E4
:1016F00067FEEBE780B5D0F8C802FFF7A8FEE5E784
:1017000080B5D0F8C802FFF7D7FEDFE7D0F8C822CF
:1017100001F07F0324204343D018090601D5807DC2
:10172000704790F85602704780B5D0F8C802FFF7AE
:101730000AFECBE780B5D0F8C802FFF767FEC5E721
:1017400080B5D0F8C802FFF74BFEBFE7D0F8C8025B
:10175000FFF754BE054870470000000030380240D3
:101760000000024010ED00E000420020C0490020CF
:1017700070470146002021B1022901D101207047A4
:10178000032070474AB1000011F8013B521E00F8D7
:10179000013B1CBF11F8013BF8E770477047F0B4FC
:1017A0000246106895681318506803EB5004C00790
:1017B00048BF4D44A3422DD013F8016B16F003002F
:1017C00004BF13F8010BC01C31090F2907D113F80E
:1017D000011B0F3103E013F8017B05F8017B401E6C
:1017E000F9D10029E6D013F8010BC6F38106032EC8
:1017F00008BF13F8016B00EB062040422844002686
:10180000B71E8F421EBF10F8017B05F8017B761CC6
:10181000F6D1CFE7F0BC02F10C0070472DE9F041A2
:1018200004000E4654D0554F386800F00700B0420F
:1018300002D200F073F84BD12068514D810712D5C8
:10184000400703D5A96841F4E051A9602078010759
:1018500003D5A86840F46040A860A968A06821F09A
:10186000F0010143A9602178C80729D560680128E3
:1018700002D129688A0305E0022818BF032803D192
:1018800029688A0103D423E029688A0720D5A9683A
:10189000890840EA8100A860FFF780F98046A868BF
:1018A000616800F00C00B0EB810F09D0FFF776F90A
:1018B000A0EB080041F289318842F0D303202BE0ED
:1018C000386800F00700864204D200F027F801D003
:1018D000012021E02078420705D5A968E06821F4BD
:1018E000E0510143A9602178080706D5A96820695D
:1018F00021F4604141EAC001A96000F0D1FBAA686F
:101900002049214BC2F30312895CC84018601F486C
:10191000006800F0F5FB0020BDE8F0813E703968FA
:1019200001F00701B1427047174800687047164838
:10193000174A006813681749C3F38222FFE7895CDE
:10194000C840704710B50F220260114A136803F0B7
:1019500003034360146804F0F0048460136803F424
:10196000E053C3601268D20802F4E05202610348F7
:10197000026802F007020A6010BD0000003C02404D
:10198000003802409C3F00086C3000206830002086
:101990000838024020400008002200F001BC00008E
:1019A0002DE9F84F00226E4CDFF8B8814FF00F0997
:1019B00001230F6893401F409F4240F0CA804FEAC6
:1019C000420C032505FA0CF56FEA050E4D6805F08B
:1019D0000306012E1CBF05F00305022D10D18568FA
:1019E000CE680EEA050506FA0CF6354385604568B3
:1019F00025EA03034D68C5F3001595402B4343606A
:101A000093000D7905F00305032D1ED0C5688E687F
:101A10000EEA050506FA0CF63543C5600D7905F0AA
:101A20000305022D11D1D50800EB850503F01C0636
:101A3000D5F820B009FA06FA2BEA0A0BD1F810A063
:101A40000AFA06F646EA0B062E6205680EEA050655
:101A50000D7905F0030505FA0CF545EA060CC0F80A
:101A600000C04D6815F4403F73D04FF0000ECDF824
:101A700000E04FEA920CD8F8005045F48045C8F8D1
:101A8000005003F00C03D8F800E0374D0EF4804E00
:101A9000CDF800E0DDF800E055F82C6009FA03F518
:101AA000AE43324DA84208BF4FF0000E2AD0304D51
:101AB000A84208BF4FF0010E24D02E4DA84208BF07
:101AC0004FF0020E1ED02C4DA84208BF4FF0030E5F
:101AD00018D02A4DA84208BF4FF0040E12D0284D4E
:101AE000A84208BF4FF0050E0CD0264DA84208BFF3
:101AF0004FF0060E06D0244DA8420CBF4FF0070E43
:101B00004FF0080E0EFA03F3DFF85CE033434EF8B3
:101B10002C30FE43A3684D683340ED0248BF3B4381
:101B2000A360E3684D683340AD0248BF3B43E360C8
:101B300063684D683340AD0348BF3B43636023682F
:101B400006EA030C4B68DB0348BF47EA0C0CC4F8F9
:101B500000C0521C0F2A7FF62BAFBDE8F18F0000AA
:101B6000003C014044380240083801400000024077
:101B70000004024000080240000C02400010024035
:101B80000014024000180240001C0240090102003B
:101B900002D41E48815470471D4B02F00F021A44B4
:101BA00002F8041C70471B490A6860F30A2240F2DD
:101BB000FA5060F31F420A60704770B5154B1C68FD
:101BC000C4F302230124C3F10705052D2EBF0F2501
:101BD00004FA05F56D1E1E1D072E34BF0023DB1E03
:101BE0002940994004FA03F3BDE870405B1E1A4097
:101BF0001143CBE7010007D4012200F01F01064B7F
:101C00008A40400943F820207047000000E400E0CB
:101C100018ED00E00CED00E000E100E010B508B9BF
:101C2000032010BD00F527730024DC619C625C6317
:101C300001B19961012119700270BDE81040FFF7F0
:101C400015BD1CB50022ADF8002009B9032016BD52
:101C500000F52E742160E16900EB8100D0F8B82214
:101C6000D16A11B168468847A061206A401C206291
:101C7000002016BDFFF725BD02460020D2F8B8327D
:101C800013B110461A681047704710B5D0F8B83233
:101C90005A689047002400B10324204610BD38B58F
:101CA000044604F2AA25284600F0CCFC04F5257071
:101CB00001210160828B817D426011F01F0003D001
:101CC00002280DD006D311E029462046BDE8344055
:101CD00000F086BA29462046BDE8344000F0D2BB69
:101CE00029462046BDE8344000F004BC2046BDE84B
:101CF000344001F08001FFF7FDBC38B50446080010
:101D000004F5257328D11968032914D104F5AC70A2
:101D100001890568A94210D2C3686D1A194405608B
:101D2000C160D4F85821B4F86001824238BF02463D
:101D3000204600F0EDFC002032BD187A032807D1C0
:101D4000596A086920B100221A6420460969884747
:101D5000204600F0E5FCEEE7187A0328EBD15A6A3A
:101D600090690028E7D000251D6420469269BDE8EF
:101D70003840104738B50546080005F525743DD1B3
:101D80002168022934D1288CA96902468A4208D2E6
:101D90006B6A8A1A1918AA616962284600F0A5FCC4
:101DA0000DE013D16869904210D3616888420DD26A
:101DB00000220021284600F098FC002060600023EB
:101DC000002200212846FFF7BBFC11E0207A0328FF
:101DD00007D1616AC86820B1002222642846C96818
:101DE000884780212846FFF785FC284600F09FFCA5
:101DF000207B08B100212173002032BD207A032806
:101E0000FAD1626A50690028F6D00023236428467C
:101E10005269BDE83840104738B5044604F52570CE
:101E200001210172002202606260002101610273DF
:101E30000025406A00281CBF4268002A03D02046C3
:101E4000904700B103254023002200212046FFF7E0
:101E500040FC04F5B07001214022C1700280402393
:101E6000002280212046FFF734FC012084F8230063
:101E700040212184284632BD01740020704700F5BE
:101E80002770017804291CBF027842700421017078
:101E90000020704700F527700178042904BF4178BD
:101EA00001700020704780B500F527710A78032A79
:101EB00005D1C96900291EBFC969002988470020CA
:101EC00002BD10B500F019F80AB9032010BD1B7847
:101ED000032B02D1126A02B19047002010BD10B549
:101EE00000F00BF80AB9032010BD1B78032B02D1B8
:101EF000526A02B19047002010BD00F527739A6B1B
:101F000000EB8204D4F8B82270470020704700F537
:101F10002771012210B50A700024CA692AB14168EC
:101F20005268C9B2904700B10324204610BD00207A
:101F30007047002070477CB504460D4621786388C1
:101F40000026994212D2ADF8001000E00026BDF83C
:101F500000106288914209D2694600F009F8417880
:101F60000529F4D10646B178A942EFD1304676BDB5
:101F70000A880378D3180B80017808447047000062
:101F800080B500F0DBFB00F005F800F059FC00F034
:101F9000E3FDFEE780B592B0302106A8FFF7FCFC18
:101FA000142101A8FFF7F8FC0020009025480168E3
:101FB00041F080510160006800F0805000900020E6
:101FC000009900902048016841F4804101604FF47D
:101FD0008031006800F4804000900120009A079151
:101FE00002224FF480010C920D9108224FF4A87147
:101FF0000E920F910690022207211092119106A8CD
:1020000000F0D4FD08B100F023F802210291002273
:1020100003920F204FF4A051019004914FF480528D
:102020000592052101A8FFF7F9FB08B100F010F8AF
:1020300013B000BD00680549884208BF00F03EBFEC
:10204000704700004038024000700040001000401F
:1020500072B6FEE770B50068436A0C0003D143EA2C
:102060000242826215E0846A03EB1443002406E016
:1020700000EB8505641CD5F8046103EB1643E5B25B
:102080004E1EB542F4D300EB810043EA0242C0F891
:102090000021002070BD00684162002070470000F0
:1020A00030B5144C606800F00C00042802D00828F9
:1020B00002D01DE0104830BD226820680023410294
:1020C00002F03F0204D525680B49C5F3881003E0F0
:1020D00020680A49C0F38810A1FB000100F0F6FE59
:1020E0002168C1F30141491C4900B0FBF1F030BD4A
:1020F000024830BD0438024000127A000024F40087
:1021000078B587B00446002000902048016841F06F
:102110001001016001A9006800F01000009002A801
:10212000009AFFF70FFC059810B9FFF700FC02E0DA
:10213000FFF7FDFB4000164D1649174B2960B0FB19
:10214000F3F0401E40F2E73268600021EA60296146
:10215000A960A961284600F03DFF060012D128467B
:1021600000F045FF06000DD13620FFF743FD102C8F
:1021700007D2002221463620FFF71FFD07480460E2
:1021800000E00126304608B070BD00004038024033
:10219000544F00200010004040420F0068300020E3
:1021A00000B500BF130096469446103928BFA0E83A
:1021B0000C50FAD85FEA417C28BF0CC048BF40F8F9
:1021C000042BC90728BF20F8022B48BF00F8012BB9
:1021D00000BD00004178007840EA0120704700000F
:1021E0002DE9FC410D460446287810F060004FF0C0
:1021F000000804F527770ED0202818BF402840F0AB
:102200003581BA6B04EB82032046D3F8B842A2684A
:10221000904780462CE16978092937D8DFE811F02A
:10222000FB00190125010E0125018B000A00250183
:10223000E900A600ADF800806888010A012900F0D5
:102240007480022965D0032927D006291CD00729CC
:1022500004BF207C002819D1FA69116B68468847B1
:1022600007224270E988002900F0FC80BDF80020B8
:10227000002A6ED01146EA88914288BF1146ADF817
:1022800000100A460146D5E0207C002840F0ED8091
:10229000FA69516B68468847E4E7C0B20528F5D86B
:1022A000DFE800F02E251C130B03B8698269002AB1
:1022B0004FD0207C69469047D4E7B8694269002A2C
:1022C00047D0207C69469047CCE7B86902690AB9D3
:1022D00000F0CBB8207C69469047C3E7B869C26874
:1022E0000AB900F0C2B8207C69469047BAE7B869DD
:1022F00082680AB900F0B9B8207C69469047B1E716
:10230000B86942680AB900F0B0B8207C69469047C5
:10231000A8E7207CF9690028684603D1896A8847C4
:1023200002229EE7C96A8847FAE7BB69207C1A68DF
:102330006946904796E7A888002804BFE8880028E7
:1023400059D16E88802E80F090803878032806F06E
:102350007F0600F08A80BE7031462046FFF7E4F920
:1023600000F0C2F8B6BB0121397081E0424E6888A6
:10237000307031780846022802D300F0B8F835E012
:102380003A78022A1BD0032A2BD129B902203870AF
:10239000616000F074F865E06168884262D000F026
:1023A0006DF8317861602046FFF766FC5FEA00084F
:1023B00058D000F09CF8616800F060F80AE000294D
:1023C00050D060602046FFF757FC5FEA000803D05A
:1023D00000F08DF8022002E000F086F8032038704B
:1023E00046E000F084F8317800F049F84FF0030837
:1023F0003EE0E888012838D13978491E012904D9FE
:10240000891E32D10122211D14E0C4F80880012266
:1024100004F108010EE03878401E022825D8EA8829
:10242000022A22D10121E160B86808B10321E160EC
:1024300004F10C01204600F04FF919E068880128EA
:1024400008BFB8600ED002280FD1A888000A3871E2
:1024500008E03878401E022807D86A88012A07D188
:10246000C7F8088000F040F802E0294600F040F884
:102470004046BDE8F68100009C4F0020C9B22046CE
:10248000FFF703BCF8B50D4604462878002710F086
:1024900060001CBF2028402822D104F52776307820
:1024A000401E02281CD8A988CAB2022A18D2C9B272
:1024B0002046FFF73CFDFF2810D078B9F2699068FC
:1024C00060B1B76329469268204690470746E8887E
:1024D00040B9380006D100F007F803E0032701E017
:1024E00000F005F83846F2BD204600F019B929463B
:1024F0002046BCE02DE9F8430E4605463078347995
:1025000010F060004FF0000805F527770AD020286A
:1025100018BF402875D121462846FFF70AFDFF283D
:102520003DD172E07078002843D0012814D00328F0
:1025300067D13978022915D0032962D1708838B95A
:10254000002C18BF802C03D0F08808B900F076F872
:10255000284600F0E5F858E03878022802D0032831
:102560000AD04EE0002C18BF802C4AD000F066F84C
:10257000802100F064F848E07088002845D114F00C
:102580007F0103D021462846FFF7BAF8284600F01D
:10259000C7F821462846FFF7CCFCFF2835D0A0BB62
:1025A000B863F9698A6882B3314628469047804605
:1025B0002BE0142204F07F003B7850432918022BB3
:1025C00001F5AA7904F0800002D0032B10D018E0A6
:1025D000002C18BF802C14D108B101F1140989F81E
:1025E0000E80022209F10E01284600F075F80CE079
:1025F00004F00F0312FB03F22A4448B192F82300BF
:1026000080B93146284600F032F84046BDE8F283F2
:1026100092F863010028F4D0002C18BF802C04D15C
:10262000002008E001F11409F6E721462846FFF7EB
:102630006DF800B1012089F80E00D2E72146284646
:10264000FFF758B838B50D46044628782070A81C06
:10265000697861702D1DFFF7BDFD60802846FFF78A
:10266000B9FDA080A81CFFF7B5FDE08031BD10B515
:1026700004468021FFF73EF82046BDE810400021C7
:10268000FFF738B870B504000D46164619D000F0B3
:1026900019F8204600F016F84000801C3080032115
:1026A0003078287069700023022107E014F8010BCC
:1026B000CAB2491CA854CEB2491CAB552078002898
:1026C000F4D170BD0146002000E0401C11F8012B40
:1026D000002AFAD1C0B2704780B513460222C0F872
:1026E000942241624361836101E080B513460A464A
:1026F0000021FFF71FF8002002BD80B5134603221A
:10270000C0F8942200F5AA7213601161536001E0D1
:1027100080B513460A460021FFF712F8002002BDDB
:1027200080B50421C0F8941200230022E0E780B5B0
:102730000521C0F8941200230022ECE780B50B4875
:10274000016841F400710160026842F48062026035
:10275000016841F4807101600320FFF724FA0F2023
:10276000FFF7CEFC00F0A6FD002002BD003C0240B9
:10277000010007D4012200F01F01CF4B8A4040091D
:1027800043F8202070470901020002D4CB4881544D
:102790007047CB4B02F00F021A4402F8041C70473A
:1027A00030B500F007000123C0F10704052C2EBF4F
:1027B0000F2403FA04F4641E051D072D34BF002006
:1027C000C01E2140814003FA00F0401E1040084323
:1027D00030BD10B5BB4B01F0FF0253F82240090C8D
:1027E0008C4300F00DF88840204343F8220010BDD0
:1027F00010B500F005F8036800F00FF8026010BD96
:1028000091FAA1F1B1FA81F1704710B5FFF7F8FF25
:10281000C36800F002F8C26010BD490003248C4078
:10282000A3438A401A437047A74981B00A6802430C
:102830000A60096808400090009801B070470000E5
:102840002DE9F04188B0002000900190182100226D
:1028500002A800F04BFD1020FFF7E6FF0420FFF771
:10286000E3FF8020FFF7E0FF0120FFF7DDFF0220FC
:10287000FFF7DAFF0820FFF7D7FF944C944D954EF1
:10288000954FDFF858824FF07051A1614FF0A97059
:10289000A8614FF06741B1614FF00040B8614FF45B
:1028A0004101C8F818101C20002102900391012258
:1028B00000F01DF94FF4505000F038F9204600F0B8
:1028C0001FFD022000F032F900F00EF90420002173
:1028D000029003910691284602A900F011FD4FF4E1
:1028E000E06001210290039100220591049200F022
:1028F000FEF84FF4005000F019F9304600F000FDEA
:10290000012103914FF4404000F0FBF8304600F005
:10291000F7FC00F0F1F84FF4004000F0FAF8384608
:1029200000F0EEFC4FF400600121032202900391BD
:102930000492002105910691204602A900F0E0FCD6
:1029400000F0DAF8C12000F0E4F8404600F0D8FCCE
:1029500020200021029003910691404602A900F038
:10296000CFFC01210391102000F0CBF800F0BCF85F
:10297000002204920592402001210290039102223C
:10298000069202A900F0B0F800F0B6F84FF480709B
:1029900000F0BFF800F0A8F84FF070610220FFF7D8
:1029A00018FF4FF470210020FFF713FF4FF4700160
:1029B0000320FFF70EFF4FF070410320FFF709FFE0
:1029C00047490320FFF705FF042000F0B8F8012075
:1029D00000908DF804008DF805008DF8060068461B
:1029E00000F006FD022000F0AAF8082000F0A7F889
:1029F000102000F0A4F8022204212046FFF705FF72
:102A0000002201213846FFF700FF02220221404642
:102A1000FFF7FBFE022208214046FFF7F6FE0222E6
:102A200010214046FFF7F1FE002204212046FFF767
:102A3000DFFE002201213846FFF7DAFE00220221E4
:102A40004046FFF7D5FE002208214046FFF7D0FEA2
:102A5000002210214046FFF7CBFE224C00F060F828
:102A600001460720FFF78FFE0720FFF781FE00F0E9
:102A700057F801460820FFF786FE0820FFF778FE8A
:102A800000F04EF801460920FFF77DFE0A4D4FF495
:102A900000702860002220680B21C0F30220FFF79D
:102AA0007FFE01460A20FFF76EFE4FF4806028602B
:102AB00008B0BDE8F081000000E100E000E400E0C3
:102AC00018ED00E0083801403038024000080240AC
:102AD000000402400010024000000240000C0240CE
:102AE00001000F000CED00E0284600F009BC069242
:102AF00002A9304600F004BC012103910322049294
:102B0000704700210290032205910691049202A9C8
:102B100070470021029005910222069202A9704797
:102B2000206800220B21C0F3022039E60121029027
:102B30000391002204920592069202A97047009028
:102B4000012100228DF804108DF805208DF8061063
:102B5000684600F04DBC000010B5104C1049002232
:102B60002046FFF75BF808B1FFF772FA0D492046DF
:102B7000FFF767F808B1FFF76BFA0B49204600F042
:102B80003FFE08B1FFF764FA2046FFF773F818B16B
:102B9000BDE81040FFF75CBA10BD00BFE44600205E
:102BA000B0310020203100209C3100202DE9F84375
:102BB000040016D02078DFF8F462C10713D5B0689E
:102BC00000F00C00042807D0B06800F00C000828C2
:102BD0003ED1706841023BD53068810303D56068FF
:102BE000002800F05D812078DFF8C492810719D5B4
:102BF000B06810F00C0F07D0B06800F00C00082887
:102C00005BD17068410258D43068810703D5E2680F
:102C1000012A40F045813068216920F0F80040EA3F
:102C2000C10030602078010774D56069A14900288F
:102C300063D001220A60FDF7B1FF0546706F81077E
:102C400068D4FDF7ABFF401B0228F7D903202AE127
:102C50006068B0F5803F04D1306840F48030306067
:102C600011E0B0F5A02F306806D140F4802030602C
:102C7000316841F4803105E020F480303060316803
:102C800021F480213160606858B1FDF787FF054667
:102C900030688103A7D4FDF781FF401B6528F7D377
:102CA000D4E7FDF77BFF0546306881039BD5FDF730
:102CB00075FF401B6528F7D3C8E7E06870B10121B4
:102CC000C9F80010FDF76AFF054630688107A2D4F5
:102CD000FDF764FF401B0228F7D9B7E70022C9F8C7
:102CE0000020FDF75BFF0546306881079AD5FDF7A8
:102CF00055FF401B0228F7D9A8E70860FDF74EFFF3
:102D00000546706F810705D5FDF748FF401B022877
:102D1000F7D99BE72078410759D5306C0025C100D1
:102D20000BD4002000900125316C41F080513164BA
:102D3000306C00F08050009000985F4F3868C105FB
:102D400010D4386840F480703860FDF727FF804663
:102D50003868C10506D4FDF721FFA0EB0800022862
:102D6000F6D973E7A068012805D00528306F06D191
:102D700040F004003067306F40F0010005E040088B
:102D800040003067306F20F00400306741F289382E
:102D9000A06858B1FDF702FF0746306F810711D4D4
:102DA000FDF7FCFEC01B4045F7D34FE7FDF7F6FEED
:102DB0000746306F810705D5FDF7F0FEC01B404583
:102DC000F7D343E71DB1306C20F080503064A06928
:102DD000002867D0B16801F00C0108293DD0022815
:102DE0002CD10020C9F86000FDF7D8FE05463068F8
:102DF000810105D5FDF7D2FE401B0228F7D925E752
:102E0000E269206A616A0243A06A400842EA8112CC
:102E1000401E42EA0042E06A42EA0062726001211A
:102E2000C9F86010FDF7BAFE04463068810139D454
:102E3000FDF7B4FE001B0228F7D907E70020C9F808
:102E40006000FDF7ABFE0446306881012AD5FDF72E
:102E5000A5FE001B0228F7D9F8E6012820D07068EB
:102E6000E26900F48001914202BF00F03F01226A52
:102E7000914201BF47F6C0710140626AB1EB821F07
:102E80000ED1A26A00F4403101F580315208B1EB55
:102E9000024F02BF00F07060E16AB0EB016F01D039
:102EA000012000E00020BDE8F28300BF00380240AE
:102EB00000004742800E47420070004002484168CF
:102EC00002788A184260704760300020D3BBD9B1C5
:102ED000B2F5803F5BD2022A1ED98C46B1FBF2F1DB
:102EE00002FB11C31B0443EA1043B3FBF2FC02FBD9
:102EF0001C3380B240EA0343B3FBF2F002FB103212
:102F000040EA0C4000237047022A05D98446B0FBF2
:102F1000F2F002FB10C270474AB105D100F0010285
:102F200049085FEA3000704700220023704700F034
:102F3000A9BC0B000200002100207047F7D300223B
:102F400000237047904271EB030CF2D370B5B1FAD5
:102F500081F4B3FA83F52C1BA340C4F1200532FAA7
:102F600005F63343A2405FF00046E64002E05B080E
:102F70005FEA3202841A71EB030524BF204629461A
:102F80007641F4D302000B003000002170BD70B513
:102F9000B1FA81F4B2FA82F5C4F120046419B4F1F3
:102FA0002006DAD3B2405FF00044F440002502E08E
:102FB00052085FEA3303C61A71EB020E24BF304693
:102FC000714664416D41F3D302000B0020002900DB
:102FD00070BD000038B5040001D1012032BD00F001
:102FE00059F818B900F052F800F04DFC3AE090F8AA
:102FF0003D10012901D001207047022180F83D10C9
:103000000168CA6842F00102CA600168DFF88C20DA
:10301000914218BFB1F1804F17D0DFF88420914260
:103020001CBFDFF8803099420FD0DFF87C2091423E
:103030001CBFDFF87830994207D0DFF87420914246
:103040001CBFDFF87030994205D1896801F0070193
:10305000062905D001680A68084642F001020260AC
:103060000020704702206870211D206800F0BCF825
:103070000120A8720121A970E87029716871A971F5
:10308000E871297268726970002032BD00212970D0
:103090002046704704F13C05687870470000014005
:1030A0000004004000080040000C00400004014003
:1030B000004001400018004070B504462068C56813
:1030C0000669B10714D5AA0712D56FF00201016194
:1030D00001222277806910F0030F204602D000F011
:1030E000D3FB03E000F0D1FB00F07BF80020207759
:1030F000700715D56A0713D520686FF004010161C8
:1031000002222277806910F4407F204602D000F02E
:10311000BBFB03E000F0B9FB00F063F80020207770
:10312000300715D52A0713D520686FF00801016113
:1031300004222277C06910F0030F204602D000F06D
:10314000A3FB03E000F0A1FB00F04BF80020207788
:10315000F00615D5EA0613D520686FF0100101615D
:1031600008222277C06910F4407F204602D000F088
:103170008BFB03E000F089FB00F033F800202077A0
:1031800006F0010205F001010A4206D021686FF045
:1031900001020A612046FEF74DFF300608D52A06D7
:1031A00006D521686FF080000861204600F06EFBB4
:1031B000700608D56A0606D521686FF040000861E0
:1031C000204600F064FBB0060AD5AA0608D521689F
:1031D0006FF0200008612046BDE8704000F058BB49
:1031E00070BD204600F055BBF0B50368264D274C56
:1031F000274A284E284FA84218BFB0F1804F07D069
:10320000B84218BFB04203D0904218BFA0420ED1BE
:1032100023F0700C4B6843EA0C03A84218BFB0F1CE
:10322000804F17D0B8421CBFB042904212D0A0428B
:103230001CBF1A4A90420DD0194EB0421CBF194A09
:10324000904207D0184EB0421FBF184A9042184E05
:10325000B04203D123F44072CB6813434A698E68AD
:10326000C66223F0800313430A688262A84212BF39
:10327000A04209690163026842F004020260012170
:1032800041610360F0BD0000000001400004014006
:10329000000C0040000800400004004000400140D5
:1032A000004401400048014000180040001C00405C
:1032B0000020004081B0002000900B48416841F49C
:1032C00080414160416801F4804100910021009AF1
:1032D0000091036843F080530360006800F0805061
:1032E0000090009801B07047403802404018491CD7
:1032F0001CBFB1F1010100F8012DF9D170470000A8
:10330000F0B50246086890FAA0F0B0FA80F30F24F6
:1033100068E0000A90FAA0F0B0FA80F0D2F824E059
:10332000800004FA00F52EEA05050CFA00F040EAE8
:10333000050CC2F824C04DE001209840284050D030
:1033400090FAA0F5B5FA85F56E000327B740D1F8DD
:1033500004C0FF43BCF1010F18BFBCF1020F17D12D
:10336000D1F808C0D2F808E007EA0E0E0CFA06FC05
:103370004CEA0E0CC2F808C0D2F804C0D1F80CE038
:103380002CEA000C0EFB00FE4EEA0C0CC2F804C046
:10339000D1F810C0D2F80CE007EA0E0E0CFA06FCC9
:1033A0004CEA0E0CC2F80CC0D1F804C0BCF1020FFC
:1033B00010D1D1F814C0082DABD2D2F820E0A8006B
:1033C00004FA00F52EEA05050CFA00F040EA050CB7
:1033D000C2F820C0486815682F4000FA06F63E4340
:1033E00016605B1C0D6835FA03F0A5D1F0BD000036
:1033F00030B503790268294C0021002B43D0002A04
:1034000049D043791BB1022B13D009D319E0656869
:1034100025EA02026260236802681343236011E018
:10342000256825EA0202226063680268134363602C
:1034300008E023681A4322606568026815436560E6
:1034400000E00121827932B3012A04D019D3032A82
:103450000ED009D315E0E36802689343E360A368E4
:1034600000680343A36016E0A3680268934302E088
:10347000A36802681343A360E36800680343E36042
:1034800009E0012107E0236823EA02022260626862
:10349000006882436260084630BD0000003C014085
:1034A000F8B505464FF40770FEF754F9040005F52A
:1034B000307705F52F7603D1B16947F8210042E056
:1034C0004FF4077100F0E6F9B06947F82040B169A0
:1034D00057F82120326005F14407287C48B94FF4A1
:1034E000007300F03EF8012085F837004FF40073B8
:1034F00006E0402300F035F8012085F8370040232E
:10350000022201212846FEF7E4F8012085F8770120
:10351000102139600823032282212846FEF7D9F8BA
:10352000012004F50174F87100212160B06905EBF8
:103530008002D2F8C412086880470022226100206D
:10354000606122680AB90220F2BD287C00280CBF05
:103550004FF40073402301212846FEF7F1F80020C4
:10356000F2BD022281212846FEF7B3B838B50546E0
:103570008121FEF7B9F8002285F83720012128467D
:10358000FEF7B2F8002085F8770182212846FEF781
:10359000ABF805F144000021C171016005F52F74FD
:1035A00005F53075A16905EB8101086860B14968CE
:1035B00048688047A16955F82100FEF7D9F8A1694C
:1035C000002045F821002060002032BDF8B50546F6
:1035D00005F527730E46986B05EB80020021D2F8A3
:1035E000C0428DF80010ADF8021000270CB903207E
:1035F000F2BD317811F060002DD0202847D1F2883B
:10360000707805F5317CFAB109060FD59B6B5CF833
:1036100023C0DCF8083021469847F288082A28BFE2
:10362000072221462846FFF757F835E004F50071D8
:103630000870F088402828BF4020487028464A7803
:103640002146FFF75AF827E09B6B5CF82340A368FC
:103650003146984720E0707830B101281CD00A2804
:1036600009D00B2810D012E0197803290FD10222BB
:103670000DF1020104E01878032808D101226946FF
:103680002846FFF729F807E01878032804D03146C8
:103690002846FEF7ECFF03273846F2BDF8B504468E
:1036A00004F53273D8681E6804EB8002D2F8C05269
:1036B0000DB90320F2BD01F00F07142010FB07F035
:1036C00004EB000CDCF8140080B124225743F219FB
:1036D000D269B0FBF2F602FB160038B9CCF8140040
:1036E000002300222046FEF725F80FE005F50270C2
:1036F0000022C260DB6804EB8302D2F8C442236973
:1037000023B10A46006805F5047198470020F2BD10
:1037100070B50546D5F8D40205EB8002D2F8C04258
:103720000CB9032070BD284604F50176FEF70EF8AB
:1037300004F50371B060D5F8D422306805EB82033C
:10374000D3F8C442E2689047002070BD10B5D0F8AD
:10375000D41200EB810000F53070016809B9032034
:1037600010BD4368002B1EBF01F500742078FF28B0
:1037700004D062789B689847FF202070002010BD1D
:10378000F8B511E0F8B500F027F800F020F800F0E7
:1037900029F80CB11021A1714FF4007105B1A98075
:1037A00000B181800FE0F8B500F016F800F00FF8D6
:1037B00000F018F80CB11021A1710DB14021A980C1
:1037C00008B140218180432030803846F2BD044654
:1037D00001213846FEF7AFBB0646074F8221384627
:1037E000FEF7A9BB054681213846FEF7A4BB0A2196
:1037F0000180024870470000583100201431002039
:1038000009B903207047D0F8D42200EB8200C0F839
:10381000C41200207047D0F8D43200EB8300D0F8F7
:10382000C00208B90320704700F502700160826091
:1038300000207047D0F8D42200EB8200D0F8C002FC
:1038400008B903207047C0F804120020704780B503
:1038500000F010F809B9032002BDD1F80422017C60
:1038600000290CBF4FF4007340230121FDF768FFCE
:10387000002002BDD0F8D41200EB8102D2F8C012B1
:103880007047000070477047704770477047704737
:10389000704770470022FFF729BD0000502181F3D7
:1038A00011887047F8B55E4EB06F0024002840F0D4
:1038B0008A80356D6D1C356510D1316C086820B17A
:1038C000FFF7ECFF00F0C1F8FEE7306C716C31647B
:1038D0007064706E401C706600F0A6F8F06E51497E
:1038E0001422854262D35AE0336CD868C3685868A2
:1038F000854266D3D3F808C05869DF68CCF80870F1
:10390000D3F80CC09F68CCF8047003F1040C47682E
:10391000674504BFDF68476000275F6107687F1E57
:103920000760986AA8B1D3F81CC01F6ACCF8087069
:10393000D3F820C0DF69CCF8047003F1180C476895
:10394000674504BF1F6A476000279F6207687F1EA4
:1039500007604FF0010CD86A776D0CFA00FC4CEA56
:1039600007077765504301F1040E03F1040C5EF87C
:1039700000709F60D7F808E0C3F80CE0D7F808E0C3
:10398000CEF804C0C7F808C00F185F610F587F1C3D
:103990000F50F06BC76AD86A874238BF0124336C76
:1039A00018680028A0D14FF0FF33F366F06BC36AAC
:1039B0005A438958022928BF0124306E30B10124AE
:1039C00004E0F066F2E7F06D401CF0652046F2BDC1
:1039D000134A906F10B101211166704710661421CF
:1039E000506D104BB0FA80F0C0F11F004843191819
:1039F000086838B9502181F31188BFF34F8FBFF3A6
:103A00006F8FFEE748684068486001F108039842FC
:103A100004BFC86848604868C168D163D06B70470C
:103A200070300020E04D0020DFF868110A6C10684B
:103A300018B94FF0FF32CA667047086CC268136845
:103A4000CB667047502080F31188BFF34F8FBFF3D0
:103A50006F8F70472DE9F84304469046994601263A
:103A6000502724B987F31188FFF7EFFFFEE721B154
:103A700087F31188FFF7E9FFFEE7089D00F0A0F843
:103A8000EFF3118187F31188FFF7DFFF0DB1206D90
:103A90002860022094F854303E4A84F85400B9F16A
:103AA000040F1AD8DFE809F0080311061500206D8D
:103AB00048EA0008C4F85080012B57D1A06AA0B191
:103AC00087F31188FFF7C1FFFEE7206D401C2065DA
:103AD000F2E7022BEED1002648E0106D0028EBD073
:103AE00087F31188FFF7B1FFFEE7906F50BBA56821
:103AF0006069E368AB60E568A3686B60251D436897
:103B0000AB4204BFE36843600025656103685B1E48
:103B10000360E56A506D06FA05F300F032F85D4384
:103B20007D59A560AF68E760271DD5F808C0CCF8BF
:103B30000470AF60E56A6B43C5186561C7587F1CA8
:103B4000C75009E05068E06104F1180385682562F8
:103B500085686B6000F00FF8D06BC36AE06A83423F
:103B600004D2099800B106600120106681F3118823
:103B70003046BDE8F2838360A2621068401C10608A
:103B800070471843506514230148071D7047000013
:103B9000E04D00207030002080B5502080F3118867
:103BA000BFF34F8FBFF36F8FFFF77CFE18B1104943
:103BB0004FF080500860002282F3118801BD0000A0
:103BC00010B5EFF3058050211028084A05D3094BA2
:103BD000185C1478A04200F011F89068064A136847
:103BE00003F4E063984200F009F810BD543000205F
:103BF00004ED00E0F0E300E00CED00E006D281F31C
:103C00001188BFF34F8FBFF36F8FFEE7704700003F
:103C1000122008801A48704704200880194870470D
:103C20002DE9104000F028F827A004E02DE910400D
:103C300000F022F82AA02146FEF724FD204610BD00
:103C400038B51A200880104D104844680168806813
:103C5000401809D00822A91C00F022F8042205F11E
:103C60001201204600F01CF8284632BD2DE9104014
:103C700000F002F81FA0DEE70A46054C704700007E
:103C8000CC310020E0310020E4310020107AFF1F09
:103C9000E04B00202DE91040FFF7EEFF18A0CAE727
:103CA00030B500230CE0040F0A2C2CBF373430341D
:103CB00001F8134001EB4305002400016C705B1C0C
:103CC0009342F0DB30BD000053544D33322056692F
:103CD000727475616C20436F6D506F7274000000D8
:103CE00053544D6963726F656C656374726F6E696E
:103CF0006373000043444320436F6E6669670000AE
:103D000043444320496E7465726661636500000038
:103D1000EFF30980BFF36F8F264B1A681EF0100F68
:103D200008BF20ED108A20E9F04F106009B44FF071
:103D3000500080F31188BFF34F8FBFF36F8FFFF7F1
:103D400047FE4FF0000080F3118809BC196808682D
:103D5000B0E8F04F1EF0100F08BFB0EC108A80F3EF
:103D60000988BFF36F8F7047124B19680868B0E875
:103D7000F04F80F30988BFF36F8F4FF0000080F39E
:103D8000118870470C480068006880F308884FF07D
:103D9000000080F3148862B661B6BFF34F8FBFF3A3
:103DA0006F8F00DFDFF81400016841F470010160DB
:103DB00070470000AC30002008ED00E088ED00E026
:103DC0001FB500F02BF848B100F022F801220021C5
:103DD000FFF740FE029808B100F001F81FBDDFF8C0
:103DE00054004FF080510160BFF34F8FBFF36F8FCE
:103DF00070471FB500F012F848B100F009F8022230
:103E00000021FFF727FE029808B1FFF7E8FF1FBD6A
:103E100002A9019100240094012370470020029020
:103E2000DFF80C10C86C7047034800F007B80000BA
:103E30000000002004ED00E00C4F002038B50446DF
:103E400041F214012068DFF83050425815404550C7
:103E500015F0C00F1CBF2046FFF7B2FFE80744BFB4
:103E60002046FFF7C6FF280404D52046BDE83240AF
:103E700000F004B831BD0000FBE7013870470000D6
:103E800038B50E4C0E4D002205F500612046FFF7B7
:103E9000C2FC29462046FFF7CDFC002032BD0020A1
:103EA00070470020704710B50146044C2046FFF7CC
:103EB000C1FC2046FFF7CBFC002010BDE4460020EB
:103EC000003200200020704730B4002512E050F886
:103ED000042BD30744BF4A44521E091F042942F849
:103EE000045BFAD213468C0744BF15809B1CC9079C
:103EF00048BF1D7050F8041B0029E8D130BC704742
:103F000010B5074979441831064C7C44163404E056
:103F10000A68081D114488470146A142F8D110BD26
:103F20002C000000480000004EF68851CEF200013F
:103F3000086840F470000860BFF34F8FBFF36F8FC5
:103F40004FF00170E1EE100A704700007DFFFFFFA7
:103F5000A01D0000003200200000000043D8FFFF39
:103F600000020000BC02000000000020FEE7FEE7A7
:103F7000FEE7FEE7FEE770470248FFF79DB80248FC
:103F8000FCF787BE544F0020004200200248016821
:103F900041F470010160704788ED00E0000000000E
:103FA00000000000010203040607080900F00DF8F4
:103FB000002801D0FFF7A4FFAFF300800020AFF38B
:103FC0000080FDF7DDFF00F002F80120704700F0EF
:103FD00001B800000746384600F002F8FBE7000091
:103FE00080B5AFF30080024A11001820ABBEFBE79A
:103FF000260002000548014603B4684680F309889C
:10400000AFF30080FFF790FFFFF7D0FFA5EDF5FEBF
:1040100001488047014800478D3F0008F53F0008F0
:104020000000000001020304FFF7FEBFFFF7FEBF20
:10403000FFF7FEBFFFF7FEBFFFF7FEBFFFF7FEBFB4
:10404000FFF7FEBFFFF7FEBFFFF7FEBFFFF7FEBFA4
:10405000FFF7FEBFFFF7FEBFFFF7FEBFFFF7FEBF94
:10406000FFF7FEBFFFF7FEBFFFF7FEBFFFF7FEBF84
:10407000FFF7FEBFFFF7FEBFFFF7FEBFFFF7FEBF74
:10408000FFF7FEBFFFF7FEBFFFF7FEBFFFF7FEBF64
:10409000FFF7FEBFFFF7FEBFFFF7FEBFFFF7FEBF54
:1040A000FFF7FEBFFFF7FEBFFFF7FEBFFFF7FEBF44
:1040B000FFF7FEBFFFF7FEBFFFF7FEBFFFF7FEBF34
:1040C000FFF7FEBFFFF7FEBFFFF7FEBFFFF7FEBF24
:1040D000FFF7FEBFFFF7FEBFFFF7FEBFFFF7FEBF14
:1040E000FFF7FEBFFFF7FEBFFFF7FEBFFFF7FEBF04
:1040F000FFF7FEBFFFF7FEBFFFF7FEBFFFF7FEBFF4
:10410000FFF7FEBFFFF7FEBFFFF7FEBFFFF7FEBFE3
:10411000FFF7FEBFFFF7FEBFFFF7FEBFFFF7FEBFD3
:10412000FFF7FEBFFFF7FEBFFFF7FEBFFFF7FEBFC3
:10413000FFF7FEBFFFF7FEBFFFF7FEBFFFF7FEBFB3
:10414000FFF7FEBFFFF7FEBFFFF7FEBFFFF7FEBFA3
:10415000FFF7FEBFFFF7FEBFFFF7FEBFFFF7FEBF93
:10416000F23E0001F3FF030001F1FF01F1FF01F155
:10417000FF01F1FF01F1FF01F1FF01F1FF01F1FF8B
:1041800001F1FF01F1FF01F1FF01F1FF01F1FF0179
:10419000F1FF01F1FF01F1FF01F1FF01F1FF01F179
:1041A000FF01F1FF01F1FF01F1FF01F1FF01F1FF5B
:1041B00001F1FF01F1FF01F1FF01F1FF01F1FF0149
:1041C000F1FF01F1FF01F1FF01F1FF01F1FF01F149
:1041D000FF01F1FF01F1FF01F1FF01F1FF01F1FF2B
:1041E00001F1FF01F1FF01F1FF01F1FF01F12501F3
:1041F00012AA012D0B305E011030221008FF64243A
:10420000F41E30F21E0E7610020A0600023322401F
:10421000BC1007A13400086D350008CD042147A06B
:104220000A4D3700089D36000811370008571285DF
:104230001012810412A70412EF04140909024300AA
:10424000020100C03209040512020B101E052400F1
:1042500010010524010001042402020524060001C6
:104260000705820308001009040100020A4E20031A
:10427000070501024007228107100400813E000863
:104280009F0412A30412A70412C5041003113C00DA
:10429000081904122D04122104124104126D041293
:1042A0009504121247100602020040830440577D15
:0E42B000130203C1FC030A040309041A95312A
:0400000508003FF5BB
:00000001FF
