:020000040800F2
:10000000B096012095090108AB040108AD04010870
:10001000AF040108B1040108B304010800000000A6
:10002000000000000000000000000000151B000898
:10003000B504010800000000BD1A0008871500087B
:10004000C9090108CD090108D1090108D50901082C
:10005000D9090108DD090108E1090108E5090108DC
:10006000B7040108D1040108E9090108ED090108F4
:10007000F1090108F5090108F9090108FD0901085C
:10008000010A0108050A0108090A01080D0A010808
:10009000110A0108150A0108190A01081D0A0108B8
:1000A000210A0108250A0108290A01082D0A010868
:1000B000310A0108350A0108390A01083D0A010818
:1000C000410A0108450A0108490A01084D0A0108C8
:1000D000510A010805050108550A0108590A0108D5
:1000E0005D0A0108610A0108650A0108690A010838
:1000F0006D0A0108710A0108750A0108790A0108E8
:100100007D0A0108810A0108850A0108890A010897
:100110008D0A0108910A0108EB040108950A0108FB
:10012000990A01089D0A0108F1040108A10A0108C1
:10013000A50A01088DEB0008A90A0108AD0A01080B
:10014000B10A0108B50A0108B90A0108F304010857
:10015000BD0A0108C10A0108C50A0108C90A010847
:10016000CD0A0108D10A0108D50A0108D90A0108F7
:10017000DD0A0108E10A0108E50A010800000000A3
:10018000E90A0108ED0A01082DE9F04385B00024D1
:100190000D9D0494502615B900F019FFFEE70E9C42
:1001A00014B900F014FFFEE758270097DDF800E0CF
:1001B000BEF1580F02D000F00AFFFEE7174688464E
:1001C0008146009A1E465821204600F051FF022227
:1001D000256384F8552000200C9A039004A901910E
:1001E0000092029433463A464146484600F037F8BA
:1001F00014B1204600F075F804982DE02DE9F8437D
:100200000646174684B088469946B80000F072FF4B
:1002100004001FD0582000F06DFF050017D05821B2
:1002200000F026FF00202C6385F85500039002950E
:100230000D980C99019000914B463A464146304644
:1002400000F00DF8284600F04CF8012004E02046AC
:1002500001F001F84FF0FF3005B0BDE8F0832DE963
:10026000F8430A9C80460D461646206B9946A52207
:10027000B10001F053F8216B01EB8600061FF60870
:10028000F600502165B10022AB5CA01880F8343034
:10029000A85C10B1521C0A2AF6D3002084F83D0055
:1002A000089F0F2F04D381F3118800F09DFCFEE717
:1002B000099DE762A764201D01F05AF804F11800B7
:1002C00001F056F82461C7F10F07A76164624A463E
:1002D0004146304601F094F8206005B12C60BDE83D
:1002E000F1832DE9F04100F077F8DFF8CC55DFF825
:1002F000CC75E86C401CE8641426E86B40BBEC63EA
:10030000E86C01282CD1002506FB05F0384401F0EB
:1003100022F86D1C0F2DF7D3DFF89C5505F17C00FA
:1003200001F019F805F19008404601F014F828464C
:1003300001F011F805F1140001F00DF805F12800A5
:1003400001F009F805F17C002864C5F8448007E055
:10035000A86D28B9E06AE96BCA6A904228BFEC63CD
:10036000A86EE16A401C206401236A6D8B404E43F5
:100370001A43391D6A65221D895900F00DF9B91912
:100380006161BB595B1CBB51A86601F0EBF8A86D1D
:1003900040B1E86BC16AE06A814203D200F025F8FF
:1003A00000F022FCBDE8F08180B580B1DFF8E415F3
:1003B0008A6F521C8A67896F012902D000F011FCF4
:1003C000FEE7002100F00AFE00F06EF818B900F018
:1003D00006F800F009FC01BD044601F0AAB8DFF8F8
:1003E000F0174FF0805008607047DFF8E4274FF0B7
:1003F000805111607047201D00F0E3BFF0B589B057
:100400005FF0000123A206AB505C585410B1491CA8
:100410000A29F9DB0024DFF87C550FF2F55600219C
:100420000591049103AA04A905A801F06CF90598A7
:10043000049902900022009201910023039A06A9D8
:10044000304605EB8407FFF79FFE386718B101209F
:10045000641C002CE3DD012808BF01F06FF9502176
:1004600001280FD181F3118800F0BEFB4FF0FF305F
:10047000E8660121A9650020286500F0E3FF686FA8
:1004800009B0F0BD10F1010FF9D181F3118800F02E
:10049000ABFBFEE749444C4500000000DFF8F404E4
:1004A000816F491C81677047F8B501F042F8DFF8A9
:1004B0000864B06F0024002520B900F074F800F043
:1004C00093FBFEE7B06F401EB067B06F00285FD1AE
:1004D000F06C002840D15BE0F068C468E269A06A73
:1004E000216A9160226AE169516004F11802416851
:1004F000914204BF216A4160A5620168491E016002
:10050000A2686069E1689160E268A1685160221D9B
:100510004168914204BFE16841606561142201684D
:10052000491E01600121E76A706DB940084370659A
:100530005743DFF88803011D221DC95900F02CF82C
:10054000C1196161C3595B1CC351F16BC86AE16A8F
:1005500088423CBF0122326630680028BCD10CB111
:1005600000F092FAF46D44B100F025F808B10120D2
:100570003066641EF8D10020F065306E40B1F26B39
:10058000DFF84C164FF080500125086000F02CFB7E
:1005900000F0E8FF2846F2BDA1608B68E3608B683D
:1005A0005A608A607047502181F311887047DFF8E4
:1005B000E403006D7047F8B5BF4EB06F002400280B
:1005C00040F08A80356D6D1C356510D1316C08683E
:1005D00020B1FFF7E8FF00F007FBFEE7306C716C1D
:1005E00031647064706E401C706600F04DFAF06EFD
:1005F000B2491422854262D35AE0336CD868C3688A
:100600005868854266D3D3F808C05869DF68CCF8CB
:100610000870D3F80CC09F68CCF8047003F1040C88
:100620004768674504BFDF68476000275F61076868
:100630007F1E0760986AA8B1D3F81CC01F6ACCF867
:100640000870D3F820C0DF69CCF8047003F1180CEF
:100650004768674504BF1F6A476000279F620768B5
:100660007F1E07604FF0010CD86A776D0CFA00FC12
:100670004CEA07077765504301F1040E03F1040CBF
:100680005EF800709F60D7F808E0C3F80CE0D7F878
:1006900008E0CEF804C0C7F808C00F185F610F5813
:1006A0007F1C0F50F06BC76AD86A874238BF01249D
:1006B000336C18680028A0D14FF0FF33F366F06B5D
:1006C000C36A5A438958022928BF0124306E30B1C9
:1006D000012404E0F066F2E7F06D401CF06520466E
:1006E000F2BD754A906F10B1012111667047106616
:1006F0001421506D714BB0FA80F0C0F11F004843D7
:100700001918086838B9502181F31188BFF34F8F49
:10071000BFF36F8FFEE748684068486001F1080347
:10072000984204BFC86848604868C168D163D06B0C
:10073000704710B50C4610B900F053FAFEE75E4A58
:10074000D36B03F1180100F023FE2046BDE81040F2
:10075000012100F043BC70B5502420B984F3118806
:1007600000F042FAFEE7544DAB6F23B984F31188D1
:1007700000F03AFAFEE7EB6B41F000419961416805
:10078000EC6BE1618B68EC6B2362EE6B8C6806F1BD
:1007900018036360EB6B03F118048C60E96B8862EB
:1007A000012103685B1C03601046BDE8704000F047
:1007B00015BCF8B50B4610B900F013FAFEE7416816
:1007C0003D4CE66BF1618D68E66B3562E76B8E68D8
:1007D00007F118057560E56B05F118068E60E16B91
:1007E00088620468641C04600AB14FF0FF3311464C
:1007F000BDE8F440184600F0F1BBF0B5C068C06831
:1008000010B900F0EEF9FEE7C369816A026A9A60E6
:10081000036AC2695A6000F118034A689A4204BF29
:10082000026A4A600A68521E0A600023224A916FD7
:1008300041BB85684169C468AC60C56884686C6008
:10084000051D4C68AC4204BFC4684C60436101267E
:100850000C68641E0C601421C46A556DA6403543B3
:1008600055654C4315490D1D061D2D598560AF6812
:10087000C760AF687E60AE600D1945610F597F1C7F
:100880000F510CE05168C16100F118038C680462DB
:100890008C6863608B6013461168491C1160836229
:1008A000D16BC06ACB6A834203D201210120116659
:1008B000F0BD0020F0BD0000F8300020E48C0120E5
:1008C00070B5344B9A6F502422B984F3118800F02C
:1008D0008BF9FEE741F000410160C16821B984F362
:1008E000118800F081F9FEE7456802698468AC6010
:1008F000856844686C605468844204BF85685560AC
:10090000002404611068401E10608C684869CA6841
:10091000A260CC688A6862600C1D4268A24204BF73
:10092000CA68426000244C6101250268521E0260C0
:100930001420CA6A5C6D95402C435C654243DFF825
:100940002807041D0D1DA4588C60A668CE60A668FB
:100950007560A56084184C618658761C8650D86BEB
:10096000C26AC86A82423CBF0121196670BD10B5D7
:10097000040002D100F035F9FEE700F0DAFDDFF8FF
:10098000EC06416E2160006D6060BDE8104000F033
:10099000E9BD0000F8300020DFF8D0164A6E026092
:1009A000096D41607047F8B504460D46502014B9F2
:1009B00000F018F9FEE715B900F014F9FEE700F0B1
:1009C000B8FDDFF8A806016D62682E688B1A16F173
:1009D000010F12D0476ED4F800C0674505D0914290
:1009E00003D30020012428600CE0B34207D2F31A9D
:1009F0002B60416E2160006D6060002402E00020E9
:100A00002860012486E1DFF864160120086670473B
:100A100010B5DFF8544600F008F821680229FAD32F
:100A2000FFF7DDFC00F0E0F8F5E738B5DFF83C460D
:100A300011E000F07EFD206AC568281D00F0C1FCB1
:100A4000E06C401EE064A06C401EA06400F08AFDD3
:100A5000284600F004F8A06C0028EAD131BD10B59A
:100A6000044694F8550040B9206B00F0F4FB204692
:100A7000BDE8104000F0EFBB10BD0128F7D0022800
:100A8000FAD000F0AEF8FEE7DFF8E0150A6C106867
:100A900018B94FF0FF32CA667047086CC268136815
:100AA000CB667047DFF8C405C06B7047DFF8BC1534
:100AB000886D08B901207047886F08B90220704717
:100AC000002070472DE9F04104460020002C3BD067
:100AD000E16ADFF89855EA6BD36A99422ED2A06991
:100AE000002804D4E86BC26AC2F10F02A261142785
:100AF000DFF874656269794331448A421AD1FFF79D
:100B00007AFC4FF0010828B9686DE16A08FA01F132
:100B100088436865E86BC16AE1620846696D08FA56
:100B200000F2474342EA0108301DC5F8548000F046
:100B30009CF808E0E86BC16AE16204E0A16CEA6B32
:100B4000D36A994200D20120BDE8F08170B5044615
:100B50000021002C3AD0DFF81455E86B5022844273
:100B600004D082F3118800F03FF8FEE7E06C20B972
:100B700082F3118800F038F8FEE7E26AA36C401EA9
:100B80009A42E06422D008BBFFF735FC012628B961
:100B9000686DE16A06FA01F188436865231DA16C5E
:100BA000E162C1F10F00A06114206A6D8E404143E3
:100BB000DFF8B4041643021D6E655258A2609568B2
:100BC000E56095686B6000F005F80121084670BD8E
:100BD00004ED00E09360421862614458641C445084
:100BE0007047502080F31188BFF34F8FBFF36F8F92
:100BF0007047F8B5040037D0E06C502320B983F378
:100C00001188FFF7F1FFFEE7A26C914238BF114651
:100C1000E26A8A4228D0012826D1DFF85054E86BD6
:100C2000844204D183F31188FFF7DEFFFEE7A06959
:100C3000E16200285CBFC1F10F01A1611427DFF858
:100C4000286461697A43324491420DD1FFF7D3FBA6
:100C500000F019F80122E06A696D824047431143B0
:100C6000301D696500F001F8F1BD211DC059A0607B
:100C70008268E260826851608160F0196061F259B7
:100C8000521CF251704728B9696DE06A0122824016
:100C9000914369657047DFF8D413C86B8069CA6BEC
:100CA000C96BCB6AC3F10F0393617047DFF8BC03D4
:100CB000C06B10B1C16C491CC1647047F8B50D46DA
:100CC000164600F070F8F86B006D28B9F86B01213A
:100CD00080F8541006B1012400F044FC1CB101213D
:100CE000304600F07BF9FFF7DFFB24B118B9FFF7BE
:100CF00076FBFFF779FF00F01CFCF86B046D2CB15C
:100D0000002D14BF0020601EF96B08650020F96BF0
:100D100081F8540000F026FC2046F2BD2DE9F8438E
:100D2000884691461D4600F03EF8F86B089E90F804
:100D3000540002280BD0F86B016D21EA0808C0F8B6
:100D400050800120F96B81F8540006B1012400F0B5
:100D500009FC1CB10121304600F040F9FFF7A4FB6B
:100D600024B118B9FFF73BFBFFF73EFF00F0E1FBB2
:100D700015B1F86B006D2860F86B90F854000228EC
:100D800018BF002406D1F86B016D21EA0909C0F8EB
:100D900050900124F96B002081F8540000F0E2FB30
:100DA0002046BDE8F283002438B1502080F311883A
:100DB000BFF34F8FBFF36F8FFEE7DFF8B072B86FEE
:100DC000401CB86700F0B5BB2DE9F84304469046D7
:100DD00099460126502724B987F31188FFF704FFAD
:100DE000FEE721B187F31188FFF7FEFEFEE7089DBD
:100DF00000F0DCFBEFF3118187F31188FFF7F4FEBD
:100E00000DB1206D2860022094F85430974A84F880
:100E10005400B9F1040F1AD8DFE809F008031106ED
:100E20001500206D48EA0008C4F85080012B57D106
:100E3000A06AA0B187F31188FFF7D6FEFEE7206D08
:100E4000401C2065F2E7022BEED1002648E0106D31
:100E50000028EBD087F31188FFF7C6FEFEE7906FFE
:100E600050BBA5686069E368AB60E568A3686B6028
:100E7000251D4368AB4204BFE368436000256561FC
:100E800003685B1E0360E56A506D06FA05F300F027
:100E900098F85D437D59A560AF68E760271DD5F8D8
:100EA00008C0CCF80470AF60E56A6B43C518656193
:100EB000C7587F1CC75009E05068E06104F118036F
:100EC0008568256285686B6000F075F8D06BC36A31
:100ED000E06A834204D2099800B1066001201066DE
:100EE00081F311883046BDE8F283F8B50446154613
:100EF000502614B900F06BF8FEE711B100F067F866
:100F0000FEE700F053FBEFF3118100F060F894F876
:100F10005400022284F85420236D5B1C01282365B1
:100F200046D1A06A10B100F052F8FEE74F4A906F28
:100F300050BBA6686069E368B360E668A368736045
:100F4000261D4368B34204BFE36843600026666120
:100F500003685B1E03600123E66A506DB34000F036
:100F600030F85E43BE59A660B768E760271DD6F823
:100F700008C0CCF80470B760E66A7343C6186661AF
:100F8000C7587F1CC75009E05068E06104F118039E
:100F9000866826628668736000F00DF8D06BC36ABD
:100FA000E06A834204D20DB1012028600123136658
:100FB00081F31188F1BD8360A2621068401C10604B
:100FC00070471843506514232748071D704786F360
:100FD0001188BFF34F8FBFF36F8F70472DE9F84330
:100FE000224E376DD6F84080D6F844900C46F16B0F
:100FF0000546081D00F0E5F930B9F06B716DC06A67
:10100000012282409143716515F1010F15D1A4B100
:10101000F06AF26B90608168F26BD160F36B82686A
:10102000191D5160F16B0A1D826006F12800F16BF9
:101030004861B06A401CB06213E0F06BED19456086
:10104000BD42F06B05D2011D4846BDE8F44300F0F7
:101050009FB9011D404600F09BF9F06E854238BFF4
:10106000F566BDE8F1830000E48C0120F830002033
:10107000002200F005BDF0B4024610689568131810
:10108000506803EB5004C00748BF4D44A3422DD025
:1010900013F8016B16F0030004BF13F8010BC01C1A
:1010A00031090F2907D113F8011B0F3103E013F8A1
:1010B000017B05F8017B401EF9D10029E6D013F829
:1010C000010BC6F38106032E08BF13F8016B00EB7A
:1010D0000620404228440026B71E8F421EBF10F84B
:1010E000017B05F8017B761CF6D1CFE7F0BC02F15D
:1010F0000C0070472DE9F84504004FF00008454604
:1011000012D014F1080F0ED2083414F0070F0BD0D0
:1011100004F00700C0F108004FF0FF31091AA142A6
:1011200028BF041900D20024FFF7B8F9794988686C
:1011300001F11C02D8B901F11C0717F0070F4FF499
:101140008230134605D0D31DDB08DB00C3F58230A7
:101150001018C0180838C008C0000B604D608860C7
:1011600045600560C71A5F6018600F61CF60502747
:10117000002C60D45FD0CB68A3425CD3D1F800E0F0
:101180008C46964522BF644E8E19764502D200F0F9
:101190005BF8FEE7DEF80400A0420BD2DEF80000A8
:1011A00040B1F4468646964528BF7645F2D200F017
:1011B0004BF8FEE7886886453DD0DCF8000000F17A
:1011C0000808904528BF46450AD3DEF80020CCF831
:1011D0000020DEF80460A64205D200F035F8FEE7F4
:1011E00000F032F8FEE7361B112E10D30EEB040A86
:1011F0001AF0070002D000F027F8FEE70EF1040015
:101200000651CEF804404EF80420CCF800A0DEF8D9
:1012100004000C691B1AA34298BF1C460C61CB60EA
:1012200040F00040CEF80400CEF8005008F007056A
:101230004A69521C4A61FFF737F915B100F004F80A
:10124000FEE74046BDE8F28587F31188BFF34F8F74
:10125000BFF36F8F7047002800D170472DE9F04130
:101260002C4C04F11C08A0F108065025464522BF6D
:1012700029482718B74205D37168002905D400F022
:1012800042F8FEE700F03FF8FEE7306810B100F0EA
:101290003AF8FEE721F000417160FFF7FFF8E168DE
:1012A00070684118E16000E004462068B042FBD35A
:1012B00018498C4206D0444528BFA74202D200F00C
:1012C00022F8FEE76268A318B34203D1706882185F
:1012D0006260264672682368B018984208D1886810
:1012E000834204D05868821872601B6800E003468D
:1012F0003360B44218BF26608869401C8861BDE82D
:10130000F041FFF7D1B885F31188BFF34F8FBFF3DA
:101310006F8F7047503300201B04010062F30F22CF
:1013200062F31F4200B500BF130096469446103981
:1013300028BFA0E80C50FAD85FEA417C28BF0CC057
:1013400048BF40F8042BC90728BF20F8022B48BF2C
:1013500000F8012B00BD4FF0FF3200F10801826060
:101360004160C16000F10802026100210160704724
:1013700000210161704710B542684A6093688B6034
:1013800094686160916008610168491C016010BD4A
:1013900030B50A6812F1010F08BF036907D000F1E8
:1013A000080300E023465C682568AA42FAD25A681E
:1013B0004A6091608B60596008610168491C016056
:1013C00030BD4368016982689A60836842685A60E8
:1013D0004A68824204BF83684B6000220261086849
:1013E000401E086070478268521C8260426832B1B9
:1013F0000268531C036011704168491E41607047C8
:10140000490810B54900A0F120034FF0807499619C
:101410001A60DC616FF002020FF20D01596140F8B1
:10142000242D203810BD00006B494A68502012F16D
:10143000010F80F31188BFF34F8FBFF36F8F00D080
:10144000FEE7FEE77CB56549654A0868502390428F
:1014500002D100F067F8FEE70868624A904202D1C4
:1014600000F060F8FEE788685F4CC26AA24202D0D2
:1014700000F058F8FEE7806B5C4A904202D000F022
:1014800051F8FEE700205A4A0190FF2614788DF8A3
:10149000014016701578504C8DF800509DF80050A2
:1014A00015F05005257002D100F03CF8FEE79DF8DC
:1014B0000000C04310F0500F09D000F033F8FEE7F1
:1014C000401C01909DF8000040008DF800009DF840
:1014D000000003060198F3D408280FBF00200198EC
:1014E000C0F10700000200F4E060A0609DF8010078
:1014F00010700A6A42F47F020A620022086A40F011
:101500007F400862CA6100F0C5FA0020606000F008
:101510001FFB3848016841F04041016000F008FBC2
:10152000002076BD83F31188BFF34F8FBFF36F8F19
:101530007047502080F31188BFF34F8FBFF36F8F38
:1015400025494A68521C012A4A600AD12A490A6878
:10155000130606D080F31188BFF34F8FBFF36F8F50
:10156000FEE770471C49486838B9502080F311885D
:10157000BFF34F8FBFF36F8FFEE7401E486008BF79
:1015800080F31188704780B5502080F31188BFF335
:101590004F8FBFF36F8FFFF70EF818B116494FF05A
:1015A00080500860002282F3118801BD10B5EFF36E
:1015B000058050211028084A05D3104B185C147878
:1015C000A04200F01FF890680D4A136803F4E0632E
:1015D000984200F017F810BDDC30002000ED00E06C
:1015E00071C20F4170C20F41151B0008BD1A0008DF
:1015F00000E400E034EF00E004ED00E0F0E300E0A0
:101600000CED00E006D281F31188BFF34F8FBFF3DA
:101610006F8FFEE770472E00F8B50446002688B0AD
:101620000D461746002C18BF002D05D000F0B5FD63
:1016300028B93D4800F0F8FD4FF0FF304BE018218D
:1016400002A800F005FE380A40EA07203749ADF845
:101650000A00022204918DF80920012106220220AD
:1016600000F01AFE074617F1010F07D1502181F350
:101670001188BFF34F8FBFF36F8FFEE741F28830C1
:1016800004210190009101AB01220021384601F0B4
:1016900059F8182202A9384601F0C6F920B1384697
:1016A00000F0A4FFC8E78619AE420CD20023AA1BA3
:1016B000A119384601F0A4FA0028F4DC02213846CA
:1016C00001F054FBEBE70121384601F04FFB3846AF
:1016D00000F08CFF304609B0F0BD10B5044601F0B3
:1016E0002DFD2060012010BD10B582EA000443EA00
:1016F00001435C40FEF75BFF0D4A43F2390102FBF8
:101700000010604010BD0B4B036003F158000860EF
:10171000822111607047084B036003F15800086094
:101720004FF482711160704758080108C0A8006F1B
:101730006D4EC641648601202079012010B586B027
:1017400000F064F9DFF81443A068C0B100210591EE
:10175000049103AA04A905A8FFF7DDFF05980499E1
:1017600002900222009201910023039A0FF2F421C9
:101770000FF2E500FEF708FD0028E06005D15021DA
:1017800081F3118800F030F8FEE7012006B010BDAB
:101790007FB50B460021502620B986F3118800F052
:1017A00023F8FEE7DFF8B452AC68B4B1062B00931F
:1017B0000192029004DB86F3118800F015F8FEE731
:1017C000FFF774F9022807BF089A002300230022BC
:1017D000A868694601F087FD0146FFE7084604B0A6
:1017E00070BD502080F31188BFF34F8FBFF36F8F10
:1017F000704770B504460D46164604E0A069216A9C
:10180000451920468847A1692B463246491920468A
:1018100000F0E1F80028F1D170BDF8B504468F481A
:101820000D460168CA68D668301DFFF7CAFD06F18B
:101830002007387A410705D52A4621463046FFF76A
:10184000D8FF02E000F0FE00387230463968BDE88B
:10185000F4400847000000002DE9FF410FF2142872
:101860007E4E3168086810B90124002702E0C8687C
:1018700007680024FEF712FE684600F08FF8054660
:101880000098E8B944B9BD420BD3FEF70DFE2946D6
:101890003846FFF7C2FF15E0706801684C1EA4418E
:1018A000E40FB0682246791B01F0DAFFFEF7FCFD79
:1018B00040B96B494FF080500860FFF795FF01E099
:1018C000FEF7F2FD01A898E80E0080E80E0006E0A1
:1018D00094F82870B80736D42046FFF7BCFCB068EF
:1018E000002201A901F099FD0028BAD00198002832
:1018F000F5D4039C606910B1201DFFF762FD6846B6
:1019000000F04CF807460198401E0828E7D8DFE8A9
:1019100000F021211A070621211A0700DFE7D7E787
:1019200094F8281041F0010184F828100298A06171
:1019300010B9FFF756FFFEE7C1193B463A4620466D
:1019400000F049F8CBE794F8280000F0FE0084F896
:101950002800C4E794F8280040F0010084F828002B
:101960003A460299A0690B464118204600F033F828
:101970000028B4D094F82800410707D50299A0693F
:1019800041183A462046FFF734FF03E000F0FE001E
:1019900084F828002046216A8847A0E770B50446ED
:1019A000FEF705FE2D4E0546306985420AD300201C
:1019B00035612060284670BDD06800684FF0FF3167
:1019C000FFF72BFF326810680028F5D1706830608F
:1019D00072600120ECE738B500248A424160006162
:1019E0001E4D06D38169D21A8A4206D2011D68684B
:1019F00007E09A4203D2994201D3012403E0011D7A
:101A00002868FFF7C5FC204632BD00001CB5FFF773
:101A100090FD124CA068E0B904F11400FFF79BFCA4
:101A200004F12800FFF797FC04F1140004F12801E9
:101A3000002220606160009204F13C0304F18C02FA
:101A40000C210A2001F0C9FBA06010B107A101F030
:101A5000D1FEBDE81340FFF785BD0000108E0120C8
:101A600004ED00E0546D722053766300546D7251A2
:101A70000000000000000000000000000000000066
:101A80004018491C1CBFB1F1010100F8012DF9D12A
:101A9000704743000748084B002101600022826024
:101AA0004FF47A721968B1FBF2F2521E42600721BC
:101AB0000160704710E000E0F4300020EFF309808F
:101AC000BFF36F8F264B1A681EF0100F08BF20ED72
:101AD000108A20E9F04F106009B44FF0500080F3F5
:101AE0001188BFF34F8FBFF36F8FFEF7FAFD4FF0F2
:101AF000000080F3118809BC19680868B0E8F04F4D
:101B00001EF0100F08BFB0EC108A80F30988BFF3F5
:101B10006F8F7047124B19680868B0E8F04F80F378
:101B20000988BFF36F8F4FF0000080F31188704772
:101B30000C480068006880F308884FF0000080F3CC
:101B4000148862B661B6BFF34F8FBFF36F8F00DFAB
:101B5000DFF81400016841F4700101607047000073
:101B60003431002008ED00E088ED00E02DE9F04F71
:101B700089B040F6B83001F043FFDFF860160C681A
:101B800003E0204600F008FA646A002CF9D14FF413
:101B90007A7001F02DFF002001F06AFFDFF8406647
:101BA0000120306101F0A5FE01F07EFE0246706862
:101BB000694601F032FC20B94FF0FF308DF800008B
:101BC000B6E19DF900100D29FAD8DFE811F0AE0159
:101BD0008F00870082003700280020001600B10126
:101BE0003F003B002400B1010E00019C206802F080
:101BF00045F82046FFF72FFB9AE1019C204602F0B2
:101C0000D5FA0028F8D0206840F004005CE00120FC
:101C100001F017FF8CE1019801F0F1F988E10199D9
:101C2000D1F8F020C2F3800000281CBFC2F34000AE
:101C3000002802D0002002F00CFC79E1019802F0AB
:101C4000B5FC75E1019800F0E4FC71E1019C1820FD
:101C50008DF80C00217A11F0010112D0012922D156
:101C60000A208DF80D0005A904F1280090E8AC00C9
:101C700081E8AC00002100220023002580E82E002E
:101C800011E002218DF80D10A16A080200F47F0016
:101C90000A0A40EA016002F47F42104340EA116000
:101CA00005900020A0620023218F080A40EA01204D
:101CB000ADF80E0000212187182203A9204600F06C
:101CC000FFFB206840F010002060204600F08FFEEF
:101CD0002EE102F0EAFE03F064F829E10199C86AF6
:101CE0000028FAD0C3680122984721E1019C002C0A
:101CF000FBD0E06A00281CBF206B002800F0118197
:101D0000A06A0E2815D3606A00F0D4F901280546B0
:101D100040F0F380616A8889082808D0B0F5C16F67
:101D200000F0E4804DF68652904240F0FA80A06ABE
:101D30002228C0F0F6800F464FF00009BA89082A21
:101D400004D04DF686539A4218D0CDE007F10E0A22
:101D50000E389AF80010890001F03C0B584528BF56
:101D6000BBF1140FF1D397F817805A462146384635
:101D700003F0CFFA05469AF800000FE03628E4D3C6
:101D800001F10E09282299F806802146484603F001
:101D900013FC054699F800004FF0280B616A012DED
:101DA00001F8060C4CD1B889082812D04DF686519E
:101DB000884215D10021404603F07AFC002811DD4D
:101DC0000121204603F096FC050027D099F80680F3
:101DD00008E0BBF1140F05D9204603F027FB0546A8
:101DE00028001BD0B8F1110F17D0204602F018FDC3
:101DF00001286FD0B88908280AD04DF6865188424C
:101E000001BF226B09F10801B81D02F08BFF04E04D
:101E1000D7F81A10B81D02F047FD042D6DD0B8F1A7
:101E2000010F5DD0B8F1060F06D0B8F1110F09D03F
:101E3000B8F13A0F50D057E0204602F0AFF8012831
:101E40005BD142E0204600250295676A00F0CEF99A
:101E500000F11609B8894DF6865107F1220888422B
:101E600004BF626A02F13608B8F804100A0A42EAAE
:101E7000012108281FFA81FA0AD1204600F0B6F99C
:101E8000398A0A0A42EA012292B2101A504534D322
:101E9000A06A484528BFBAF1080F2ED3AAF108015D
:101EA000A0EB090081423CBF8944C4F82890B8F8EF
:101EB0000000A08602AAD7F81A0060612046B8F890
:101EC000021002F082FB012801D1032515E00298DF
:101ED000012812D1042510E0204603F04FF80BE052
:101EE000204603F057FC07E0002506E0A06A2A28F8
:101EF00017D3204602F090FB0546022D0CD010D3DC
:101F0000042D01D014D30CE0306850B934604FF484
:101F1000FA6001F068FD0BE00121204600F0E1F8D5
:101F200006E0204603F0EDFC02E0019803F052FDCC
:101F3000B068002804D00021B16003F075FE0400F1
:101F40003FF430AEE069C0F3400030B1204603F00A
:101F500041FDE06920F00200E061204603F068FEE8
:101F6000EDE7DFF87C02C068704710B50446D4F88E
:101F7000F000C0F3800018B10121204604F0B2F84F
:101F8000D4F8F00040F00800C4F8F00042F21070FD
:101F9000BDE8104001F02FBD1CB504460021E069EA
:101FA00040084000E0618DF800100194684600F0A0
:101FB0005DF80128E06907D040F00200E0610121EE
:101FC000DFF81C02816013BD20F00200E06113BD48
:101FD0003EB503F029FE002400F034F803F06BFD59
:101FE000DFF8FC51009405F1140305F164020821A7
:101FF000412001F0F2F86860E8B10FF2142101F01D
:10200000F9FB03F0EBFB012817D100F039F905F5D6
:102010001B7005F531710D22029001910092002391
:1020200040F28A220FF2F011DFF8B801FEF7ACF8A7
:1020300000B10124E86020463EBD686801F044FB21
:102040006C60F8E738B9502080F31188BFF34F8FE8
:10205000BFF36F8FFEE77047E0B58DF800000021F9
:1020600000200190684600F001F80EBD70B50546ED
:102070005B4E95F900000C46316911B960B1002042
:1020800070BD062808D1012001F0DBFC706801F06A
:102090000EFB08B1012070BD03F090FC012801D1B6
:1020A00004B10024706822462946BDE87040002330
:1020B00001F019B938B5044601257CB1002103F0BF
:1020C00014FE60B90622214655A004F047F830B14D
:1020D0002078332804BF6078332800D000252846B4
:1020E00032BDF0B5054685B00C460022696A009203
:1020F0000E46286B40B9888908282ED1D6F81E00D4
:10210000072103F011FE2863286B30B3D0F820714B
:10211000B08908280CD1D6F81E00009005F13002D5
:1021200003A9684602F04AFC012808BF03A900D0B1
:10213000B11D0622304604F021F8286B00F1E801B9
:102140000622B01D04F01AF803F038FC012806D16D
:10215000FB68224629463846984705B0F0BD74B161
:1021600002218DF8041002954FF0FF3101A8FFF70E
:102170007DFF0028F1D1284603F0C3FBEDE700F016
:1021800001F8FEE7502080F31188BFF34F8FBFF3B3
:102190006F8F70471248006970470020FFE70028E2
:1021A00008BF00F005B8D0F8F010C1F3C0007047C8
:1021B0000D4A12680146012000E05A6B62B102F13B
:1021C000F00300291CBF1A6B8A4202BF1A68C2F3CF
:1021D000C002002AF1D10020704700009492012033
:1021E000DC5401206D1B000888900120426A908910
:1021F0004DF68651884201D128207047142070473F
:1022000020B1007AC10701D52820704714207047FB
:102210004E657445766E740049502D5461736B00A1
:10222000FFFFFFFFFFFF00000EB41EB5024605A82A
:1022300001900024009401AB0121044878440C3043
:1022400003F0ABFF03B010BC5DF810FB21E700000A
:102250000022FFF767B8000070B506460D46144629
:1022600000F0C5FE58B106F11C010CB1086830B190
:10227000C87FEDB2A84201D0002070BD012070BD22
:1022800010B5DFF8704604F11400FFF764F820463B
:10229000BDE81040FFF75FB82DE9F0410746502533
:1022A0000C4616460A2F18BF022F06D15AB9012C28
:1022B00008D0022C07D1112605E085F3118800F023
:1022C00091F8FEE70626FFF765FF002825D0022FCC
:1022D00018BF0A2F00F07AF8DFF81806C16911F16B
:1022E000010F00F073F8806810F1010F00F06EF834
:1022F000112E05D1022C00F069F84FF0640807E0B8
:10230000062E00F063F8012C00F060F84FF4E4783A
:102310004046FEF7EFFE040002D14FF0FF344CE0E0
:1023200001F0D5FB050003D12046FEF794FFF4E74A
:1023300041462046FEF79CFE022F656005D00A2F1D
:1023400007D1A06840F0010002E0A068400840000A
:10235000A060112E04F13A0504D104F15000FEF7FB
:10236000FAFF1EE0062E1CD140F2B451A986207A55
:10237000C20744BF4FF4B460A88604F1880742F254
:102380001070386003F0C5FB786040F2B4513868D3
:1023900000F016F8B86740F2B451786800F010F811
:1023A000F86704F10C00FEF7E3FF41F28830206289
:1023B0006062A461022028706E702046BDE8F08142
:1023C0004008B0FBF1F1012003F093BB06D085F388
:1023D0001188BFF34F8FBFF36F8FFEE77047502018
:1023E00080F31188BFF34F8FBFF36F8F7047F0B545
:1023F0000C46002589B00646002C1EBF60780A28CE
:10240000022807D0182203A803F0B8FE02238DF893
:102410000D3003AC03F0D2FA10B1FFF7E0FFFEE796
:10242000304600F0E4FD00286FF015073FD0F0695A
:1024300000283CD109218DF804100296F4B161788E
:1024400002290DD00A2913D104F1080090E80C509C
:1024500006F1280181E80C50B06840F0010006E068
:10246000A06800F07DFBB068B16240084000B06039
:102470006088010A41EA0021318707E030870021A6
:1024800006F128000022002380E81E0000F013F867
:1024900010B96FF08B050BE04FF0FF300090002378
:1024A00070680122102101F021FBF06900B93D465E
:1024B000284609B0F0BD4FF0FF3101A8FFF7D6BDA7
:1024C0002DE9FE4F07460C461E4600F090FD012800
:1024D0004FF0500804D088F31188FFF783FFFEE720
:1024E00097F83B10DFF80C5406290EBF019505F153
:1024F0001402019224B988F31188FFF773FFFEE7F5
:10250000608880BB4FF47C480629C14600904FF09C
:10251000000A08D0143506E0A9F101094FF0000ABD
:102520001FFA89F0D0B16846FFF7D7F8B0B1BDF80F
:1025300000B040469BFBF0F008FB10BB0BF5806041
:102540001FFA80FB4FEA1B2A4AEA0B2189B2284670
:1025500000F0A9F90028DFD14AEA0B2AA4F802A06A
:10256000608800283DD000251EB197F83B00062862
:1025700007D06188019800F096F910B16FF06F05EF
:1025800031E06088F860020A42EA00223A87607807
:102590000A2808D104F1080090E84C1007F128013E
:1025A00081E84C1005E0A06818B1072103F07AFB20
:1025B000B864B86C20B1006800F0D2FAB9620AE0E1
:1025C00060780A2807D007F12800002100220023A4
:1025D000002480E81E00019807F10C01FEF7CBFEF5
:1025E00001E06FF07C052846BDE8FE8FE0B50A22C9
:1025F0008DF80020019000F0FAFC48B14FF0FF3157
:102600006846FFF733FD10B94FF0FF300EBD0120D3
:102610000EBDF8B5044694F83B00062841D104F1FC
:102620009005A86808B103F06CF904F5847004F013
:10263000C5FD286808B1FEF70EFE686808B1FEF710
:102640000AFEAC4E94F87500258FF768012815D165
:1026500006F108018F4224D0F86890F875107F6861
:102660000129F5D0018FA942F2D190F8642012F02F
:10267000060FEDD0FFF7CDFFEAE77F6806F108000F
:1026800087420ED0F86890F87510012902BF00F15A
:1026900038010888A842F0D1088F0028EDD0401EEC
:1026A0000887E06918B104F10C00FEF78AFE94F87F
:1026B0003B0011280DD107E0C868C5682846FEF721
:1026C00080FE284603F01DF904F150010868002837
:1026D000F2D1606808B101F0D1FA2046FEF7BBFDE7
:1026E0000020F2BD10B590F83B30062B15D104291F
:1026F00000F1880409D1E16879B9B0F86E1010686A
:1027000003F007FA6060002010BD052902D01068B0
:102710002060F8E7A0680028F9D06FF0150010BD20
:102720000968012A0AD190F83B20112A04D141F20C
:102730008832914288BF11464162704701627047FA
:10274000000000002DE9F843804691461D4600F048
:102750004EFC01286FF0150428D14946122908F1D2
:102760003A0008F5807708F1640600F29780DFE808
:1027700001F00A0C129529299595959595505C2F95
:10278000697F95951B00002200E001222946404602
:10279000FFF7C6FF80E00178002D0CBF01F0FD01BE
:1027A00041F00201017077E04078062878D168682E
:1027B0002968814274D2726A824271D3F161686879
:1027C000306269E02A464046FFF78CFF044667E026
:1027D0004078062864D12A4604214046FFF782FF4C
:1027E00004005DD105F1080205214046FFF77AFF9C
:1027F000040055D1E868386069687960387AC107A3
:102800004ED5708939684143F9607A685043386120
:1028100046E04078062843D128683168002814BF74
:1028200041F0080121F008010AE04078062837D17C
:1028300028683168002814BF41F0100121F0100110
:10284000316029E0407806282AD12868B968002834
:1028500014BF41F0020121F00201B960707C04282C
:102860001ADD404600F09DFBB0B10120308111E03F
:102870004078062814D128683168002814BF41F434
:10288000802121F48021316001213068318140F4C0
:102890008070306000F031FA002401E06FF06C04C9
:1028A0002046BDE8F28370B504460D46FFF772FC82
:1028B0000026002818BF002C0AD0E06804F10801A7
:1028C00000E04068884203D00268AA42F9D1064677
:1028D000304670BD10B50146DFF8A405FFF7E3FFF1
:1028E000002420B1C46814B9FFF779FDFEE7204643
:1028F00010BD000000920120E1B581B0002200234C
:102900000A2701A80225C05C00E06D1E0A2690FB84
:10291000F6F607FB16000DF80500012DF0B2F4D114
:102920008DF80000002520B99DF80100012500B9AF
:1029300002251DF8050030308854521C6D1C022DF4
:10294000F7D9022B99BF2E20885400258D54521C94
:102950005B1C032BD5D90846E6BD10B50C461146C5
:1029600002281A4602D00A2805D009E02046BDE810
:10297000104004F086BF2046BDE8104004F0F9BFC7
:10298000002010BD80B500220092694604F02CFFA3
:1029900000B90090009802BDF0B5027A12F0010271
:1029A00002D0012A12D020E002234B7018220A70B4
:1029B000826A130203F47F03140A43EA026304F4F5
:1029C0007F44234343EA12638B6009E000F128024D
:1029D0000A234B7001F1080392E8F00083E8F0004D
:1029E000008F020A42EA00224A801820F0BD10B58A
:1029F0000446E06B00281EBF2168C1F303210029B3
:102A000005D0626C0A436264006801F0FEF8217828
:102A100001F07F012160606800281CBF002901F0DF
:102A2000F4F80020206010BD2DE9F0410D008AB0BF
:102A300006466FF00A0817D068780A2809D10022E4
:102A400006213046FFF708FC002480B96FF0080427
:102A500060E00228F3D0182204A803F08FFB0220C4
:102A60008DF8110004ADEAE76FF0150452E030462E
:102A700000F0A3FA0028C8BF6FF07E044ADCF069BA
:102A800030B9002200213046FFF7B1FC040041D1EB
:102A900006F16007787D48B1022802D0082805D0E9
:102AA00002E06FF0760435E0444633E0002C31D18B
:102AB000786820F400607860002139756878022811
:102AC00002D00A2809D014E0B16849084900B16071
:102AD000A86800F045F831650BE0B06840F00100EF
:102AE000B06006F1500105F1080090E80C5081E853
:102AF0000C506888010A41EA0021398030460221E1
:102B000001F04AF90120B88100F0F7F8012818BF58
:102B10006FF08B0404BB316A0191080008BF444682
:102B20001AD000F02DF8304600F047FA040013D414
:102B3000002C0ADC00F020F848B900F024F8282125
:102B400000F0D4FF8006EED504E0002404E06FF02E
:102B5000730401E06FF07F0420460AB0BDE8F08105
:102B6000010201F47F01020A41EA006102F47F429E
:102B7000114341EA1061704701A902A8FDF713BF94
:102B800002A8FDF7F4BE01980090002370680122AE
:102B9000704701980090002370472DE9F0410C46E2
:102BA000054600F029F8012610B96FF015061FE060
:102BB00005F164076FF00B083968C1F3C040B0B984
:102BC000787C00281CBF0828092802D16FF07F06F6
:102BD0000EE0C1F3803000B90CB9002608E0386B74
:102BE00030B90021284600F04DF9386B00B946464F
:102BF0003046BDE8F081044601220621FFF72CBBD8
:102C00002DE9F04F0E46154687B007469A462946ED
:102C1000FFF7C3FF00286DDD07F16C04A846A06A2A
:102C200004F013FF05954FF00009B3460696CDF862
:102C300010A0002502E0A06A04F007FFB8F1000F21
:102C40004EDD00282ADD0026C2468045C8BF8246E8
:102C5000786EC0F3001040B1C24506D1FDF71EFCEE
:102C6000786E40F04000012678665346A06A5A46C6
:102C7000002104F017FF82460EB1FDF715FC01207C
:102C8000208002F09BFE08B900F037F8B8EB0A0884
:102C9000D1441CBF0698002822D0D34485B9786A55
:102CA000019002F08BFE40B90198C8B10498C106AA
:102CB00016D4FFF765FF012505E0002001900FE025
:102CC000FFF75AFF60B9FFF764FF786801222221FD
:102CD00000F00CFF05993846FFF75FFF0028AAD5E2
:102CE0005FEA090006D1607A0628ACBF6FF07F006A
:102CF0006FF01B0007B0BDE8F08F0620FFF7ACB9FE
:102D0000F8B50F46FFF777FF002530B104F16406F0
:102D1000707C002818BF082802D06FF05E0523E001
:102D200039464FF6FF7002F0E8FEF0813068C0F3DC
:102D3000C000A8B1F06A08B104F093FE306B08B18E
:102D400004F08FFE5A2104F19E00FEF791F9C02194
:102D500004F58470FFF77CFA356045F008003060B8
:102D60000121204601F018F82846F2BD10B5FFF702
:102D700042FF10B96FF05E0010BD04F16400417CA9
:102D8000052902D06FF07F0010BD016841F02001DD
:102D9000012201600281FFF7B0FF002010BD2DE984
:102DA000F8438046FDF703FCDFF86473BD6AFC68F6
:102DB000B862451B4FF47A7909D1012507E04FF03D
:102DC0000009B6F86C0010B1484598BF814607F17C
:102DD00008018C421DD0E668B6F86C0064680028D3
:102DE000F5D0854203D2401BA6F86C0007E0002016
:102DF000A6F86C00304600F08BFF0028E7D430685E
:102E00000028DED0B8F1000FD9D03046FFF7EFFD33
:102E1000D7E74846BDE8F2830CB42DE9F041DFF86E
:102E2000F0720B9DFE6800200C46804601E0904643
:102E3000766807F108018E421BD0F268118FA3B2A9
:102E40009942F5D102F160014B7D012BEFD0098849
:102E5000ABB29942ECD10A9921B106A9104604F00F
:102E60001DFD04E0116D069B994208BF1046002825
:102E7000DED000B94046BDE8F0015DF80CFB000073
:102E8000149201202DE9F04180460C0008F16407FE
:102E90001FD07A6A788914235021B2FBF0F040B138
:102EA000052806D20FF2742101EBC00050F8083D4E
:102EB0004168F869164620B953436425B3FBF5F31E
:102EC000FB61386A30B951436422B1FBF2F13962D7
:102ED00000E0BE6A361DB608B60006F11400FEF723
:102EE00009F9050008D1386840F40020386008214D
:102EF000404600F051FF07E01421FEF7B9F82E61BB
:102F0000002C14BFFD623D632846BDE8F0812DE929
:102F1000F041054605F16C060C46706A1746984666
:102F200038B901212846FFF7ADFF10B94FF0FF3740
:102F300023E043463A46214604F0B4FD0746E4B98F
:102F4000686EC0F3C01068B9706A04F081FD7169E1
:102F5000814207D3686E40F4C070686601213180F9
:102F6000FFF7CBFE286840F00100286095F840107C
:102F7000CA0748BF40F4807028603846BDE8F08139
:102F800090F83B10062900D008E000F18C01886819
:102F9000002818BF04F059BD086870476FF015008D
:102FA000704790F83B10062900D0F7E7D0F894005E
:102FB000002818BF04F04FBD70470146002091F86B
:102FC0003B20062A00D0E9E791F87510491F032934
:102FD00038BF0120704790F83B10062900D0DDE78C
:102FE000D0F89000002818BF04F035BD70470146A6
:102FF000002011F1010F1CBF0029012070472DE9AD
:10300000F84F4FF000090546CDF80090DFF804B105
:1030100003E00028FAD0DFF800B1DBF8048034E0E8
:103020003079C1072CD5706950B3012728E02CB145
:103030005046FFF7D0FF002800DD012771684807E0
:1030400006D59AF87500082814BF002847F0040731
:10305000880715D524B15046FFF792FF00280DDCF4
:10306000B16AC1F3C02058B19AF87500042807DD91
:10307000C1F3003020B941F48051B16247F002073A
:10308000B76047EA0909D8F80480D84527D0D8F8AE
:103090000CA00AF13C063068A842F4D19AF83B0033
:1030A00000270628BCD1B06A002410F0060F08BF24
:1030B00001243179CA07C1D59AF87510012909D1BF
:1030C000DAF8780000281EBF406EC0F340000028E8
:1030D000B4D0B2E700F00A000A28A8D1ADE7009802
:1030E000401C0128009094DD0021286800F075FD47
:1030F00020EA090111F00F011CBF286800F06DFDE6
:10310000286849F01001BDE8F44F00F07EBD0000D2
:10311000009201201C920120089201200000000072
:103120006400000032000000640000002200000083
:1031300064000000190000006400000001484068BD
:10314000704700BFE830002070B50D46044650219E
:1031500024B981F3118800F090F8FEE7E06B0028B5
:1031600036D04FF0FF32236CB2FBF0F098422FD3F1
:10317000FEF7DFF9206CE16B226800FB01F3491ECA
:10318000484310441344A3600026A663E0606260D5
:1031900004F144004FF0FF310170417065B92069BE
:1031A00090B100F076FA78B1DFF8AC164FF08050AD
:1031B000086000F062F807E004F11000FEF7CBF8B9
:1031C00004F12400FEF7C7F8FEF7CCF9012070BD2A
:1031D00081F3118800F051F8FEE77CB51C465023BE
:1031E00024B983F3118800F048F8FEE708B12AB14A
:1031F00031B983F3118800F040F8FEE70029F8D1D7
:1032000050250095009E502E04D083F3118800F0C5
:1032100034F8FEE7069B009D012684F84660009482
:10322000DBB200F02FF8204676BDF8B504000E465C
:1032300017461CD04FF0FF30B0FBF4F0B04216D36D
:1032400006FB04F010F1500F11D25030FDF752FF81
:1032500005000AD0002085F8460000953B4605F1A0
:1032600050023146204600F00DF82846F2BD00F02D
:1032700001F8FEE7502080F31188BFF34F8FBFF3B2
:103280006F8F704738B5049D1C4600290CBF2D6018
:103290002A60E863296428460121FFF755FF85F875
:1032A0004C4031BD38B50C46134650B1A04208D34E
:1032B0000225009500220021FFF78FFF00B18463F3
:1032C00032BDFFF7D7FFFEE710B50C4640B1A04274
:1032D00006D302220021FFF7A8FF00B1846310BDCE
:1032E000FFF7C8FFFEE72DE9F64782B004461E4609
:1032F00000F0D3F95FEA010A01D1206C70B9022E07
:1033000002D1E06B01280ED1FDF7D0FB80B9039804
:1033100070B187F31188FFF7B0FFFEE787F31188DC
:10332000FFF7ABFFFEE787F31188FFF7A6FFFEE785
:1033300027460024DFF820854FF080592EE00398BF
:1033400000284BD014B900F083F90124FEF70AF9E4
:10335000FDF7A4F8FEF7EDF807F1440000F07DF961
:1033600004BF0022027000F081F904BF0022427005
:10337000FEF7F8F800F076F9002844D1FEF7D9F806
:10338000B86BF96B884214BF00250125FEF7EAF8F7
:1033900045BB384600F0F1F9FDF786F8FEF7C9F8AD
:1033A000B86BF96B884201D3022EC8D13246514620
:1033B000384600F09AF9796A29B107F12400FDF73F
:1033C0001CFA08B904E018B1C8F80090FFF755FFDF
:1033D000FEF7C8F8012004B0BDE8F087FEF7C2F898
:1033E0000020F8E7039907F11000FDF7A2F938462D
:1033F00000F0C3F9FDF758F80028CFD1C8F80090C5
:10340000FFF73BFFCAE7384600F0B7F9FDF74CF885
:10341000E6E704F12400FDF7F0B92DE9F74306468D
:103420000F460024502526B985F31188FFF725FFA4
:10343000FEE70FB9306C48B9FDF738FB80B9029848
:1034400070B185F31188FFF718FFFEE785F3118847
:10345000FFF713FFFEE7304600F08FF9FDF724F881
:10346000FEF767F8B56BDFF8F083002D4FF0805959
:1034700037D1029800284AD014B900F0E9F80124A5
:10348000FEF770F8FDF70AF8FEF753F806F144006E
:10349000415711F1010F04BF0022027000F0E6F85D
:1034A00004BF00224270FEF75DF802A96846FDF7EE
:1034B0007AFA002830462ED100F091F90028CAD0BF
:1034C000029906F12400FDF734F9304600F055F971
:1034D000FCF7EAFF0028C3D1C8F80090FFF7CDFE43
:1034E000BEE73946304600F034F96D1EB5633069E9
:1034F00040B106F11000FDF780F918B1C8F800904E
:10350000FFF7BBFEFEF72EF80120BDE8FE83FEF7B5
:1035100029F80020F9E700F030F9FCF7C5FF304644
:1035200000F05DF900289BD0F3E72DE9F34100247A
:1035300082B00546A046502725B987F31188FFF7CA
:103540009CFEFEE7286C20B187F31188FFF795FEFB
:10355000FEE7FDF7ABFA50B9039840B187F3118845
:10356000FFF78BFEFEE700F092F8FCF79DFFFDF7FA
:10357000E0FF00F080F837D10398002862D014B93A
:1035800000F066F80124FDF7EDFFFCF787FFFDF77B
:10359000D0FF00F060F804BF0022027000F066F86F
:1035A00004BF00224270FDF7DDFF00F05BF8002849
:1035B00028462ED100F013F90028D4D0286838B955
:1035C000FDF7B7FFA868FDF77DFA8046FDF7CAFF53
:1035D00000F058F800F05BF8FCF766FF0028C6D151
:1035E0003E60FFF74AFEC2E7401EA863286810B994
:1035F000FDF75CFBA860286938B105F11000FDF704
:10360000FCF810B13E60FFF738FEFDF7ABFF01207C
:103610001BE000F0B2F8FCF747FF284600F0DFF8A7
:103620000028A4D0B8F1000F0ED0FDF782FF686A21
:1036300000281DBF286B0168C1F10F010021A86897
:10364000FDF7D7FAFDF78EFF002004B0BDE8F0814A
:103650006846FDF7A1B905F1440090F9001011F199
:10366000010F704703A96846FDF79DB990F9011055
:1036700011F1010F7047A86BDFF8DC7100284FF0E3
:1036800080567047039905F12400FDF752B828468B
:1036900073E004F11000FDF7B0B8502734B987F398
:1036A0001188BFF34F8FBFF36F8FFEE7704710B5E0
:1036B000040002D1FFF7DEFDFEE7FDF73AFFA46B41
:1036C000FDF750FF204610BD10B5040002D1FFF7F2
:1036D000D1FDFEE700F0ABF894F8460020B9204693
:1036E000BDE81040FDF7B7BD10BDF8B5064614465D
:1036F000B56B326C002742B9306830BBB068FDF75B
:1037000025FA00210746B1601FE064B9706802F035
:1037100035FD7068316CB26808449042706014D313
:103720003068706011E0F06802F028FD306CF168DC
:1037300040420144F1603268914202D2B1680844CB
:10374000F060022C01D105B16D1E6D1CB5633846C9
:10375000F2BD026C002A0B4600D1704710B5C1685B
:1037600084681144C160A14224BF0168C160C1687E
:10377000BDE81040184602F001BDF8B50446FDF75B
:10378000D8FE04F1440090F9015005E0FFF741FE36
:1037900008B1FDF738F96D1E68B2012802DB606AD6
:1037A0000028F3D104F144054FF0FF366E70FDF7A9
:1037B000D9FEFDF7BEFE95F9007005E0FFF769FF41
:1037C00008B1FDF720F97F1E78B2012802DB2069DD
:1037D0000028F3D12E70BDE8F140FDF7C3BE10B54F
:1037E0000446FDF7A6FEA06B441EA441FDF7BAFEF9
:1037F000E00F10BD70B5002210B9FFF73BFDFEE7EA
:10380000A1B10024154D05EBC4067368984209D098
:10381000002A02BF55F83430002B3246641C082CB5
:10382000F1D300E032460AB11160506070BD10B5AE
:1038300010B9FFF71FFDFEE70021084A02EBC103A4
:103840005C68844203D0491C0829F7D310BD0020CE
:1038500042F83100586010BD04ED00E0C091012035
:10386000F8B504460D461646FDF763FE04F1380729
:1038700097F90C0010F1010F04BF0021397397F97B
:103880000D0010F1010F04BF00217973FDF76AFEEE
:10389000386828B93246294604F12400FCF789FF2C
:1038A0002046BDE8F24068E710B57D4A137842F241
:1038B0001071DC07084603D5D2688A4238BF10462B
:1038C000784909680AE001F1F8021378DC0704D5A9
:1038D000D1F80411814298BF0846D16A0029F2D17B
:1038E0006F490A7DD30703D50A6A824298BF104602
:1038F00010BD70B56A4C204600F085F810B1032069
:10390000FEF7AAFB04F12C0000F07DF800281EBF92
:10391000654D2C68002C07D0002000F0A9F8204647
:1039200001F0EFFF002028605E490C6810E004F110
:10393000F80000F068F804F1F00540B1287800F0D4
:103940000600062803D12146002000F082FD6C6BA2
:10395000002CECD15548524D0068FFF7A8FE441EDC
:1039600005F11400A44100F04EF8E40F002C08BF4C
:10397000002807D02046FFF712FA014605F114008F
:1039800000F01DF8002000F0A9F9002000F0B2F9C5
:10399000A86A98B905F1400000F035F870B14448C4
:1039A0000468012607E0207FC10703D42046FEF704
:1039B000F3FA0026646A002CF5D1AE6270BD38B50A
:1039C00005460C46281DFCF7D2FFEC60002C286849
:1039D0000CBF40F0020020F002002860286840F090
:1039E0000100286031BD01463248E8E70161E6E7A1
:1039F00001463148FAE701462948F7E7F830F5E78C
:103A000001462E48F2E710B504462068C10701D4EC
:103A1000002010BDC0F3400048B904F10C01201D86
:103A2000FCF7C1FF18B1206840F002002060206858
:103A3000C0F3400020B121692046FFF7C0FF0120FC
:103A400010BD17494A6942F001024A61002814BFBB
:103A500042F0020222F002024A61704710490A68ED
:103A6000002812BF42F00102520852000A6070475B
:103A70000B49CA6A002812BF42F0010252085200E4
:103A8000CA627047D0F8F820002912BF42F0010244
:103A900052085200C0F8F820704701498862704708
:103AA0008C90012088900120DC540120E0540120FA
:103AB00094920120B8900120A0900120CC90012088
:103AC00080F31188BFF34F8FBFF36F8F704710B52E
:103AD0002020FDF70FFB040006D000202060201DF1
:103AE000FDF739FC00202077204610BD2DE9F84F66
:103AF0000646914698464FF0000A502426B984F3B2
:103B00001188FFF7DFFFFEE78B461BF07F4F04D0E5
:103B100084F31188FFF7D6FFFEE7BBF1000F04D155
:103B200084F31188FFF7CEFFFEE70A9DFCF7BEFF86
:103B300000B945B9FCF7B2FC00F04AF86FEA0B0493
:103B400030B96DB91DE084F31188FFF7BBFFFEE7C4
:103B50000025B9F1000F14D030682040306010E02B
:103B6000B9F1000F18BF4FF0807AB8F1000F18BFFD
:103B70004AF0806A2A464AEA0B01301DFCF7EBFD49
:103B80000027FCF791FCCDB118B900F01AF8FFF747
:103B900099FFFDF780F80746B8010DD4FDF7C9FC81
:103BA00000F016F8002818BFB9F1000F02D03068F5
:103BB00004403460FDF7D6FC27F07F473846BDE867
:103BC000F28F02494FF080500860704704ED00E02A
:103BD000376842465946384676E070B504460D4689
:103BE000502014B9FFF76CFFFEE715F07F4F02D0AD
:103BF000FFF766FFFEE7FDF79CFC266826EA050551
:103C00002560FDF7AFFC304670BDF8B504460E46A2
:103C10000025502014B9FFF753FFFEE716F07F4F41
:103C200002D0FFF74DFFFEE7FCF738FC2168226960
:103C30000E43266016E0984213D1F80148BF1D4399
:103C400041F000711046FCF73BFE0AE01768566829
:103C500027F07F435FEA471C01EA0300EBD400280A
:103C6000EBD1324604F10C0021688242EED121EA08
:103C700005052560FCF718FC2068F2BD38B5044640
:103C8000502524B985F31188FFF71CFFFEE7FCF7E8
:103C900005FC03E04FF00071FCF712FE606848B1CC
:103CA000206904F10C018842F4D185F31188FFF7F3
:103CB00009FFFEE7FCF7F8FB207F20B92046BDE8AE
:103CC0003240FDF7C8BA31BD034600200B400AB9A7
:103CD0001BB101E08B4200D10120704738B5DFF8FD
:103CE0000C550446286800281CBFA042FEF791FC32
:103CF0002C6031BD38B5DFF8F85404462868002838
:103D00001EBFA042B0F87210FEF7FAFF2C6031BD62
:103D1000F8B5054605F164070026787C00240528DF
:103D200004DB386B10B1284604F080F9786BE0B101
:103D30003868C0F3401098B9787C48B12846FEF73F
:103D40005FFA00F11402796B0023284603F099FF13
:103D5000284600F0E0F8022828BF0124786B18B14B
:103D6000786B01F0CEFD7E6374B9787C052801DAAA
:103D7000022802D1284603F019FF284600F0CBF8AC
:103D8000284604F019FA06463046F2BD10B504463E
:103D9000FCF70DFCE06710BD2DE9F843054605F181
:103DA0006C070E46787A8046B8F1050F2C4603DB87
:103DB000082818BF012100D10021052E03DB082EA1
:103DC00018BF012000D10020B8F1020F1CBFB8F1CC
:103DD000030FB8F1040F02D1082E08BF0121814260
:103DE0004FF050093FD0696E01F00C02042A04BF65
:103DF000FC68002C02D100F087F8FEE720B3C1F385
:103E00008000A8B164B1A06F00B9A567206894F8DC
:103E1000401040F00400CA0748BF40F480702060A2
:103E20000020F8600120696E60F34201696615E0C8
:103E3000286840F00800286095F840108A070DD5E2
:103E400040F40070286009E0206894F8401040F0C9
:103E500020004A0748BF40F480602060787A04F070
:103E6000A1F900B938807E72310018BF082E31D117
:103E7000AC4202D1F86800B10446FCF70FFB686E53
:103E800010F0060F24D0C0F3C00008BBDFF86403B5
:103E9000C16800F1080291420DD0CA684968AA427F
:103EA000F7D0138FB5F838C0634504BF936FAB42AA
:103EB000EFD100209067686E20F00600686601F080
:103EC0007DFD10B900F020F8FEE72846FFF706FF59
:103ED000FCF7EAFA082E0CD1686EC0F3C00040B1BE
:103EE000A8F10300012804D8002078722846FFF7C3
:103EF00001FF2846FFF74AFF24B12046BDE8F24300
:103F0000FEF775BDBDE8F18389F31188BFF34F8FCC
:103F1000BFF36F8F7047F8B544F6206500F1640475
:103F200000954FF47A76617C02291BD12068C0F39A
:103F3000C02070B1207C032807D208B900900BE0A4
:103F400040F6B831401E814001E042F6F821009170
:103F500002E04FF4FA7200923246009FA6FB07017E
:103F6000002314E02189B9B9D0F8FC106A4600F5A5
:103F7000847003F0D8FA009921B900281ABF0121F2
:103F800000910095009AA6FB02010023324604F03E
:103F9000CFFB00B9012020812089F2BD2DE9F0413D
:103FA0008AB00126502220B982F31188FFF7AEFFB4
:103FB000FEE7416A21B982F31188FFF7A7FFFEE708
:103FC0000490FEF713F9049B996A0E3000F1140275
:103FD000914256D3596A0C186088657B020A42EAFE
:103FE00000282088070A47EA002788894DF686526C
:103FF000904206D109961022163105A802F0BEF8AB
:1040000015E000200990D1F81A20D1F81A0000021A
:1040100000F47F0040EA0260D1F81A20D1F81A308B
:10402000120A02F47F42104340EA13600590BFB2C7
:10403000039705A982B06846142202F09FF80CBCD1
:104040001FFA88F10020FEF7E7FE5FEA000805D0BE
:1040500008F17407787804F0A5F820B905F01F007E
:10406000102857D008E0002038707878012811D146
:1040700005F01F00022805D068074BD4049804F00F
:104080008FF847E00499404604F0F2FA5FEA00082E
:1040900053D13FE0690737D5022808F5867610D15D
:1040A000A168A06800F07CF8A168A268090A01F480
:1040B0007F41084340EA1260B16A401E884229D11C
:1040C0000EE061686068656800F06AF82D0A616852
:1040D00005F47F45054345EA1165F1688D4204D139
:1040E00000214046FFF758FE14E0284602F0C1FFC9
:1040F00080B1F16830684118284602F0B3FF48B13A
:10410000049804F04BF805E005F01F01022903D1E3
:10411000042801DD00263FE04046FEF771F80499CF
:104120004B6A0E3008EB00071918142207F19E00A5
:1041300002F024F8102087F8AB004046FFF726FE77
:10414000207B00F0F000502805D90499404604F087
:1041500072FB060020D0E089010A41EA0021A8078D
:1041600089B204D4C8F8FC1098F8FA008140C8F865
:10417000FC10404604A904F0A3F8002803DD04A9BC
:10418000404603F064FD049818B101F0BAFB00202A
:1041900004904046FFF7BFFE30460AB0BDE8F0810C
:1041A000000200F47F0040EA0160704770B50246EB
:1041B000104C108FE568030A43EA00239BB20020ED
:1041C00000E06D6804F108018D420ED02E689E4219
:1041D00002BFEE6896F83B100629F2D1716EC1F36A
:1041E00040010029EDD09667012070BD9892012012
:1041F0009C92012000920120F8B5044686B00E463C
:10420000256B502125B981F3118800F01DF9FEE7D7
:1042100005F1F0021068C0F3800020B981F3118825
:1042200000F012F9FEE7176B384601F01DFD03E0C0
:104230000146384601F027FD00285AD000F1380128
:104240000A78FE2A02BF4A7802F0C002802AEFD123
:1042500091E88C1002A880E88C10A16A3E2908D24F
:104260003E21204601F078FB0746204601F049FB3D
:104270003C46002C3BD03E20A0620022676A694683
:10428000304600F0EFFC06226946B81D01F076FFCB
:10429000062205F1E801384601F070FF4DF6865020
:1042A000B88160210020F8733882B9734FF4006040
:1042B00078823A21FF2039757875102202A907F11A
:1042C000160001F05BFF1022314607F1260001F0D5
:1042D00055FF07F1360508212846FCF7C9FE852061
:1042E00000212870698020460121FDF7FAFE07B001
:1042F000F0BD02A8002100220023002780E88E00E4
:10430000ABE7F8B5C56A416A01F13606284601F007
:10431000ABFC1DE004F1F0073868C0F3400098B131
:1043200094F81C0103280FD1102206F1080104F1B2
:10433000380001F013FF38B9386A40F002003862E3
:1043400064212046FFF75AFB2146284601F09BFCDA
:104350000400DFD1F1BD2DE9F8430546AF6A696A73
:10436000462F88466BD3B8F83C00002867D000265B
:10437000463F01F14609002408E00C4606E0032B05
:10438000FBD0052B04BF081D01F0D3FB711CB94203
:1043900009D209EB060119F80630487818B106EB86
:1043A000C006B742EBD2E86A274610B900F049F8D8
:1043B000FEE7002C43D001F057FC3EE004F1F0068C
:1043C0003068C0F34000A0B394F81C01012830D13C
:1043D000B878A064102207F1100104F14C0001F03C
:1043E000CDFE102208F1160104F15C0001F0C6FEBA
:1043F000306A40F0010030620021B162B968B868EB
:10440000000200F47F0040EA0160B968BA68090A56
:1044100001F47F41084340EA126070620221306A71
:1044200040F00200306284F81C110020214600F0A8
:1044300010F8E86A214601F026FC0400BED1BDE870
:10444000F183502080F31188BFF34F8FBFF36F8F3C
:104450007047F8B50C0084B002D1FFF7F2FFFEE719
:1044600004F58875F0B10020A86028736846002123
:1044700000220023002680E84E00FF218DF8001066
:1044800002228DF801208DF80F2000213E2001F03E
:10449000E0F918B104636946FFF7AEFE42F2107707
:1044A000012053E0287B012841F288374FF47A76C7
:1044B00027D1A868401C0328A8600FD200202873C9
:1044C000287B0028D2D0022825D004285DD00528DA
:1044D0005DD10021A9602973374659E0582204F1C3
:1044E000900104F1380001F049FE286840084000BE
:1044F000286000212868A96040F00200286002209E
:10450000DDE70328DCD12968C1F3400000B30020B7
:104510000221A86029732968C1F3400050B121F03D
:10452000020129600123A26C04F14C0104F138005E
:1045300000F057FE0021562001F08BF920B10463F2
:1045400004F1380100F091FC3746032028731FE086
:10455000A868032804D2401CA86002202873DAE768
:10456000C8070BD56F68DFF840C0ACFB07013246C7
:10457000002304F0DDF80746042001E006200027B0
:1045800028732046FDF7F1FC9AE70520287327B130
:1045900039462046FFF732FA03E000212046FFF7B4
:1045A00071FA05B0F0BD000040420F0060B1436AEF
:1045B0009989082904D04DF68652914202D070475D
:1045C00004F098BA04F05ABB704738B5034600208F
:1045D000502513B900F018F8FEE75C6A14B900F032
:1045E00013F8FEE7A489082C04D04DF68655AC429A
:1045F00005D032BD1846BDE8384004F0E2BA18468E
:10460000BDE8384004F0C4BB85F31188BFF34F8F79
:10461000BFF36F8F704700002DE9F04186B0466A06
:10462000046BF0890025B0F5807F04BF308A08282C
:1046300045D1B07C062804BFF07C04283FD106F1A8
:104640001C00DFF80C7602680092D6F82680B86E5F
:1046500040B107F1640107F16C00FCF7A4F90128EF
:1046600008BFBD66B07DC10729D40098010201F4DE
:104670007F0141EA0061000A00F47F400143009895
:1046800041EA106101F10141B1F1807F17D3002CA3
:1046900015D0216802468A4212D1B86E00280ED188
:1046A0000122BA66204600F040FAFBF780FF386628
:1046B00007F16C00FCF75BF942F2107078668EE04F
:1046C000D4F8F000C0F3C0000028F8D0B08AB0F5EC
:1046D000807F03D0B0F5007F54D080E0884504F19E
:1046E000E80720D100F082F8002878D0009D22460B
:1046F000294600F078F84FF40070B082062206F1E7
:10470000160106F1200001F039FDC6F826500622F8
:10471000394606F1160001F031FD06F11C00216852
:10472000016002255BE0424501BF60680240014034
:104730008A4254D1062102A8FDF78AFD0622DFF83D
:10474000141506F1200001F009FD38B1062202A976
:1047500006F1200001F002FD002840D100F046F8EB
:1047600000283CD0019501AA04A9684600F026F96A
:10477000012804BF0198A04231D10099224600F0DF
:1047800032F82CE0D6F826008842174604D0384686
:1047900000F032F8012803D12246394600F023F810
:1047A000DFF8B4442068D0B1FDF720FD142801BF24
:1047B00021684A6AD2F81A00874210D10123029177
:1047C0008DF80430002101A8FDF750FC01281CBF22
:1047D000206801F096F800202060FFF749F928468C
:1047E00006B0BDE8F08106F1160078E0062206F179
:1047F0001601384601F0B2BC30B501460020002257
:10480000DFF84C3414011D598D4203D0521C062A86
:10481000F8DB30BD1A190120D17A01B9002030BD72
:104820007FB50446FDF7E2FC0025142802D02828B5
:1048300014D036E0606A00F10E06206BF168426821
:1048400000681140024091422BD1F068FFF7D4FF7D
:1048500038BBF168206B00F068F921E0606A00F174
:104860000E06B079062818BF11281AD106F10800E3
:1048700001F0BEFB012814D16A4601A906F1080027
:1048800000F0F0F968B90021562000F0E2FF38B1DD
:10489000216B016306F10801E26AC26200F0E5FAE9
:1048A0000125284604B070BD2DE9F041040088467A
:1048B00013D00026DFF8987330013B58434506D1EA
:1048C0003D1806222146281D01F048FC18B1761C2F
:1048D000062EF1DB01E09620A872BDE8F0812DE9FB
:1048E000FE4F81460D4693460221284601F01CFAF0
:1048F000002861D04FF0FF3800240295CDF80480E5
:104900004FF0FF0ADFF8487300940025B9F1000F5B
:1049100007EB041606D006224946301D01F01EFCA6
:1049200000B9012530680299884208D00DB1019480
:104930000AE0B07A504507D28246009404E0B9F10B
:10494000000F05D0A5B9A046641C062CDDDB00E0F5
:10495000A0460D460198009C002810D4B8F1000F25
:10496000044610D4102107EB0810FCF781FB0AE085
:104970009621B1720120F072C6F80CB01CE0B8F1BB
:10498000000F58BF444607EB0417B9F1000F3D6014
:104990000BD006224946381D01F0F0FB962001217C
:1049A000B872F972C7F80CB006E0B8F1000F03D581
:1049B00005200021B872F972BDE8F78F2DE9F843A0
:1049C000054688465020B8F1000F144602D100F089
:1049D000E7F8FEE715B900F0E3F8FEE714B900F0D8
:1049E000DFF8FEE70022226000212F68384601F040
:1049F00059F9384600F054FCC0B14146384604F03D
:104A000014FA002001F030F9022603E001460020EC
:104A100001F039F938B1D0F8F010C1F38001002964
:104A2000F4D1206001263046BDE8F283380EFF281D
:104A30000BD106228749404601F0A0FB04213846ED
:104A400001F072F90028EDD0EBE72868042101F0AD
:104A50006BF938B9402001F0A1FA08B1876802E08B
:104A6000206002E02F6820600FB90226DBE70026F5
:104A70000020774901EB0019D9F80030BB4203D080
:104A8000401C0628F6DB0EE099F80B0008B9022658
:104A900009E0062209F10401404601F06FFBD9F854
:104AA0000C00206001262F60BDE770B50025684C22
:104AB00004EB0516B07A68B1411EF07AB17210B1FC
:104AC000B17A042902DA306800F05FF8B07A08B9E8
:104AD000002131606D1C062DEADBFBF768FD054601
:104AE000206E20B1281A44F6216188421CD35B480D
:104AF000006816E000F0DEFA12E000F1F00632681D
:104B0000C2F3C00100291CBF0168002908D0920827
:104B100012F0010202D0012AECD001E000F005F809
:104B2000706B0028E9D1256670BDFEB5054605F11C
:104B3000F0070E463868C0F3800028BB286818B319
:104B400000212A2000F085FE04001DD06661256347
:104B5000386BE062204600F02AF800F02FFF30B1F9
:104B6000386B88B1C368012221469847F7BD0221FE
:104B70008DF8001001944FF0FF316846FDF776FA8A
:104B800010B9204600F0BDFEF7BD10B504460C215B
:104B900001F0CAF818B12146BDE81040C5E710BDC4
:104BA00080F31188BFF34F8FBFF36F8F704738B515
:104BB0000446502114B900F02CF8FEE7A06A2A2818
:104BC00002D200F026F8FEE7206B10B900F021F8C1
:104BD000FEE7656A22492622284601F0CFFA206BBB
:104BE00000F1E8010622A81D01F0C8FA206B00F1CF
:104BF000E801062205F1160001F0C0FA206B0268F8
:104C000005F11C010A602A216069C5F82600A1622D
:104C100031BD81F31188BFF34F8FBFF36F8F7047A2
:104C200070B504000A4D0CD0002605EB0610C268D2
:104C3000A24204BF1021FCF71BFA761C062EF4DBFF
:104C400070BD2846BDE870406021FDF701BB000043
:104C50000000002020220008DC5401208890012060
:104C6000080801082DE9F04106468846144600F080
:104C700029FCE8B14146304601F0F0F9B4B100201A
:104C800000F0F2FF03E02946002000F0FCFF0500E1
:104C90000BD0D5F8F000C0F380000028F3D005F168
:104CA000380001F0A5F90128EDD12560012722E0A7
:104CB00000F034F80746F0B9304601F099F905469E
:104CC000304601F00FF810B1ACB1206013E0012DB7
:104CD00014D100F0C9FF03E02946002000F0D3FF03
:104CE000050008D005F1380001F082F90128F3D160
:104CF00000F014F807463846BDE8F081602001F066
:104D00004DF90500F7D0102205F15C01304601F0A5
:104D100035FA00F003F807462560ECE722464146E5
:104D2000304660E02DE9F14F894615464FF0FF36D9
:104D30004FF0970B4FF000080024DFF864A30AEB54
:104D40004417787F20B916F1010F0CD126460AE0EE
:104D500010224946384601F001FA40B1387F5845E3
:104D60003CBF8346A046641C182CE8DB01E0002C05
:104D700003D5002E54BF344644460AEB4416102295
:104D80004946304601F0FAF90099062206F1100072
:104D900001F0F4F99620B561307701217177BDE813
:104DA000F18F38B50024BE4800EB4415287FB0B120
:104DB000401E2877C0B220B920212846FCF758F9B8
:104DC0000DE0697F09B1042809DA0021562000F0BE
:104DD00040FD20B1A9690163294600F046F8641C32
:104DE000182CE0DB31BD2DE9F84380468946144696
:104DF00000270025AA4800EB4516737F2BB110222F
:104E00004146304601F0AAF918B16D1C182DF1DBAE
:104E10000AE0062206F11001484601F0AFF9012729
:104E200024B1B069206001E004B127603846BDE8D4
:104E3000F283F8B504460D46676A266B102207F127
:104E4000160107F1260001F099F900F0B5F9280ADA
:104E500040EA052078823635A56200203887002197
:104E60002046BDE8F440FDF73CB92DE9F84304467F
:104E700086B0256B0E46002D1EBFD5F8F000C0F39E
:104E80008000002873D0A26A562A08D256212046F4
:104E900000F062FD0746204600F033FD3C46002C42
:104EA00069D0676A5621A16233208DF800008DF821
:104EB00001004FF0FF088DF802800622707B8DF80C
:104EC00003006946B07B8DF8040005F1E809F07B2A
:104ED0008DF80500B81D01F051F906224946384603
:104EE00001F04CF900F06FF987F81580102205F1F8
:104EF000380107F1160001F041F902A800F055F958
:104F000002218DF8091001228DF808808DF81320F8
:104F10008DF814801022717B8DF8151002A9B07BDA
:104F20008DF8160007F13605F07B8DF8170007F1B4
:104F3000260001F023F920212846FCF799F8872064
:104F400028701022314607F13E0001F017F90120C8
:104F5000287668760622494607F1500001F00EF9DE
:104F60000020688001212046FDF7BBF803E014B162
:104F7000204600F0C6FC07B0BDE8F083FEB505464C
:104F80002E6BD6F8F0006C6AC0F3800000280AD0BF
:104F900004F136073878802806D086287AD087280A
:104FA0000FD0882849D078E0608AAA6A010A41EACD
:104FB000002189B201F136039A426ED38120387004
:104FC00037E0E86A04F13E0100F0DBFE00B106467E
:104FD000A86A562861D300F067F801F0BFF80028EE
:104FE0005BD188203870002179704FF0C040C4F840
:104FF0003A00D4F83A10D4F83A0000F0C9F8D4F8DE
:105000003A10D4F83A2000F0C9F8C4F83A00012167
:10501000022038767976062206F1E80104F1500084
:1050200001F0ACF8FF20607500F03EF801F0A6F842
:1050300020212846FFF7FDFE2FE0324604F13E0115
:1050400004F15000FFF76EFE2846FFF75AF9154DA0
:10505000286810B3FDF7CAF828281ED12E68706A98
:1050600000F11601102204F13E0001F077F8A0B91A
:1050700001218DF80010019600216846FCF7F6FF2B
:1050800001281CBF286800F03CFC00202860FEF7C7
:10509000EFFC02E02846FFF75EF90020FEBD0000AD
:1050A00088800120DC540120102206F1380104F12F
:1050B0003E0070472DE9F04706460021562000F0DB
:1050C000C8FB040062D004F1140000F06EF82663FF
:1050D000D6F8205115B900F0CEF8FEE7676A00BF98
:1050E0006DA10622384601F049F806F1E8080622CB
:1050F0004146B81D01F042F800F065F84FF0FF0995
:1051000087F8159000F058F85FF010025EA107F1E3
:10511000260001F033F807F1360A88208AF80000EB
:1051200000218AF801104FF0C040C7F83A00D7F8C4
:105130003A10D7F83A0000F02BF8D7F83A10D7F821
:105140003A2000F02BF8C7F83A00012102208AF833
:1051500018008AF819100622414607F1500001F0A4
:105160000DF887F81590102206F1380107F13E007E
:1051700001F004F85620A0620021AAF8021021468E
:10518000EB682846BDE8F04701221847BDE8F087E4
:10519000000200F47F0040EA01607047090A01F450
:1051A0007F41084340EA126070470021002200233B
:1051B000002580E82E007047102206F1380107F123
:1051C000160000F0DBBF4DF68650B881602100204C
:1051D000B973F87338823A214FF4005078823975E8
:1051E00070472DE9FF41054688461446012663B104
:1051F0000027694601EB8700FCF76FFA18B17F1CA6
:10520000042FF6DB07E000262EE06846002100228E
:105210008C4680E80E105CB3812C29D2072C05D96E
:10522000E21DD2084146284600F0A8FFE00814F02D
:10523000070F694611D004F00704C4F1080406FA08
:1052400004F4295C641EA14329549DF800201440F5
:105250000C432C540DF10101401C102804D2C0F164
:105260001002284400F08AFF304604B0BDE8F08107
:1052700000F001F8FEE7502080F31188BFF34F8F54
:10528000BFF36F8F70470000FF02000000000000B6
:1052900000000000000000013333000000010000A6
:1052A000010201F47F01020A41EA006102F47F4237
:1052B000114341EA106101F10051B1F1805F804179
:1052C000C00F704770B504460025206900F00DF846
:1052D000060018BF0126E06800F007F800B10120C1
:1052E000864218BF0125284670BD01460A0202F415
:1052F0007F020B0A42EA016203F47F431A4342EA47
:105300001162002002F10142B2F1807F38BF01201A
:1053100070472DE9F84305460E46D5F81E70D5F8BE
:105320001A80A88A01244FF63F71084277D1A87BE2
:1053300045380B2873D23846FFF7D7FF012804D031
:105340004046FFF7D2FF012828D105F10E00FFF7F4
:10535000B9FF012863D0B06A716A22285FD301F1D6
:105360000E021378A3F145060B2E58D29B0003F0D2
:105370003C0303F10E06B04251D35688370A47EA80
:105380000627BFB207F10E06B04248D3527A112A5F
:1053900033D0062A2DD103F1220230E00421384611
:1053A00000F080FC4FEA176948B9B9F1FF0F06D049
:1053B0003846FFF775FF10B9FCF7EFFE78BB4FEAF0
:1053C0001860FF282BD0184F06222946384600F0D7
:1053D000C5FE10B9B9F1FF0F21D10622A91D38462B
:1053E00000F0BCFED8B14046FFF75AFF0128B2D109
:1053F00015E0012A18BF022A11D103F116029042CA
:1054000024BFFF1A082F22BF40F2DC50C31ABB4250
:1054100005D3E87D112804BF088D002800D10024A1
:105420002046BDE8F28300002022000870B5044643
:10543000606AA26A00F10E0522302978890001F025
:105440003C01A1F11406921B223A294403F006FD07
:10545000A16A891BA1626888010A8A1B41EA0021AE
:10546000287889B28E1B00F0F000360A40F0050063
:1054700046EA022628706E80012070BD10B5102209
:10548000BCA100F06BFE002400B90124204610BD31
:1054900070B5044604F1080000F024FC002578B142
:1054A00004F11800FFF7EAFF060018BF012604F117
:1054B0000800FFF7E3FF00B10120864218BF012575
:1054C000284670BD38B5044684B020780025FF28F2
:1054D0001ED13CB9502080F31188BFF34F8FBFF32A
:1054E0006F8FFEE7ADF800500E22A11C0DF10200F7
:1054F00000F044FE607810F00F0F09D010F0F00FAC
:1055000005D1102297A1684600F028FE00B10125C0
:10551000284605B030BD0000F8B50F46064638787D
:105520001446FF2801BF78780228387BFF2805D170
:10553000032207F10D0106F10D001AE05FF01002E1
:1055400090A1384600F00AFE60B13878FE2804BF0A
:105550007878802805D13178FE2904BF70788028BA
:1055600000D00CB90020F2BD802C06D110223946A3
:105570003046BDE8F84000F0F1BDE5084FF000000E
:1055800005D02A463946304600F0E8FD90B914F0BF
:10559000070F0FD004F007040121C4F1080401FA39
:1055A00004F4611E725D7B5DC9430A4019408A4262
:1055B00018BF0120F2BD000070B505460C4600BFC3
:1055C00068A61022314605F1180000F0C7FD00283A
:1055D0006CD01022314605F1080000F0BFFD002814
:1055E00064D0206B38B100F13801102205F11800A9
:1055F00000F0B4FD68B12846FFF74AFF002855D1F6
:1056000005F11800FFF75EFF18B9FCF7C6FD00288A
:105610004CD1A16A01200023626A282946D3947BD9
:105620002409062C42D1362940D3548A260A46EA58
:105630000426A1F13605B6B2B54237D1147D250056
:105640000AD0A4F12B05012D84BFED1F012D03D934
:105650000A3D01D04B3D0AD1D41836346578247800
:10566000ED000835EB1803F136058D42E7D303F161
:1056700036058D421AD2112C08BF3E3314D0062CA9
:1056800008BF4A3310D03A2C10D1525D802A1CBF7B
:10569000812A852A06D0862A14BF05F1180305F150
:1056A000100301E005F10803994200D2002070BD0B
:1056B00060B12B2811D02C2811D0322813D03328D8
:1056C0000FD03C2804D087280FD010E0012070476D
:1056D00007202B290DD1022070470320704704209A
:1056E00070470520704706207047082070474FF02C
:1056F000FF3070472DE9FC470446D4F828A0656ABE
:105700004FF0000988468DF80090A16A606A6A46E9
:1057100000F0B0FC064606F1360050451FD2698AFB
:105720000F0A47EA0127BFB2BE4218D2B8F1010FF3
:1057300015D19DF800102975AAEB0002636A1918AB
:1057400003F1360003F08AFBA06A801BBE1B310404
:10575000090EA06241EA062169824FF0010948461C
:10576000BDE8F68700000000000000000000000017
:105770000000000000000000000000000000000029
:1057800000000001FF020000000000000000000017
:1057900000000001014600208A6A2A2A07D2502010
:1057A00080F31188BFF34F8FBFF36F8FFEE7496A15
:1057B00001F122021378082B0ED11070D1F81E00CF
:1057C000D1F81A30C1F81E30C1F81A000023402069
:1057D00088758B825380022070470000F8B5594CC1
:1057E000A06910BB584D05F552623C213C20FDF7E5
:1057F00059FDA06100F01DF854A1FDF7FBFF204604
:10580000FBF7A9FD0026382171436F18002078624C
:10581000761C3846FBF7ACFDFF6039462046FBF7A7
:10582000B7FD3C2EEFD33C206061A06900B10120A0
:10583000F2BD38B9502080F31188BFF34F8FBFF30A
:105840006F8FFEE7704700281CBF0A38FBF703BDC7
:105850007047F8B5044600250020462C34BF462486
:1058600014F1020F01D2A41C00E0012014F0030F78
:105870000AD004F00302C2F104024FF0FF339B1A76
:10588000A3422CBF1419012014F10A0F37D204F1DE
:105890000A06A0BBB6F1004F31D22A4FB86970B3E7
:1058A000FDF743FE01282AD1FBF743FEF868C568DF
:1058B0002846FBF786FDFBF755FE38687A6990426B
:1058C00088BF10467861686A38B1502181F3118829
:1058D000BFF34F8FBFF36F8FFEE784B13046FBF706
:1058E00009FC28B96862284600F00BF8002506E09C
:1058F00040F80A5B00216862AC62E96229632846CD
:10590000F2BD70B505460F4E686AFFF79CFF002197
:105910006962A962FBF70DFE2869B04208BF012445
:1059200004D029463046FBF726FD0024FBF71AFE7B
:105930003CB9B069BDE87040002300220021FDF7AA
:10594000D2BC70BD4C9201206C4701204E65744260
:10595000756653656D00000070B505460E46002162
:105960003046FFF776FF040026D0606A28B9502041
:1059700080F3118800F0B8F8FEE7AA6AB24288BF47
:105980003246A66269696161AB8EA386E98EE186C3
:10599000EB6AE362296B2163696A00F0EFFB204642
:1059A000FCF724FC282807D105F1140090E86C00CE
:1059B00004F1140181E86C00204670BD10B5FBF7BE
:1059C00071F80446FCF7CDFA844201D1012010BDE4
:1059D000002010BD38B50546502125B981F3118846
:1059E00000F082F8FEE7A86820B981F3118800F082
:1059F0007BF8FEE70020FEF731F8284600F034F986
:105A00001DE0D4F8F00020F00800C4F8F000C0F366
:105A1000800018B10021204600F064FB2046FFF70B
:105A2000FFF894F8F00000F00600062803D10021EA
:105A30002046FEF727F82146284600F024F9040006
:105A4000DFD1A9682846884701282ED1E86940F0AF
:105A50000100E861284600F007F919E0582204F136
:105A6000900104F138000AE0800810F0010002D033
:105A70000128F3D005E01C2204F11C01204600F0AF
:105A80007DFB2046FCF771FA2146284600F0FBF822
:105A900004000FD0D4F8F00000F006010629E3D18D
:105AA00021460120FEF7D5FCEEE7BDE8324000209C
:105AB000FDF7F3BF31BD10B5FCF76CFB502410B1FE
:105AC00000F010F8FEE70649086810B100F00AF887
:105AD000FEE7FCF746FA10B100F004F8FEE710BD4F
