:020000040800F2
:10000000F09B0120DD1401082F10010831100108B8
:1000100033100108351001083710010800000000F6
:10002000000000000000000000000000A98000089F
:100030003910010800000000518000087B680008AA
:100040001115010815150108191501081D150108DC
:100050002115010825150108291501082D1501088C
:100060003B1001085510010831150108351501082C
:10007000391501083D15010841150108451501080C
:10008000491501084D1501085115010855150108BC
:10009000591501085D15010861150108651501086C
:1000A000691501086D15010871150108751501081C
:1000B000791501087D1501088115010885150108CC
:1000C000891501088D15010891150108951501087C
:1000D00099150108891001089D150108A11501084D
:1000E000A5150108A9150108AD150108B1150108EC
:1000F000B5150108B9150108BD150108C11501089C
:10010000C5150108C9150108CD150108D11501084B
:10011000D5150108D91501086F100108DD15010872
:10012000E1150108E515010875100108E915010838
:10013000ED15010869F50008F1150108F51501082C
:10014000F9150108FD1501080116010877100108CD
:1001500005160108091601080D16010811160108F7
:1001600015160108191601081D16010821160108A7
:1001700025160108291601082D16010800000000A7
:10018000311601083516010870B506460D461446AD
:1001900000F035FF58B106F11C010CB1086830B110
:1001A000C87FEDB2A84201D0002070BD012070BD13
:1001B00010B5DFF8704604F1140000F0C7FF2046C8
:1001C000BDE8104000F0C2BF2DE9F04107465025C0
:1001D0000C4616460A2F18BF022F06D15AB9012C19
:1001E00008D0022C07D1112605E085F3118800F014
:1001F00091F8FEE7062601F005FB002825D0022F26
:1002000018BF0A2F00F07AF8DFF81806C16911F15B
:10021000010F00F073F8806810F1010F00F06EF824
:10022000112E05D1022C00F069F84FF0640807E0A8
:10023000062E00F063F8012C00F060F84FF4E4782B
:10024000404601F029FB040002D14FF0FF344CE09E
:1002500001F03DFC050003D1204601F0CEFBF4E7A0
:100260004146204601F03AFD022F656005D00A2F75
:1002700007D1A06840F0010002E0A06840084000FB
:10028000A060112E04F13A0504D104F1500000F0F1
:100290005DFF1EE0062E1CD140F2B451A986207AE3
:1002A000C20744BF4FF4B460A88604F1880742F245
:1002B0001070386001F031FE786040F2B451386857
:1002C00000F016F8B86740F2B451786800F010F802
:1002D000F86704F10C0000F046FF41F2883020621C
:1002E0006062A461022028706E702046BDE8F08133
:1002F0004008B0FBF1F1012001F0FFBD06D085F30D
:100300001188BFF34F8FBFF36F8FFEE77047502008
:1003100080F31188BFF34F8FBFF36F8F7047F0B535
:100320000C46002589B00646002C1EBF60780A28BE
:10033000022807D0182203A801F010FE02238DF82E
:100340000D3003AC01F03EFD10B1FFF7E0FFFEE71A
:10035000304600F054FE00286FF015073FD0F069DA
:1003600000283CD109218DF804100296F4B161787F
:1003700002290DD00A2913D104F1080090E80C508D
:1003800006F1280181E80C50B06840F0010006E059
:10039000A06800F07DFBB068B16240084000B0602A
:1003A0006088010A41EA0021318707E03087002197
:1003B00006F128000022002380E81E0000F013F858
:1003C00010B96FF08B050BE04FF0FF300090002369
:1003D00070680122102101F089FBF06900B93D46E7
:1003E000284609B0F0BD4FF0FF3101A801F076B901
:1003F0002DE9FE4F07460C461E4600F000FE012880
:100400004FF0500804D088F31188FFF783FFFEE710
:1004100097F83B10DFF80C5406290EBF019505F143
:100420001402019224B988F31188FFF773FFFEE7E5
:10043000608880BB4FF47C480629C14600904FF08D
:10044000000A08D0143506E0A9F101094FF0000AAE
:100450001FFA89F0D0B1684601F08CFDB0B1BDF84B
:1004600000B040469BFBF0F008FB10BB0BF5806032
:100470001FFA80FB4FEA1B2A4AEA0B2189B2284661
:1004800000F0A9F90028DFD14AEA0B2AA4F802A05B
:10049000608800283DD000251EB197F83B00062853
:1004A00007D06188019800F096F910B16FF06F05E0
:1004B00031E06088F860020A42EA00223A876078F8
:1004C0000A2808D104F1080090E84C1007F128012F
:1004D00081E84C1005E0A06818B1072101F020FE6A
:1004E000B864B86C20B1006800F0D2FAB9620AE0D2
:1004F00060780A2807D007F1280000210022002395
:10050000002480E81E00019807F10C0100F02EFE87
:1005100001E06FF07C052846BDE8FE8FE0B50A22B9
:100520008DF80020019000F06AFD48B14FF0FF31D6
:10053000684601F0D3F810B94FF0FF300EBD01202E
:100540000EBDF8B5044694F83B00062841D104F1ED
:100550009005A86808B102F052F804F5847002F022
:1005600025F9286808B101F048FA686808B101F077
:1005700044FAAC4E94F87500258FF768012815D120
:1005800006F108018F4224D0F86890F875107F6852
:100590000129F5D0018FA942F2D190F8642012F020
:1005A000060FEDD0FFF7CDFFEAE77F6806F1080000
:1005B00087420ED0F86890F87510012902BF00F14B
:1005C00038010888A842F0D1088F0028EDD0401EDD
:1005D0000887E06918B104F10C0000F0EDFD94F813
:1005E0003B0011280DD107E0C868C568284600F017
:1005F000E3FD284602F003F804F1500108680028E2
:10060000F2D1606808B101F039FB204601F0F5F93C
:100610000020F2BD10B590F83B30062B15D104290F
:1006200000F1880409D1E16879B9B0F86E1010685A
:1006300001F073FC6060002010BD052902D0106835
:100640002060F8E7A0680028F9D06FF0150010BD11
:100650000968012A0AD190F83B20112A04D141F2FD
:100660008832914288BF11464162704701627047EB
:10067000000000002DE9F843804691461D4600F039
:10068000BEFC01286FF0150428D14946122908F153
:100690003A0008F5807708F1640600F29780DFE8F9
:1006A00001F00A0C129529299595959595505C2F86
:1006B000697F95951B00002200E0012229464046F3
:1006C000FFF7C6FF80E00178002D0CBF01F0FD01AF
:1006D00041F00201017077E04078062878D168681F
:1006E0002968814274D2726A824271D3F16168686A
:1006F000306269E02A464046FFF78CFF044667E017
:100700004078062864D12A4604214046FFF782FF3C
:1007100004005DD105F1080205214046FFF77AFF8C
:10072000040055D1E868386069687960387AC10793
:100730004ED5708939684143F9607A685043386111
:1007400046E04078062843D128683168002814BF65
:1007500041F0080121F008010AE04078062837D16D
:1007600028683168002814BF41F0100121F0100101
:10077000316029E0407806282AD12868B968002825
:1007800014BF41F0020121F00201B960707C04281D
:100790001ADD404600F00DFCB0B10120308111E0BF
:1007A0004078062814D128683168002814BF41F425
:1007B000802121F48021316001213068318140F4B1
:1007C0008070306000F0A1FA002401E06FF06C044A
:1007D0002046BDE8F28370B504460D4601F012F8DC
:1007E0000026002818BF002C0AD0E06804F1080198
:1007F00000E04068884203D00268AA42F9D1064668
:10080000304670BD10B50146DFF88406FFF7E3FF00
:10081000002420B1C46814B9FFF779FDFEE7204633
:1008200010BD000040970120E1B581B000220023F7
:100830000A2701A80225C05C00E06D1E0A2690FB75
:10084000F6F607FB16000DF80500012DF0B2F4D105
:100850008DF80000002520B99DF80100012500B9A0
:1008600002251DF8050030308854521C6D1C022DE5
:10087000F7D9022B99BF2E20885400258D54521C85
:100880005B1C032BD5D90846E6BD10B50C461146B6
:1008900002281A4602D00A2805D009E02046BDE801
:1008A000104002F0E6BA2046BDE8104002F059BB05
:1008B000002010BD80B500220092694602F08CFA3B
:1008C00000B90090009802BDF0B5027A12F0010262
:1008D00002D0012A12D020E002234B7018220A70A5
:1008E000826A130203F47F03140A43EA026304F4E6
:1008F0007F44234343EA12638B6009E000F128023E
:100900000A234B7001F1080392E8F00083E8F0003D
:10091000008F020A42EA00224A801820F0BD10B57A
:100920000446E06B00281EBF2168C1F303210029A3
:1009300005D0626C0A436264006801F066F92178B0
:1009400001F07F012160606800281CBF002901F0D0
:100950005CF90020206010BD2DE9F0410D008AB047
:1009600006466FF00A0817D068780A2809D10022D5
:1009700006213046FFF708FC002480B96FF0080418
:1009800060E00228F3D0182204A801F0E7FA022060
:100990008DF8110004ADEAE76FF0150452E030461F
:1009A00000F013FB0028C8BF6FF07E044ADCF0693A
:1009B00030B9002200213046FFF7B1FC040041D1DC
:1009C00006F16007787D48B1022802D0082805D0DA
:1009D00002E06FF0760435E0444633E0002C31D17C
:1009E000786820F400607860002139756878022802
:1009F00002D00A2809D014E0B16849084900B16062
:100A0000A86800F045F831650BE0B06840F00100DF
:100A1000B06006F1500105F1080090E80C5081E843
:100A20000C506888010A41EA0021398030460221D1
:100A300002F050FB0120B88100F067F9012818BFCF
:100A40006FF08B0404BB316A0191080008BF444673
:100A50001AD000F02DF8304600F0B7FA040013D495
:100A6000002C0ADC00F020F848B900F024F8282116
:100A700001F03CF88006EED504E0002404E06FF0BD
:100A8000730401E06FF07F0420460AB0BDE8F081F6
:100A9000010201F47F01020A41EA006102F47F428F
:100AA000114341EA1061704701A902A803F0A1B9FE
:100AB00002A803F082B90198009000237068012217
:100AC00070472DE9FF478846924604461E4600F0CF
:100AD0009BF820B1F00705D5B8F1000F02D16FF0F7
:100AE00015005BE004F16C070020796A002519B15C
:100AF000084603F0FAFC40BB8146787AD8B1082852
:100B000018BF092817D045B9216A019108001BD0E8
:100B1000F00619D4FFF7CCFF0125FFF7C5FF98B900
:100B200000F03FF860680122612100F0DFFF786A81
:100B30000028E2D0DDE7616E6FF07F00C1F3C041B5
:100B400019B16FF00B0000E04846002826DD786AF6
:100B5000F2071ED43606B60E06F00106009653467E
:100B60004246002103F03BFD0546606EC0F3C01015
:100B700098B1786A03F0B6FCB96988420DD3616E0A
:100B8000022060F3C81161660120388000F0BDF8D2
:100B900003E0414603F0D0FC0546284604B0BDE81A
:100BA000F08701980090002370472DE9F0410C4632
:100BB000054600F029F8012610B96FF015061FE070
:100BC00005F164076FF00B083968C1F3C040B0B994
:100BD000787C00281CBF0828092802D16FF07F0606
:100BE0000EE0C1F3803000B90CB9002608E0386B84
:100BF00030B90021284600F04DF9386B00B946465F
:100C00003046BDE8F081044601220621FFF7BCBA58
:100C10002DE9F04F0E46154687B007469A462946FD
:100C2000FFF7C3FF00286DDD07F16C04A846A06A3A
:100C300003F055FC05954FF00009B3460696CDF834
:100C400010A0002502E0A06A03F049FCB8F1000FF3
:100C50004EDD00282ADD0026C2468045C8BF8246F8
:100C6000786EC0F3001040B1C24506D102F03CFEE0
:100C7000786E40F04000012678665346A06A5A46D6
:100C8000002103F068FC82460EB102F033FE012021
:100C9000208001F097F808B900F037F8B8EB0A089F
:100CA000D1441CBF0698002822D0D34485B9786A65
:100CB000019001F087F840B90198C8B10498C106C5
:100CC00016D4FFF7F5FE012505E0002001900FE0A6
:100CD000FFF7EAFE60B9FFF764FF7868012222217E
:100CE00000F004FF05993846FFF75FFF0028AAD5FA
:100CF0005FEA090006D1607A0628ACBF6FF07F007A
:100D00006FF01B0007B0BDE8F08F062000F0DCBCE0
:100D1000F8B50F46FFF777FF002530B104F1640600
:100D2000707C002818BF082802D06FF05E0523E011
:100D300039464FF6FF7001F0E4F8F0813068C0F3F7
:100D4000C000A8B1F06A08B103F0D5FB306B08B160
:100D500003F0D1FB5A2104F19E0000F0BFFFC02137
:100D600004F5847003F07AFC356045F008003060CB
:100D70000121204602F0AEF92846F2BD10B5FFF77A
:100D800042FF10B96FF05E0010BD04F16400417CB9
:100D9000052902D06FF07F0010BD016841F02001ED
:100DA000012201600281FFF7B0FF002010BD2DE994
:100DB000F843804602F021FEDFF86473BD6AFC68E8
:100DC000B862451B4FF47A7909D1012507E04FF04D
:100DD0000009B6F86C0010B1484598BF814607F18C
:100DE00008018C421DD0E668B6F86C0064680028E3
:100DF000F5D0854203D2401BA6F86C0007E0002026
:100E0000A6F86C00304602F021F90028E7D43068DB
:100E10000028DED0B8F1000FD9D03046FFF77FFDB3
:100E2000D7E74846BDE8F2830CB42DE9F041DFF87E
:100E3000F0720B9DFE6800200C46804601E0904653
:100E4000766807F108018E421BD0F268118FA3B2B9
:100E50009942F5D102F160014B7D012BEFD0098859
:100E6000ABB29942ECD10A9921B106A9104602F021
:100E70000DF804E0116D069B994208BF104600284A
:100E8000DED000B94046BDE8F0015DF80CFB000083
:100E9000549701202DE9F04180460C0008F16407C9
:100EA0001FD07A6A788914235021B2FBF0F040B148
:100EB000052806D20FF2742101EBC00050F8083D5E
:100EC0004168F869164620B953436425B3FBF5F32E
:100ED000FB61386A30B951436422B1FBF2F13962E7
:100EE00000E0BE6A361DB608B60006F1140000F038
:100EF000D3FC050008D1386840F400203860082190
:100F0000404602F0E7F807E0142100F0E7FE2E610A
:100F1000002C14BFFD623D632846BDE8F0812DE939
:100F2000F041054605F16C060C46706A1746984676
:100F300038B901212846FFF7ADFF10B94FF0FF3750
:100F400023E043463A46214603F005FB0746E4B951
:100F5000686EC0F3C01068B9706A03F0C3FA7169B3
:100F6000814207D3686E40F4C07068660121318009
:100F7000FFF7CBFE286840F00100286095F840108C
:100F8000CA0748BF40F4807028603846BDE8F08149
:100F900090F83B10062900D008E000F18C01886829
:100FA000002818BF03F09BBA086870476FF015005F
:100FB000704790F83B10062900D0F7E7D0F894006E
:100FC000002818BF03F091BA70470146002091F83D
:100FD0003B20062A00D0E9E791F87510491F032944
:100FE00038BF0120704790F83B10062900D0DDE79C
:100FF000D0F89000002818BF03F077BA7047014678
:10100000002011F1010F1CBF0029012070472DE9BC
:10101000F84F4FF000090546CDF80090DFF804B115
:1010200003E00028FAD0DFF800B1DBF8048034E0F8
:101030003079C1072CD5706950B3012728E02CB155
:101040005046FFF7D0FF002800DD012771684807F0
:1010500006D59AF87500082814BF002847F0040741
:10106000880715D524B15046FFF792FF00280DDC04
:10107000B16AC1F3C02058B19AF87500042807DDA1
:10108000C1F3003020B941F48051B16247F002074A
:10109000B76047EA0909D8F80480D84527D0D8F8BE
:1010A0000CA00AF13C063068A842F4D19AF83B0043
:1010B00000270628BCD1B06A002410F0060F08BF34
:1010C00001243179CA07C1D59AF87510012909D1CF
:1010D000DAF8780000281EBF406EC0F340000028F8
:1010E000B4D0B2E700F00A000A28A8D1ADE7009812
:1010F000401C0128009094DD0021286800F06DFD5F
:1011000020EA090111F00F011CBF286800F065FDFD
:10111000286849F01001BDE8F44F00F076BD0000EA
:10112000409701205C9701204897012000000000B3
:101130006400000032000000640000002200000093
:101140006400000019000000640000004FF0FF324E
:1011500000F1080182604160C16000F10802026193
:1011600000210160704700210161704710B542689D
:101170004A6093688B60946861609160086101685F
:10118000491C016010BD30B50A6812F1010F08BF9B
:10119000036907D000F1080300E023465C68256876
:1011A000AA42FAD25A684A6091608B60596008611D
:1011B0000168491C016030BD4368016982689A601A
:1011C000836842685A604A68824204BF83684B6001
:1011D000002202610868401E086070472DE9F04F48
:1011E00089B040F6B83003F0F5FADFF860160C6805
:1011F00003E0204600F008FA646A002CF9D14FF4AD
:101200007A7003F0DFFA002003F01CFBDFF8406681
:101210000120306103F057FA03F030FA024670689B
:10122000694603F0A0FC20B94FF0FF308DF80000B4
:10123000B6E19DF900100D29FAD8DFE811F0AE01F2
:101240008F00870082003700280020001600B101BF
:101250003F003B002400B1010E00019C206800F01B
:101260000DFD204600F0C9FB9AE1019C204602F0EA
:101270003BF90028F8D0206840F004005CE0012031
:1012800003F0C9FA8CE10198FFF7C1FE88E10199EA
:10129000D1F8F020C2F3800000281CBFC2F3400048
:1012A000002802D0002003F0D2FF79E1019804F079
:1012B0007BF875E10198FFF744F971E1019C182072
:1012C0008DF80C00217A11F0010112D0012922D1F0
:1012D0000A208DF80D0005A904F1280090E8AC0063
:1012E00081E8AC00002100220023002580E82E00C8
:1012F00011E002218DF80D10A16A080200F47F00B0
:101300000A0A40EA016002F47F42104340EA116099
:1013100005900020A0620023218F080A40EA0120E6
:10132000ADF80E0000212187182203A92046FFF7FF
:101330005FF8206840F0100020602046FFF7EFFAC9
:101340002EE104F0B0FA04F02AFC29E10199C86A00
:101350000028FAD0C3680122984721E1019C002CA3
:10136000FBD0E06A00281CBF206B002800F0118130
:10137000A06A0E2815D3606A00F0D4F9012805464A
:1013800040F0F380616A8889082808D0B0F5C16F01
:1013900000F0E4804DF68652904240F0FA80A06A58
:1013A0002228C0F0F6800F464FF00009BA89082ABB
:1013B00004D04DF686539A4218D0CDE007F10E0ABC
:1013C0000E389AF80010890001F03C0B584528BFF0
:1013D000BBF1140FF1D397F817805A4621463846CF
:1013E00004F095FE05469AF800000FE03628E4D395
:1013F00001F10E09282299F806802146484604F09A
:10140000D9FF054699F800004FF0280B616A012DBD
:1014100001F8060C4CD1B889082812D04DF6865137
:10142000884215D10021404605F040F8002811DD22
:101430000121204605F05CF8050027D099F80680C8
:1014400008E0BBF1140F05D9204604F0EDFE054677
:1014500028001BD0B8F1110F17D0204604F0DEF899
:1014600001286FD0B88908280AD04DF686518842E5
:1014700001BF226B09F10801B81D04F051FB04E023
:10148000D7F81A10B81D04F00DF9042D6DD0B8F17D
:10149000010F5DD0B8F1060F06D0B8F1110F09D0D9
:1014A000B8F13A0F50D057E0204601F015FF01285F
:1014B0005BD142E0204600250295676A00F0CEF934
:1014C00000F11609B8894DF6865107F122088842C5
:1014D00004BF626A02F13608B8F804100A0A42EA48
:1014E000012108281FFA81FA0AD1204600F0B6F936
:1014F000398A0A0A42EA012292B2101A504534D3BC
:10150000A06A484528BFBAF1080F2ED3AAF10801F6
:10151000A0EB090081423CBF8944C4F82890B8F888
:101520000000A08602AAD7F81A0060612046B8F829
:10153000021003F048FF012801D1032515E00298AD
:10154000012812D1042510E0204604F015FC0BE020
:10155000204605F01DF807E0002506E0A06A2A28CD
:1015600017D3204603F056FF0546022D0CD010D3AA
:10157000042D01D014D30CE0306850B934604FF41E
:10158000FA6003F01AF90BE00121204600F0E1F8BF
:1015900006E0204601F033F802E0019800F01EFC5E
:1015A000B068002804D00021B16000F07BFD040089
:1015B0003FF430AEE069C0F3400030B1204600F0A7
:1015C0000DFCE06920F00200E061204600F06EFDB5
:1015D000EDE7DFF87C02C068704710B50446D4F828
:1015E000F000C0F3800018B10121204605F037F863
:1015F000D4F8F00040F00800C4F8F00042F2107097
:10160000BDE8104003F0E1B81CB504460021E069D4
:1016100040084000E0618DF800100194684600F039
:101620005DF80128E06907D040F00200E061012187
:10163000DFF81C02816013BD20F00200E06113BDE1
:101640003EB500F02FFD002400F034F800F037FC28
:10165000DFF8FC51009405F1140305F16402082140
:10166000412003F060F96860E8B10FF2142103F043
:1016700067FC00F031FF012817D1FEF799FD05F551
:101680001B7005F531710D2202900191009200232B
:1016900040F28A220FF2F011DFF8B80101F04AFFA0
:1016A00000B10124E86020463EBD686803F0B2FB4B
:1016B0006C60F8E738B9502080F31188BFF34F8F82
:1016C000BFF36F8FFEE77047E0B58DF80000002193
:1016D00000200190684600F001F80EBD70B5054687
:1016E0005B4E95F900000C46316911B960B10020DC
:1016F00070BD062808D1012003F08DF8706803F052
:101700007CFB08B1012070BD00F05CFB012801D119
:1017100004B10024706822462946BDE870400023C9
:1017200003F087B938B5044601257CB1002100F0EB
:101730001AFD60B90622214655A004F0CBFF30B156
:101740002078332804BF6078332800D0002528464D
:1017500032BDF0B5054685B00C460022696A00929C
:101760000E46286B40B9888908282ED1D6F81E006D
:10177000072100F017FD2863286B30B3D0F82071E3
:10178000B08908280CD1D6F81E00009005F130026F
:1017900003A9684604F010F8012808BF03A900D087
:1017A000B11D0622304600F0D9FB286B00F1E8019C
:1017B0000622B01D00F0D2FB00F004FB012806D188
:1017C000FB68224629463846984705B0F0BD74B1FB
:1017D00002218DF8041002954FF0FF3101A8FFF7A8
:1017E0007DFF0028F1D1284600F009FFEDE700F069
:1017F00001F8FEE7502080F31188BFF34F8FBFF34D
:101800006F8F70471248006970470020FFE700287B
:1018100008BF00F005B8D0F8F010C1F3C000704761
:101820000D4A12680146012000E05A6B62B102F1D4
:10183000F00300291CBF1A6B8A4202BF1A68C2F368
:10184000C002002AF1D1002070470000D497012087
:10185000DC540120DD11000828950120426A90899E
:101860004DF68651884201D12820704714207047D8
:1018700020B1007AC10701D5282070471420704795
:101880004E657445766E740049502D5461736B003B
:10189000FFFFFFFFFFFF00002DE9F84504004FF0B8
:1018A0000008454612D014F1080F0ED2083414F087
:1018B000070F0BD004F00700C0F108004FF0FF3114
:1018C000091AA14228BF041900D2002402F00CF822
:1018D0007949886801F11C02D8B901F11C0717F099
:1018E000070F4FF48230134605D0D31DDB08DB0011
:1018F000C3F582301018C0180838C008C0000B604B
:101900004D60886045600560C71A5F6018600F61B0
:10191000CF605027002C60D45FD0CB68A3425CD34B
:10192000D1F800E08C46964522BF644E8E1976456C
:1019300002D200F05BF8FEE7DEF80400A0420BD212
:10194000DEF8000040B1F4468646964528BF76454D
:10195000F2D200F04BF8FEE7886886453DD0DCF80F
:10196000000000F10808904528BF46450AD3DEF87C
:101970000020CCF80020DEF80460A64205D200F07A
:1019800035F8FEE700F032F8FEE7361B112E10D3D3
:101990000EEB040A1AF0070002D000F027F8FEE769
:1019A0000EF104000651CEF804404EF80420CCF8A5
:1019B00000A0DEF804000C691B1AA34298BF1C4665
:1019C0000C61CB6040F00040CEF80400CEF800502F
:1019D00008F007054A69521C4A6101F08BFF15B1F6
:1019E00000F004F8FEE74046BDE8F28587F3118871
:1019F000BFF34F8FBFF36F8F7047002800D1704740
:101A00002DE9F0412C4C04F11C08A0F108065025EA
:101A1000464522BF29482718B74205D371680029D7
:101A200005D400F042F8FEE700F03FF8FEE730682A
:101A300010B100F03AF8FEE721F00041716001F0CA
:101A400053FFE16870684118E16000E004462068D7
:101A5000B042FBD318498C4206D0444528BFA74268
:101A600002D200F022F8FEE76268A318B34203D165
:101A7000706882186260264672682368B0189842BF
:101A800008D18868834204D05868821872601B6845
:101A900000E003463360B44218BF26608869401CEA
:101AA0008861BDE8F04101F025BF85F31188BFF3DF
:101AB0004F8FBFF36F8F7047503300201B0401001E
:101AC00080F31188BFF34F8FBFF36F8F704710B54E
:101AD0002020FFF7E1FE040006D000202060201D3A
:101AE000FFF734FB00202077204610BD2DE9F84F8A
:101AF0000646914698464FF0000A502426B984F3D2
:101B00001188FFF7DFFFFEE78B461BF07F4F04D005
:101B100084F31188FFF7D6FFFEE7BBF1000F04D175
:101B200084F31188FFF7CEFFFEE70A9D02F0E4F987
:101B300000B945B901F0D8FE00F04AF86FEA0B048D
:101B400030B96DB91DE084F31188FFF7BBFFFEE7E4
:101B50000025B9F1000F14D030682040306010E04B
:101B6000B9F1000F18BF4FF0807AB8F1000F18BF1D
:101B70004AF0806A2A464AEA0B01301D02F011F849
:101B8000002701F0B7FECDB118B900F01AF8FFF741
:101B900099FF02F0A6FA0746B8010DD404F043FEFF
:101BA00000F016F8002818BFB9F1000F02D0306815
:101BB0000440346004F050FE27F07F473846BDE80B
:101BC000F28F02494FF080500860704704ED00E04A
:101BD000376842465946384676E070B504460D46A9
:101BE000502014B9FFF76CFFFEE715F07F4F02D0CD
:101BF000FFF766FFFEE704F016FE266826EA0505F5
:101C0000256004F029FE304670BDF8B504460E4646
:101C10000025502014B9FFF753FFFEE716F07F4F61
:101C200002D0FFF74DFFFEE701F05EFE216822695A
:101C30000E43266016E0984213D1F80148BF1D43B9
:101C400041F00071104602F061F80AE0176856682A
:101C500027F07F435FEA471C01EA0300EBD400282A
:101C6000EBD1324604F10C0021688242EED121EA28
:101C70000505256001F03EFE2068F2BD38B504463A
:101C8000502524B985F31188FFF71CFFFEE701F00A
:101C90002BFE03E04FF0007102F038F8606848B1A5
:101CA000206904F10C018842F4D185F31188FFF713
:101CB00009FFFEE701F01EFE207F20B92046BDE8A7
:101CC0003240FFF79ABE31BD034600200B400AB9EF
:101CD0001BB101E08B4200D101207047002204F0CB
:101CE00015BEF0B40246106895681318506803EBEF
:101CF0005004C00748BF4D44A3422DD013F8016BD8
:101D000016F0030004BF13F8010BC01C31090F29A2
:101D100007D113F8011B0F3103E013F8017B05F81D
:101D2000017B401EF9D10029E6D013F8010BC6F360
:101D30008106032E08BF13F8016B00EB062040421A
:101D400028440026B71E8F421EBF10F8017B05F8FD
:101D5000017B761CF6D1CFE7F0BC02F10C00704796
:101D600070B505460E460021304600F0F0FB040039
:101D700026D0606A28B9502080F3118800F0B8F8A6
:101D8000FEE7AA6AB24288BF3246A662696961610B
:101D9000AB8EA386E98EE186EB6AE362296B216351
:101DA000696A00F0DBF82046FFF758FD282807D1C4
:101DB00005F1140090E86C0004F1140181E86C0056
:101DC000204670BD10B502F093F80446FFF701FC01
:101DD000844201D1012010BD002010BD38B5054658
:101DE000502125B981F3118800F082F8FEE7A86838
:101DF00020B981F3118800F07BF8FEE7002002F0A3
:101E000017FD284600F06EF91DE0D4F8F00020F030
:101E10000800C4F8F000C0F3800018B1002120468B
:101E200004F01DFC204603F0F9FD94F8F00000F0EA
:101E30000600062803D10021204602F00DFD2146B0
:101E4000284600F05EF90400DFD1A96828468847DB
:101E500001282ED1E86940F00100E861284600F031
:101E600041F919E0582204F1900104F138000AE028
:101E7000800810F0010002D00128F3D005E01C22F8
:101E800004F11C01204600F069F82046FFF7A5FB8D
:101E90002146284600F035F904000FD0D4F8F000B0
:101EA00000F006010629E3D12146012003F0CFF915
:101EB000EEE7BDE83240002002F0D9BC31BD10B5DC
:101EC000FFF7A0FC502410B100F010F8FEE706491F
:101ED000086810B100F00AF8FEE7FFF77AFB10B1CE
:101EE00000F004F8FEE710BDE054012084F31188EF
:101EF000BFF34F8FBFF36F8F7047884238BF0846DC
:101F000070478842C8BF08467047884288BF084665
:101F10007047884288BF0846704739B9502080F31F
:101F20001188BFF34F8FBFF36F8FFEE70818401E75
:101F3000FFE7B0FBF1F048437047014648780A7864
:101F4000000440EA02608A78C97840EA0220084327
:101F500070470178407840EA012070474AB100009C
:101F600011F8013B521E00F8013B1CBF11F8013B68
:101F7000F8E7704710B5044604F0D2FC2060012059
:101F800010BD10B582EA000443EA01435C4001F051
:101F900034FD0C4A43F2390102FB0010604010BDD1
:101FA000094B036003F158000860822111607047FB
:101FB000064B036003F1580008604FF48271116012
:101FC000704700006D4EC641F48A0120B07D0120AB
:101FD0002DE9F0475FEA00080D461646994618BFFE
:101FE000002D4CD0099F089CD5F824A100F025F9BC
:101FF000C5F824A1B078F17899F80120000440EAEE
:1020000001607178367840EA0120064399F80210A1
:1020100099F80300090441EA006199F8000041EAD7
:10202000022101436960A178E2782078090441EA3D
:102030000261627841EA02210143A960B978FA7825
:102040003878090441EA02617A7841EA02210143C1
:10205000E9601C22696866EA0101696105F11C00FA
:102060002946FFF77BFFEE6106220A9905F1E80099
:10207000FFF774FF29464046BDE8F04719E0BDE888
:10208000F08770B1DFF8D8130A681AB90860002128
:1020900006E00A46824204D0516A0029F9D1506212
:1020A00041627047DFF8B8030068704700B1406ACA
:1020B000704701F590731860026A02B90162DFF897
:1020C000A403826E1AB95A60816609E002468A4208
:1020D00006D0D2F824010028F8D15860C2F82411A3
:1020E000084670470146DFF87C03806E00E05068C8
:1020F00030B100291EBF00F5907213688B42F6D1F3
:102100007047024651B1D1F8240140B13AB100F50F
:1021100090710B68934202D04868F6E7E2E7704797
:1021200010B5DFF840331C680246986E641C08291D
:102130001C6006D203EB81018B6C5B1C8B6400E09E
:10214000586B60B100F1F0031968C1F380010029F8
:10215000F6D122B10168002918BF9142F0D110BD1B
:10216000014600204BE0F8B506460C46DFF8F402C5
:102170004168856E491C416016B9002510E07D68F4
:1021800075B105F59077002C1CBF3B689C42F6D1D9
:102190000622314605F1E80004F09CFA0028EED151
:1021A0002846F2BD0A460146002070B5DFF8B44269
:1021B000A5680B46A16E6D1C0E2AA56006D204EB25
:1021C00082021469641C146100E0616BA9B101F121
:1021D000F00400281CBF226B824202BF2268C2F3B7
:1021E0008002002AF1D113F1010F06D04A680E686F
:1021F00002EA030532409542E7D1084670BDF8B5C2
:1022000004469848856E0E4600E07D6B9DB105F151
:10221000F007002C1CBF386BA042F6D13868C0F321
:1022200080000028F1D0AA6C314605F1380004F096
:1022300071F80028E9D12846F2BD4FF49471284680
:1022400002F00CBA2DE9F84F8AB006460D464FF061
:1022500000081F46CDF8208004A8102102F0FEF9E6
:102260006846002100220023002480E81E004DF66D
:1022700086518D420ED19246384600F0F7F801247F
:1022800000B9A2463046FFF72DFF05000DF11009F9
:10229000099645E09246F5E728683968884234D1C6
:1022A00000980495401C00902FE01499062205F137
:1022B000E80004F00FFA461ED5F8F000B641F60F1C
:1022C000C0F38000844226D10398C9F80C50401C0A
:1022D000002C0390E0D005F1380000F0C7F8052885
:1022E00013D0B0F1010B6BEB0B0B1022394605F14B
:1022F000380004F0EFF90028D2D0BAEBDB7F04D12C
:102300000198C9F80450401C019026B1C9F8085042
:102310000298401C029029460998FFF7F2FE05003A
:10232000C3D1089800215DF82120012A03DA491C55
:102330000429F8DB01E059F821000BB0BDE8F08F6B
:10234000F0B505460C468BB00020502114B900F0C2
:102350005CF8FEE7A21C12F0030F02D000F055F863
:10236000FEE74049CA68521CCA6007A9A689002234
:1023700000230027844681E88C1003AB002183E80A
:102380008610082E2CD0B6F5C16F10D04DF68652AF
:10239000964238D1102204F1160107A8FFF7DEFD9E
:1023A000102204F1260103A8FFF7D8FD1EE0A08A41
:1023B000B0F5807F08D104F11C0007A902680A600B
:1023C000D4F82600039011E0B0F5007F0ED104F19F
:1023D0001C0003A902680A60D4F82600079005E0F3
:1023E000D4F81A000790D4F81E1003910622214653
:1023F00001A8FFF7B3FD01A8009003AB07AA31467F
:102400002846FFF71FFF0BB0F0BD81F31188BFF323
:102410004F8FBFF36F8F7047F8B505461148124EC6
:10242000846E0BE03868C0F3800030B1102204F1F4
:102430005C01304604F04EF978B97C6B6CB1602DCC
:1024400004F1F007EED0402D02BF3868C0F38000E1
:102450000028F2D1A0680028EFD02046F2BD00008D
:10246000D4970120C0940120606500082DE9F04157
:1024700004460525DCB100262078617841EA002871
:102480005FF006010CA0714347183A78042A03D183
:10249000204603F0F1FE48B97888B98800EA0800C0
:1024A000884207D0761C052EE6DB00E0042528468E
:1024B000BDE8F0813D78FAE7000000E0002001006F
:1024C000C0FF80FE0200C0FFC0FE030000FF00FF4F
:1024D0000400FFFF00000000F8B5594CA06910BBD4
:1024E000584D05F552623C213C2002F081FAA06172
:1024F00000F01DF854A102F023FD2046FEF726FE51
:102500000026382171436F1800207862761C384607
:10251000FEF729FEFF6039462046FEF734FE3C2ECA
:10252000EFD33C206061A06900B10120F2BD38B951
:10253000502080F31188BFF34F8FBFF36F8FFEE7FA
:10254000704700281CBF0A38FFF757BA7047F8B524
:10255000044600250020462C34BF462414F1020F07
:1025600001D2A41C00E0012014F0030F0AD004F0F3
:102570000302C2F104024FF0FF339B1AA3422CBFA7
:102580001419012014F10A0F37D204F10A06A0BB76
:10259000B6F1004F31D22A4FB86970B302F06BFB2D
:1025A00001282AD104F03FF9F868C5682846FEF7EB
:1025B00003FE04F051F938687A69904288BF1046EA
:1025C0007861686A38B1502181F31188BFF34F8F69
:1025D000BFF36F8FFEE784B13046FFF75DF928B98E
:1025E0006862284600F00BF8002506E040F80A5B18
:1025F00000216862AC62E96229632846F2BD70B5C9
:1026000005460F4E686AFFF79CFF00216962A962C8
:1026100004F009F92869B04208BF012404D0294612
:102620003046FEF7A3FD002404F016F93CB9B0696A
:10263000BDE8704000230022002102F0FAB970BD0D
:102640008C9701206C4701204E6574427566536576
:102650006D000000024600208A1A521E58BF012059
:10266000704702460020521A521E58BF0120704780
:1026700002460020521A58BF0120704700F108029C
:102680004A6003698B6002695160016108610168F9
:10269000491C0160704710B5044601F0AEF921688D
:1026A000401A10BD30B502460020D2F8B03000E02C
:1026B0005B6802F1AC04A34204D0DC6825688D425B
:1026C000F6D1204630BD2DE9F8438846DFF8FC16E8
:1026D0008146086817461C4608B9002523E0CE68E5
:1026E000F568502016B900F021F8FEE715B900F0A2
:1026F0001DF8FEE73046FEF75FFD002C314614BFA3
:1027000009F1A40009F19000FFF7B8FF01F075F995
:102710002861002068610CB14FF4802068616F600F
:10272000AF60C5F800802846BDE8F28380F31188C9
:10273000BFF34F8FBFF36F8F704780B5D0F8A410F1
:1027400009B1002002BD81690069401CFFF790FFBC
:1027500000B1012002BD10B5016800290FBF00249F
:10276000C068C468FEF728FD204610BD016809B99D
:1027700000207047C068C068704710B50446A06A62
:1027800018B104F11800FEF717FD00212160A160C7
:102790006161E06B18B104F12C00FEF70DFD04F14E
:1027A0002C01BDE81040DFF8240667E770B5054648
:1027B000002405F1900603E0002CFAD005F1A406F0
:1027C000B06810F1010F07D103E0F168C868FFF7A6
:1027D000D4FF30680028F8D1641C012CECDD70BDFA
:1027E0002DE9F047DFF8E465804670698946924636
:1027F0001C460125E0B93046FEF7A8FC4FF47050A6
:10280000FFF74AF8706108B9002511E04FF47051E4
:1028100001F024FF0027706900EB8710806340629D
:1028200000F12C013046FFF729FF7F1CF02FF2DB6F
:10283000099F089E08F19000FEF788FC08F1A400AB
:10284000FEF784FC08F14000FEF780FC08F154001C
:10285000FEF77CFC08F16800FEF778FCC8F80490ED
:10286000C8F808A03B4632462146404600F003F82F
:102870002846BDE8F08730B50024046001250560D6
:1028800073B100F1BC056C8804B16B802C88A34245
:1028900000D32CB94468B4FBF3F45C4344602B8050
:1028A0004FF4FA738363C16001618161C2610262A6
:1028B00042638262C26230BD2DE9F84F0A9D0F4625
:1028C0000021296093460BEB070282464FF0FF344C
:1028D000DAF81010521A7E1A204607D5002A05DDB4
:1028E000C6F100084744B344C5F800800025B9424A
:1028F0008AF83C50CAF8305042D15B453FD30AF1C8
:102900003C01DAF81080886E0BEB0807A0B3009743
:102910000BEB080902E02046FFF72FFF0AF13C000D
:102920000024456F12E0EE6830684146FFF7A0FED4
:1029300058B130684946FFF78DFE30B124B12168A7
:102940003068FFF787FE00B134466D680AF1AC00CD
:102950008542E8D1002CDED139465046FFF7A2FE71
:1029600020B18168CF19FFF708FFF5E70098B8425A
:102970001CBF391ACAF83010CAF81070002044E0A1
:10298000491EB94241D0002A3FDD93423DDBDAF8CF
:1029900010600BEB070801E0806880444146504618
:1029A000FFF780FE0028F7D10AF13C05DFF820147C
:1029B0006964380200F47F00390A40EA076001F4D4
:1029C0007F41084340EA1760A8644FEA18214FEAA4
:1029D000082000F47F0040EA086001F47F410843CA
:1029E00040EA1860E86439460C2028705046FFF72A
:1029F00059FE48B901235A4639465046FFF763FE4F
:102A000000280CBF2870BC1B2046BDE8F28F1018B0
:102A10008842A8BF401A70472DE9F04705460026B6
:102A2000EC6F002C0F469846914640D06268A06833
:102A300090423CDA6169C1F30041C1BBB8B3111ADD
:102A40003846FFF75EFAA168626841189142A8BF54
:102A5000EE67A1603F1A696B41186963064602463A
:102A600041464846FFF7D3FF814620E0616838467B
:102A7000FFF747FA8246C4F808A0C4F80C90524603
:102A800041464846FFF7C3FF8146686B5044686380
:102A900004F1180105F15400FFF7F0FDA06861682A
:102AA000A7EB0A0756448842A8BF0024EC67002F12
:102AB00008DDB5F8BC20696B00232846FFF703FE4C
:102AC0000400D3D13046BDE8F087D0F89000401E16
:102AD0008041C00F7047F8B506460F4606F1540016
:102AE000FFF744FE040014D0356AB06AA8422CBF38
:102AF000451B002529463846FFF707FAA1683F1A0B
:102B00008F428041C043C00F25B1B2684D19AA421F
:102B100000D20020F2BDF8B50646154600200F464B
:102B20002860316C91B906F16800FFF71FFE0400C0
:102B30000ED0B66B04F11000FFF7ADFD6169012204
:102B40008A405643B0423CBF301A28600120F2BD93
:102B500006F15400FFF70AFE04000DD03946304656
:102B6000FFF7B9FF40B13068C0F340000028EDD056
:102B7000A06861688842E9DA0020F2BD2DE9F843D7
:102B800005468846914605F14000FFF7E4FD002721
:102B90000400A86AE8623ED105F16800FFF7E6FD8F
:102BA000040015D06069AE6B012181404E4304F1F1
:102BB0001000FFF770FD864209D205F16800FFF7AB
:102BC000CAFD0446606920F47F40606100E0002493
:102BD0000CBB05F15400FFF7C9FD04001BD02868A9
:102BE000C0F3400018B1A0686168884204DB414628
:102BF0002846FFF770FF08B900240CE005F15400E7
:102C0000FFF7A9FD0446E86FA04208BFEF672168FF
:102C1000A0684118A9626CB3A06A38B1502181F351
:102C20001188BFF34F8FBFF36F8FFEE704F11801D8
:102C300005F16800FFF722FD606940F480306061B3
:102C4000411C61F30700606100F0FF00042808D117
:102C5000B5F8BC00AA684100914202D24004000CC1
:102C6000A86000F0CAFE20612068E862E168C9F847
:102C70000010A7683846BDE8F2832DE9F84F0546F5
:102C80008946D5F89C6092464FF0000808E0002C79
:102C90001FBFB96A002907F11800FEF78DFAD94461
:102CA00005F198018E424BD051464846FFF7D2FCC1
:102CB000002845D0F768766839684846FFF7D1FCA8
:102CC00000240028ECD13A68914539D17869D7F8C9
:102CD00008B0C0F3404048BB51460BEB0200FFF781
:102CE000C0FC68BB786940F40030786100F0FF00F8
:102CF000012802BF38685844504516D107F110002A
:102D0000FFF7C9FCA96B814203DBC1EBC1010818C5
:102D100003E04000062202FB0100811000EB51702D
:102D2000C0103228B8BF3220A8630124286A814528
:102D3000ADD158442862D8443846FFF71EFDAEE7AF
:102D40004046BDE8F28F0A46016A8B1A48BFFFF77A
:102D500094BF002070472DE9F84304468846266A50
:102D6000FFF78BFF656F814621E0EF6878696D683A
:102D7000C0F34040D8B938684146FFF76BFCB0B1AA
:102D80007869010A491C61F30F20C0F30721032968
:102D900078610CD1000A0002786107F11800FEF793
:102DA0000BFA07F1180104F14000FFF767FC04F18A
:102DB00070008542D9D107490A68002A03DD3146EF
:102DC0004046FFF74EFC4846BDE8F283A897012035
:102DD0000101050AE0970120FEB50D4604210646D3
:102DE0002846FEF77BFF0124374600213B78002070
:102DF000302B0AD17B78303B0A2B1DD305E017F826
:102E0000012B0A23303A03FB00203B78303B0A2B8E
:102E1000F5D3B74208BF0024B0F5807F0CD20DF87F
:102E20000100032903D238782E2805D17F1C24B154
:102E3000491C0429DAD300E00024387800B10024CA
:102E4000042918BF002412D18CB19DF802109DF8FE
:102E500003009DF80120090441EA00619DF800008B
:102E600041EA02210143019101A908682860204636
:102E7000FEBD1CB50C46102A38BF002404D30268DE
:102E800000921046FDF7D0FC204616BD38B504462A
:102E90000025002C18BF002911D0227A0869D30719
:102EA00007D560B1102204F1500003F013FC002894
:102EB00003E020B9206D0968884208BF25462846EE
:102EC00032BD0A2802D23030C0B27047102838BF55
:102ED0005730F9D3502080F31188BFF34F8FBFF3E1
:102EE0006F8FFEE72DE9F843804689461746002597
:102EF000002400263804000F18BF012402D10CB9A9
:102F0000032E08D1A9F101018D4208D2FFF7D9FFA4
:102F100008F805006D1C3F01761C032EEAD92846EF
:102F2000BDE8F283F0B5866807680023002400211D
:102F30004FF0FF3537F8132032B9002912BF491C72
:102F40001C460121072B06D1012903DD8E42BCBF9F
:102F50000E46254600215B1C082BEBDB8660456096
:102F6000F0BD78B585B006460C4615461421684676
:102F700001F074FB032D009643D36846FFF7D2FFA0
:102F80006E1E17E00498864244D33A212154039AD6
:102F9000029904988A18401C082A049006D1864297
:102FA0002FD33A2222540498401C0490039902988B
:102FB000411803910398082823DA01998842E1D047
:102FC000012807DB0498B04224D23A212154049806
:102FD000401C04902A1F0498824212D30099039A3D
:102FE00031F812100A0A42EA012292B20521204465
:102FF000FFF778FF0499401804900398401C039051
:10300000D8E70399082905DB04990020605420467D
:1030100006B070BD0024FAE738B5DFF80C55044659
:10302000286800281CBFA042FDF78BFA2C6031BD38
:1030300038B5DFF8F8540446286800281EBFA042BF
:10304000B0F87210FDF764FE2C6031BDF8B505468E
:1030500005F164070026787C0024052804DB386B22
:1030600010B1284603F0A2FE786BE0B13868C0F3D7
:10307000401098B9787C48B12846FEF7F9FB00F17A
:103080001402796B0023284603F0BBFC284600F0AD
:10309000E0F8022828BF0124786B18B1786BFFF79D
:1030A000AEFA7E6374B9787C052801DA022802D171
:1030B000284603F03BFC284600F0CBF8284603F0F6
:1030C0003BFF06463046F2BD10B5044600F095FCC5
:1030D000E06710BD2DE9F843054605F16C070E4683
:1030E000787A8046B8F1050F2C4603DB082818BF14
:1030F000012100D10021052E03DB082E18BF01207D
:1031000000D10020B8F1020F1CBFB8F1030FB8F1D5
:10311000040F02D1082E08BF012181424FF050094F
:103120003FD0696E01F00C02042A04BFFC68002C39
:1031300002D100F087F8FEE720B3C1F38000A8B108
:1031400064B1A06F00B9A567206894F8401040F002
:103150000400CA0748BF40F4807020600020F86077
:103160000120696E60F34201696615E0286840F04D
:103170000800286095F840108A070DD540F40070CB
:10318000286009E0206894F8401040F020004A07C9
:1031900048BF40F480602060787A03F0C3FE00B935
:1031A00038807E72310018BF082E31D1AC4202D176
:1031B000F86800B1044600F097FB686E10F0060F47
:1031C00024D0C0F3C00008BBDFF86403C16800F17D
:1031D000080291420DD0CA684968AA42F7D0138FFD
:1031E000B5F838C0634504BF936FAB42EFD1002000
:1031F0009067686E20F006006866FEF7E3FD10B980
:1032000000F020F8FEE72846FFF706FF00F072FB0B
:10321000082E0CD1686EC0F3C00040B1A8F10300C5
:10322000012804D8002078722846FFF701FF2846BD
:10323000FFF74AFF24B12046BDE8F243FDF76FBB1C
:10324000BDE8F18389F31188BFF34F8FBFF36F8F10
:103250007047F8B544F6206500F1640400954FF41A
:103260007A76617C02291BD12068C0F3C02070B13E
:10327000207C032807D208B900900BE040F6B83153
:10328000401E814001E042F6F821009102E04FF437
:10329000FA7200923246009FA6FB0701002314E059
:1032A0002189B9B9D0F8FC106A4600F58470FFF79F
:1032B00032FC009921B900281ABF01210091009524
:1032C000009AA6FB02010023324604F0F1F800B98F
:1032D000012020812089F2BD2DE9F0418AB001262C
:1032E000502220B982F31188FFF7AEFFFEE7416A52
:1032F00021B982F31188FFF7A7FFFEE70490FEF7DC
:10330000ADFA049B996A0E3000F11402914256D333
:10331000596A0C186088657B020A42EA00282088F6
:10332000070A47EA002788894DF68652904206D15F
:1033300009961022163105A8FEF710FE15E00020B0
:103340000990D1F81A20D1F81A00000200F47F0089
:1033500040EA0260D1F81A20D1F81A30120A02F4B9
:103360007F42104340EA13600590BFB2039705A95E
:1033700082B068461422FEF7F1FD0CBC1FFA88F1FA
:103380000020FDF751FD5FEA000805D008F1740741
:10339000787803F0C7FD20B905F01F00102857D03A
:1033A00008E0002038707878012811D105F01F005E
:1033B000022805D068074BD4049803F0B1FD47E01C
:1033C0000499404604F014F85FEA000853D13FE046
:1033D000690737D5022808F5867610D1A168A0685C
:1033E00000F07CF8A168A268090A01F47F41084353
:1033F00040EA1260B16A401E884229D10EE061683D
:103400006068656800F06AF82D0A616805F47F4518
:10341000054345EA1165F1688D4204D1002140461B
:10342000FFF758FE14E02846FFF71BF980B1F1685A
:10343000306841182846FFF70DF948B1049803F0A9
:103440006DFD05E005F01F01022903D1042801DD0F
:1034500000263FE04046FEF70BFA04994B6A0E3017
:1034600008EB00071918142207F19E00FEF776FDFD
:10347000102087F8AB004046FFF726FE207B00F0C7
:10348000F000502805D90499404604F094F806004D
:1034900020D0E089010A41EA0021A80789B204D4BA
:1034A000C8F8FC1098F8FA008140C8F8FC104046B3
:1034B00004A903F0C5FD002803DD04A9404603F07C
:1034C00086FA049818B1FFF79AF800200490404655
:1034D000FFF7BFFE30460AB0BDE8F081000200F4FD
:1034E0007F0040EA0160704770B50246104C108FB3
:1034F000E568030A43EA00239BB2002000E06D6800
:1035000004F108018D420ED02E689E4202BFEE6883
:1035100096F83B100629F2D1716EC1F340010029E3
:10352000EDD09667012070BDD8970120DC9701206F
:10353000409701202DE9F04385B000240D9D0494AF
:10354000502615B900F069FFFEE70E9C14B900F093
:1035500064FFFEE758270097DDF800E0BEF1580F42
:1035600002D000F05AFFFEE7174688468146009ACF
:103570001E4658212046FEF7B1FB0222256384F83F
:10358000552000200C9A039004A901910092029406
:1035900033463A464146484600F037F814B12046D3
:1035A00000F075F804982DE02DE9F843064617461B
:1035B00084B088469946B800FEF76EF904001FD023
:1035C0005820FEF769F9050017D05821FEF786FB51
:1035D00000202C6385F85500039002950D980C99F6
:1035E000019000914B463A464146304600F00DF8B6
:1035F000284600F04CF8012004E02046FEF7FDF9D3
:103600004FF0FF3005B0BDE8F0832DE9F8430A9C88
:1036100080460D461646206B9946A522B10004F05F
:1036200029F9216B01EB8600061FF608F6005021F0
:1036300065B10022AB5CA01880F83430A85C10B1F2
:10364000521C0A2AF6D3002084F83D00089F0F2F51
:1036500004D381F3118800F0EDFCFEE7099DE762D9
:10366000A764201DFDF77FFD04F11800FDF77BFD29
:103670002461C7F10F07A76164624A46414630469C
:1036800003F038F8206005B12C60BDE8F1832DE926
:10369000F04100F077F8DFF86C56DFF86C76E86CF4
:1036A000401CE8641426E86B40BBEC63E86C01281E
:1036B0002CD1002506FB05F03844FDF747FD6D1CB5
:1036C0000F2DF7D3DFF83C5605F17C00FDF73EFDEA
:1036D00005F190084046FDF739FD2846FDF736FD17
:1036E00005F11400FDF732FD05F12800FDF72EFD70
:1036F00005F17C002864C5F8448007E0A86D28B96E
:10370000E06AE96BCA6A904228BFEC63A86EE16A7E
:10371000401C206401236A6D8B404E431A43391DBF
:103720006A65221D895900F05DF9B9196161BB59BB
:103730005B1CBB51A86603F08FF8A86D40B1E86B25
:10374000C16AE06A814203D200F075F800F072FCB1
:10375000BDE8F08180B580B1DFF884168A6F521C15
:103760008A67896F012902D000F061FCFEE7002121
:1037700000F05AFE00F0BEF818B900F056F800F05C
:1037800059FC01BD044603F04EB838B5FFF7FAFF07
:10379000DFF8705504B9EC6B00F053F838B9E26A01
:1037A000DFF8640514214A43805800F092FCA06AB7
:1037B00018B104F11800FDF7FFFC211D05F12800E8
:1037C000FDF7D4FC002004F154010A5C012A03D166
:1037D00004F1540200211154401C0028F3DD03F0D1
:1037E0003BF8A86D28B103F01EF800F073FB03F05E
:1037F00033F8E96B8C4217D1A86D58B1A86F20B18E
:1038000000F0F7F800F016FCFEE700F00EF800F00C
:1038100011FC31BDA86AE96C884202D10020E8633E
:1038200031BDBDE8314082E131BDDFF8F0174FF026
:10383000805008607047DFF8E4274FF08051116036
:103840007047201DFDF7B8BCF0B589B05FF00001EE
:1038500023A206AB505C585410B1491C0A29F9DB6D
:103860000024DFF87C550FF2F556002105910491F4
:1038700003AA04A905A8FEF793FB059804990290F2
:103880000022009201910023039A06A9304605EB1D
:103890008407FFF74FFE386718B10120641C002C25
:1038A000E3DD012808BF04F003F8502101280FD1FF
:1038B00081F3118800F0BEFB4FF0FF30E866012174
:1038C000A9650020286502F037FF686F09B0F0BDD8
:1038D00010F1010FF9D181F3118800F0ABFBFEE785
:1038E00049444C4500000000DFF8F404816F491C96
:1038F00081677047F8B502F096FFDFF80864B06F93
:103900000024002520B900F074F800F093FBFEE7D6
:10391000B06F401EB067B06F00285FD1F06C002818
:1039200040D15BE0F068C468E269A06A216A9160F6
:10393000226AE169516004F118024168914204BFB2
:10394000216A4160A5620168491E0160A268606940
:10395000E1689160E268A1685160221D416891426E
:1039600004BFE1684160656114220168491E01607D
:103970000121E76A706DB940084370655743DFF86D
:103980008803011D221DC95900F02CF8C11961617D
:10399000C3595B1CC351F16BC86AE16A88423CBFE2
:1039A0000122326630680028BCD10CB100F092FAD6
:1039B000F46D44B100F025F808B101203066641EB2
:1039C000F8D10020F065306E40B1F26BDFF84C1694
:1039D0004FF080500125086000F02CFB02F03CFF06
:1039E0002846F2BDA1608B68E3608B685A608A60EC
:1039F0007047502181F311887047DFF8E403006DB0
:103A00007047F8B5BF4EB06F0024002840F08A80A0
:103A1000356D6D1C356510D1316C086820B1FFF72C
:103A2000E8FF00F007FBFEE7306C716C31647064F6
:103A3000706E401C706600F04DFAF06EB2491422B0
:103A4000854262D35AE0336CD868C36858688542AF
:103A500066D3D3F808C05869DF68CCF80870D3F88B
:103A60000CC09F68CCF8047003F1040C47686745EC
:103A700004BFDF68476000275F6107687F1E07603B
:103A8000986AA8B1D3F81CC01F6ACCF80870D3F8A4
:103A900020C0DF69CCF8047003F1180C4768674553
:103AA00004BF1F6A476000279F6207687F1E076088
:103AB0004FF0010CD86A776D0CFA00FC4CEA07074E
:103AC0007765504301F1040E03F1040C5EF80070B9
:103AD0009F60D7F808E0C3F80CE0D7F808E0CEF80C
:103AE00004C0C7F808C00F185F610F587F1C0F5043
:103AF000F06BC76AD86A874238BF0124336C1868F4
:103B00000028A0D14FF0FF33F366F06BC36A5A432D
:103B10008958022928BF0124306E30B1012404E005
:103B2000F066F2E7F06D401CF0652046F2BD754A84
:103B3000906F10B101211166704710661421506D0D
:103B4000714BB0FA80F0C0F11F00484319180868A3
:103B500038B9502181F31188BFF34F8FBFF36F8FB6
:103B6000FEE748684068486001F10803984204BFD6
:103B7000C86848604868C168D163D06B704710B5A9
:103B80000C4610B900F053FAFEE75E4AD36B03F11E
:103B90001801FDF7F8FA2046BDE81040012100F0B9
:103BA00043BC70B5502420B984F3118800F042FA68
:103BB000FEE7544DAB6F23B984F3118800F03AFA55
:103BC000FEE7EB6B41F0004199614168EC6BE1610C
:103BD0008B68EC6B2362EE6B8C6806F118036360F4
:103BE000EB6B03F118048C60E96B886201210368B8
:103BF0005B1C03601046BDE8704000F015BCF8B5D2
:103C00000B4610B900F013FAFEE741683D4CE66B35
:103C1000F1618D68E66B3562E76B8E6807F1180518
:103C20007560E56B05F118068E60E16B88620468CB
:103C3000641C04600AB14FF0FF331146BDE8F44044
:103C4000184600F0F1BBF0B5C068C06810B900F0CC
:103C5000EEF9FEE7C369816A026A9A60036AC26983
:103C60005A6000F118034A689A4204BF026A4A6027
:103C70000A68521E0A600023224A916F41BB856880
:103C80004169C468AC60C56884686C60051D4C6897
:103C9000AC4204BFC4684C60436101260C68641EDA
:103CA0000C601421C46A556DA640354355654C43DC
:103CB00015490D1D061D2D598560AF68C760AF6899
:103CC0007E60AE600D1945610F597F1C0F510CE0ED
:103CD0005168C16100F118038C6804628C686360EC
:103CE0008B6013461168491C11608362D16BC06AF6
:103CF000CB6A834203D2012101201166F0BD00206E
:103D0000F0BD0000F83000207491012070B5344BF4
:103D10009A6F502422B984F3118800F08BF9FEE7E2
:103D200041F000410160C16821B984F3118800F0BD
:103D300081F9FEE7456802698468AC60856844687B
:103D40006C605468844204BF856855600024046137
:103D50001068401E10608C684869CA68A260CC6810
:103D60008A6862600C1D4268A24204BFCA68426051
:103D700000244C6101250268521E02601420CA6AA8
:103D80005C6D95402C435C654243DFF82807041DB9
:103D90000D1DA4588C60A668CE60A6687560A560ED
:103DA00084184C618658761C8650D86BC26AC86AE3
:103DB00082423CBF0121196670BD10B5040002D1DA
:103DC00000F035F9FEE702F02EFDDFF8EC06416E5B
:103DD0002160006D6060BDE8104002F03DBD000054
:103DE000F8300020DFF8D0164A6E0260096D41609D
:103DF0007047F8B504460D46502014B900F018F984
:103E0000FEE715B900F014F9FEE702F00CFDDFF84B
:103E1000A806016D62682E688B1A16F1010F12D088
:103E2000476ED4F800C0674505D0914203D3002007
:103E3000012428600CE0B34207D2F31A2B60416ED4
:103E40002160006D6060002402E0002028600124F1
:103E500086E1DFF8641601200866704710B5DFF8C8
:103E6000544600F008F821680229FAD3FFF7DDFC78
:103E700000F0E0F8F5E738B5DFF83C4611E002F075
:103E8000D2FC206AC568281DFDF796F9E06C401E3B
:103E9000E064A06C401EA06402F0DEFC284600F046
:103EA00004F8A06C0028EAD131BD10B5044694F89E
:103EB000550040B9206BFDF7A0FD2046BDE810403D
:103EC000FDF79BBD10BD0128F7D00228FAD000F005
:103ED000AEF8FEE7DFF8E0150A6C106818B94FF08D
:103EE000FF32CA667047086CC2681368CB667047B9
:103EF000DFF8C405C06B7047DFF8BC15886D08B9E2
:103F000001207047886F08B9022070470020704771
:103F10002DE9F04104460020002C3BD0E16ADFF897
:103F20009855EA6BD36A99422ED2A069002804D42E
:103F3000E86BC26AC2F10F02A2611427DFF8746550
:103F40006269794331448A421AD1FFF77AFC4FF013
:103F5000010828B9686DE16A08FA01F188436865CB
:103F6000E86BC16AE1620846696D08FA00F24743EE
:103F700042EA0108301DC5F8548000F09CF808E0C2
:103F8000E86BC16AE16204E0A16CEA6BD36A994212
:103F900000D20120BDE8F08170B504460021002C5C
:103FA0003AD0DFF81455E86B5022844204D082F3F3
:103FB000118800F03FF8FEE7E06C20B982F3118829
:103FC00000F038F8FEE7E26AA36C401E9A42E06413
:103FD00022D008BBFFF735FC012628B9686DE16ADD
:103FE00006FA01F188436865231DA16CE162C1F105
:103FF0000F00A06114206A6D8E404143DFF8B404C5
:104000001643021D6E655258A2609568E56095687A
:104010006B6000F005F80121084670BD04ED00E07A
:104020009360421862614458641C445070475020A9
:1040300080F31188BFF34F8FBFF36F8F7047F8B5D0
:10404000040037D0E06C502320B983F31188FFF7C8
:10405000F1FFFEE7A26C914238BF1146E26A8A4244
:1040600028D0012826D1DFF85054E86B844204D1CF
:1040700083F31188FFF7DEFFFEE7A069E162002805
:104080005CBFC1F10F01A1611427DFF828646169E9
:104090007A43324491420DD1FFF7D3FB00F019F877
:1040A0000122E06A696D824047431143301D696512
:1040B00000F001F8F1BD211DC059A0608268E260E6
:1040C000826851608160F0196061F259521CF251AE
:1040D000704728B9696DE06A0122824091436965A1
:1040E0007047DFF8D413C86B8069CA6BC96BCB6AA1
:1040F000C3F10F0393617047DFF8BC03C06B10B1CD
:10410000C16C491CC1647047F8B50D46164600F0F5
:1041100070F8F86B006D28B9F86B012180F8541025
:1041200006B1012402F098FB1CB10121304600F0D9
:104130007BF9FFF7DFFB24B118B9FFF776FBFFF738
:1041400079FF02F070FBF86B046D2CB1002D14BFE9
:104150000020601EF96B08650020F96B81F854009F
:1041600002F07AFB2046F2BD2DE9F84388469146DD
:104170001D4600F03EF8F86B089E90F854000228A7
:104180000BD0F86B016D21EA0808C0F850800120BF
:10419000F96B81F8540006B1012402F05DFB1CB1FB
:1041A0000121304600F040F9FFF7A4FB24B118B913
:1041B000FFF73BFBFFF73EFF02F035FB15B1F86B55
:1041C000006D2860F86B90F85400022818BF002496
:1041D00006D1F86B016D21EA0909C0F8509001245D
:1041E000F96B002081F8540002F036FB2046BDE850
:1041F000F283002438B1502080F31188BFF34F8F31
:10420000BFF36F8FFEE7DFF8B072B86F401CB8677E
:1042100002F009BB2DE9F843044690469946012671
:10422000502724B987F31188FFF704FFFEE721B177
:1042300087F31188FFF7FEFEFEE7089D02F030FBD2
:10424000EFF3118187F31188FFF7F4FE0DB1206DB4
:104250002860022094F85430974A84F85400B9F149
:10426000040F1AD8DFE809F0080311061500206DC5
:1042700048EA0008C4F85080012B57D1A06AA0B1C9
:1042800087F31188FFF7D6FEFEE7206D401C2065FE
:10429000F2E7022BEED1002648E0106D0028EBD0AB
:1042A00087F31188FFF7C6FEFEE7906F50BBA56845
:1042B0006069E368AB60E568A3686B60251D4368CF
:1042C000AB4204BFE36843600025656103685B1E81
:1042D0000360E56A506D06FA05F300F098F85D4357
:1042E0007D59A560AF68E760271DD5F808C0CCF8F8
:1042F0000470AF60E56A6B43C5186561C7587F1CE1
:10430000C75009E05068E06104F118038568256230
:1043100085686B6000F075F8D06BC36AE06A834211
:1043200004D2099800B106600120106681F311885B
:104330003046BDE8F283F8B504461546502614B958
:1043400000F06BF8FEE711B100F067F8FEE702F04D
:10435000A7FAEFF3118100F060F894F854000222FC
:1043600084F85420236D5B1C0128236546D1A06A84
:1043700010B100F052F8FEE74F4A906F50BBA668AC
:104380006069E368B360E668A3687360261D4368EC
:10439000B34204BFE36843600026666103685B1EA6
:1043A00003600123E66A506DB34000F030F85E43CD
:1043B000BE59A660B768E760271DD6F808C0CCF8DC
:1043C0000470B760E66A7343C6186661C7587F1CFD
:1043D000C75009E05068E06104F11803866826625E
:1043E0008668736000F00DF8D06BC36AE06A8342A0
:1043F00004D20DB1012028600123136681F31188D6
:10440000F1BD8360A2621068401C106070471843C1
:10441000506514232748071D704786F31188BFF3A2
:104420004F8FBFF36F8F70472DE9F843224E376DE2
:10443000D6F84080D6F844900C46F16B0546081D2E
:10444000FCF7BAFE30B9F06B716DC06A0122824090
:104450009143716515F1010F15D1A4B1F06AF26BAA
:1044600090608168F26BD160F36B8268191D5160B6
:10447000F16B0A1D826006F12800F16B4861B06A99
:10448000401CB06213E0F06BED194560BD42F06B6B
:1044900005D2011D4846BDE8F443FCF774BE011D7A
:1044A0004046FCF770FEF06E854238BFF566BDE809
:1044B000F183000074910120F83000200069121887
:1044C000511A491E814228BF091A084670470069DF
:1044D0001218511A814228BF091A0846704702680B
:1044E0008168EBE70268C168E8E782680168EEE787
:1044F00082684168EBE700218160002202600023AE
:10450000C3604160704770B504460D462669FFF7E9
:10451000EFFF6168A84288BF28464018B04228BF14
:10452000801B606070BD034600201B68D21AC91A48
:104530008A4228BF0120704770B504460D462668A0
:10454000FFF7D3FFA119143129602269911BBDE83F
:104550007040FDF7DEBC2DE9F04707460C4690465B
:104560001D46FFF7BCFF844234BF001B00202946D4
:10457000FDF7CFFC5FEA000930D03D69BE681CB191
:10458000A619AE4228BF761BB8F1000F15D04946D8
:10459000A81BFDF7BEFC824607F1140052464146B7
:1045A0008019FDF7DBFCCA4507D2A9EB0A0208EB2C
:1045B0000A0107F11400FDF7D1FCFFF795F924B9C2
:1045C0004E44AE4228BF761BBE60F968324638467C
:1045D000FFF7A9FF00B1FE60FFF78CF93BE02DE982
:1045E000F04707460C4690461D46FFF77EFF844283
:1045F00034BF001B00202946FDF78BFC5FEA000951
:1046000029D03D693E681CB1A619AE4228BF761B71
:10461000B8F1000F15D04946A81BFDF77AFC824679
:1046200007F11400811952464046FDF797FCCA4530
:1046300007D2A9EB0A0207F1140108EB0A00FDF703
:104640008DFC0898002808BF002C04D14E44AE42CF
:1046500028BF761B3E604846BDE8F087002203F085
:104660000DB98268521C8260426832B10268531CE4
:10467000036011704168491E4160704710B57D4A62
:10468000137842F21071DC07084603D5D2688A42DB
:1046900038BF1046784909680AE001F1F80213783A
:1046A000DC0704D5D1F80411814298BF0846D16ACD
:1046B0000029F2D16F490A7DD30703D50A6A8242E5
:1046C00098BF104610BD70B56A4C204600F085F8C2
:1046D00010B10320FCF7F8FF04F12C0000F07DF886
:1046E00000281EBF654D2C68002C07D0002000F06C
:1046F000A9F82046FDF783FF002028605E490C687A
:1047000010E004F1F80000F068F804F1F00540B1A1
:10471000287800F00600062803D12146002000F08A
:1047200096FD6C6B002CECD15548524D006800F0A2
:1047300064FB441E05F11400A44100F04EF8E40FA0
:10474000002C08BF002807D02046FCF730FB0146AC
:1047500005F1140000F01DF80020FEF75DFC0020BC
:10476000FEF766FCA86A98B905F1400000F035F83C
:1047700070B144480468012607E0207FC10703D4D4
:104780002046FCF741FF0026646A002CF5D1AE629A
:1047900070BD38B505460C46281DFFF70EFBEC60D2
:1047A000002C28680CBF40F0020020F002002860B6
:1047B000286840F00100286031BD01463248E8E732
:1047C0000161E6E701463148FAE701462948F7E783
:1047D000F830F5E701462E48F2E710B504462068A8
:1047E000C10701D4002010BDC0F3400048B904F156
:1047F0000C01201DFFF7FDFA18B1206840F00200FF
:1048000020602068C0F3400020B121692046FFF7F6
:10481000C0FF012010BD17494A6942F001024A61F8
:10482000002814BF42F0020222F002024A617047DF
:1048300010490A68002812BF42F0010252085200D3
:104840000A6070470B49CA6A002812BF42F0010291
:1048500052085200CA627047D0F8F820002912BFEF
:1048600042F0010252085200C0F8F8207047014996
:10487000886270478495012028950120DC5401202E
:10488000E0540120D4970120B09501209895012093
:10489000C495012070B50D460446502124B981F31A
:1048A000118800F090F8FEE7E06B002836D04FF05A
:1048B000FF32236CB2FBF0F098422FD301F0B3FF2C
:1048C000206CE16B226800FB01F3491E4843104451
:1048D0001344A3600026A663E060626004F1440014
:1048E0004FF0FF310170417065B9206990B100F05F
:1048F00076FA78B1DFF8AC164FF08050086000F01F
:1049000062F807E004F11000FCF720FC04F1240039
:10491000FCF71CFC01F0A0FF012070BD81F31188A1
:1049200000F051F8FEE77CB51C46502324B983F310
:10493000118800F048F8FEE708B12AB131B983F3D5
:10494000118800F040F8FEE70029F8D150250095C5
:10495000009E502E04D083F3118800F034F8FEE757
:10496000069B009D012684F846600094DBB200F0AF
:104970002FF8204676BDF8B504000E4617461CD029
:104980004FF0FF30B0FBF4F0B04216D306FB04F05A
:1049900010F1500F11D25030FCF77EFF05000AD005
:1049A000002085F8460000953B4605F1500231464F
:1049B000204600F00DF82846F2BD00F001F8FEE7B1
:1049C000502080F31188BFF34F8FBFF36F8F704774
:1049D00038B5049D1C4600290CBF2D602A60E86391
:1049E000296428460121FFF755FF85F84C4031BD69
:1049F00038B50C46134650B1A04208D302250095A5
:104A000000220021FFF78FFF00B1846332BDFFF762
:104A1000D7FFFEE710B50C4640B1A04206D30222F4
:104A20000021FFF7A8FF00B1846310BDFFF7C8FFA6
:104A3000FEE72DE9F64782B004461E4600F0D3F9A2
:104A40005FEA010A01D1206C70B9022E02D1E06B3D
:104A500001280ED1FFF750FA80B9039870B187F39F
:104A60001188FFF7B0FFFEE787F31188FFF7ABFF70
:104A7000FEE787F31188FFF7A6FFFEE7274600242D
:104A8000DFF820854FF080592EE0039800284BD0A6
:104A900014B900F083F9012401F0DEFEFEF724FFD3
:104AA00001F0C1FE07F1440000F07DF904BF0022CF
:104AB000027000F081F904BF0022427001F0CCFEC8
:104AC00000F076F9002844D101F0ADFEB86BF96B27
:104AD000884214BF0025012501F0BEFE45BB3846C3
:104AE00000F0F1F9FEF706FF01F09DFEB86BF96BDF
:104AF000884201D3022EC8D132465146384600F0D2
:104B00009AF9796A29B107F12400FFF79CF808B9EE
:104B100004E018B1C8F80090FFF755FF01F09CFEC3
:104B2000012004B0BDE8F08701F096FE0020F8E710
:104B3000039907F11000FFF722F8384600F0C3F997
:104B4000FEF7D8FE0028CFD1C8F80090FFF73BFF52
:104B5000CAE7384600F0B7F9FEF7CCFEE6E704F105
:104B60002400FFF770B82DE9F74306460F460024EE
:104B7000502526B985F31188FFF725FFFEE70FB909
:104B8000306C48B9FFF7B8F980B9029870B185F375
:104B90001188FFF718FFFEE785F31188FFF713FF71
:104BA000FEE7304600F08FF9FEF7A4FE01F03BFE71
:104BB000B56BDFF8F083002D4FF0805937D10298A4
:104BC00000284AD014B900F0E9F8012401F044FEAD
:104BD000FEF78AFE01F027FE06F14400415711F16D
:104BE000010F04BF0022027000F0E6F804BF0022AB
:104BF000427001F031FE02A96846FFF7FAF800287A
:104C000030462ED100F091F90028CAD0029906F161
:104C10002400FEF7B4FF304600F055F9FEF76AFEB7
:104C20000028C3D1C8F80090FFF7CDFEBEE7394693
:104C3000304600F034F96D1EB563306940B106F1BD
:104C40001000FFF700F818B1C8F80090FFF7BBFE9E
:104C500001F002FE0120BDE8FE8301F0FDFD002011
:104C6000F9E700F030F9FEF745FE304600F05DF957
:104C700000289BD0F3E72DE9F341002482B00546DC
:104C8000A046502725B987F31188FFF79CFEFEE761
:104C9000286C20B187F31188FFF795FEFEE7FFF738
:104CA0002BF950B9039840B187F31188FFF78BFEB9
:104CB000FEE700F092F8FEF71DFE01F0B4FD00F0F3
:104CC00080F837D10398002862D014B900F066F854
:104CD000012401F0C1FDFEF707FE01F0A4FD00F084
:104CE00060F804BF0022027000F066F804BF0022E2
:104CF000427001F0B1FD00F05BF8002828462ED18B
:104D000000F013F90028D4D0286838B901F08BFDE1
:104D1000A868FFF7FDF8804601F09EFD00F058F806
:104D200000F05BF8FEF7E6FD0028C6D13E60FFF715
:104D30004AFEC2E7401EA863286810B9FFF7DCF9F5
:104D4000A860286938B105F11000FEF77CFF10B1AA
:104D50003E60FFF738FE01F07FFD01201BE000F010
:104D6000B2F8FEF7C7FD284600F0DFF80028A4D00F
:104D7000B8F1000F0ED001F056FD686A00281DBF83
:104D8000286B0168C1F10F010021A868FFF757F9EE
:104D900001F062FD002004B0BDE8F0816846FFF735
:104DA00021B805F1440090F9001011F1010F70478E
:104DB00003A96846FFF71DB890F9011011F1010F22
:104DC0007047A86BDFF8DC7100284FF08056704701
:104DD000039905F12400FEF7D2BE284673E004F1E2
:104DE0001000FEF730BF502734B987F31188BFF3A6
:104DF0004F8FBFF36F8FFEE7704710B5040002D1ED
:104E0000FFF7DEFDFEE701F00EFDA46B01F024FDCF
:104E1000204610BD10B5040002D1FFF7D1FDFEE71A
:104E200000F0ABF894F8460020B92046BDE81040E9
:104E3000FCF7E3BD10BDF8B506461446B56B326C01
:104E4000002742B9306830BBB068FFF7A5F80021F1
:104E50000746B1601FE064B97068FDF77FF87068BD
:104E6000316CB26808449042706014D3306870604E
:104E700011E0F068FDF772F8306CF16840420144CF
:104E8000F1603268914202D2B1680844F060022CAD
:104E900001D105B16D1E6D1CB5633846F2BD026CC3
:104EA000002A0B4600D1704710B5C16884681144D0
:104EB000C160A14224BF0168C160C168BDE8104063
:104EC0001846FDF74BB8F8B5044601F0ACFC04F108
:104ED000440090F9015005E0FFF741FE08B1FEF7EC
:104EE000B8FF6D1E68B2012802DB606A0028F3D1AA
:104EF00004F144054FF0FF366E7001F0ADFC01F097
:104F000092FC95F9007005E0FFF769FF08B1FEF724
:104F1000A0FF7F1E78B2012802DB20690028F3D1B0
:104F20002E70BDE8F14001F097BC10B5044601F0C9
:104F30007AFCA06B441EA44101F08EFCE00F10BD72
:104F400070B5002210B9FFF73BFDFEE7A1B10024C8
:104F5000154D05EBC4067368984209D0002A02BFBC
:104F600055F83430002B3246641C082CF1D300E095
:104F700032460AB11160506070BD10B510B9FFF72C
:104F80001FFDFEE70021084A02EBC1035C68844272
:104F900003D0491C0829F7D310BD002042F8310086
:104FA000586010BD04ED00E000970120F8B50446FC
:104FB0000D46164601F037FC04F1380797F90C004E
:104FC00010F1010F04BF0021397397F90D0010F1A2
:104FD000010F04BF0021797301F03EFC386828B945
:104FE0003246294604F12400FEF709FE2046BDE8BA
:104FF000F24068E7F8B5044686B00E46256B5021AE
:1050000025B981F3118800F01DF9FEE705F1F002E2
:105010001068C0F3800020B981F3118800F012F904
:10502000FEE7176B3846FDF75DF803E001463846AA
:10503000FDF767F800285AD000F138010A78FE2AF7
:1050400002BF4A7802F0C002802AEFD191E88C10AA
:1050500002A880E88C10A16A3E2908D23E21204691
:10506000FCF77EFE07462046FDF7C9FA3C46002CB9
:105070003BD03E20A0620022676A6946304600F0BD
:10508000EFFC06226946B81DFCF768FF062205F111
:10509000E8013846FCF762FF4DF68650B881602182
:1050A0000020F8733882B9734FF4006078823A2197
:1050B000FF2039757875102202A907F11600FCF758
:1050C0004DFF1022314607F12600FCF747FF07F19C
:1050D000360508212846FCF701FE852000212870AE
:1050E000698020460121FCF734FB07B0F0BD02A81F
:1050F000002100220023002780E88E00ABE7F8B5EE
:10510000C56A416A01F136062846FCF7EBFF1DE04F
:1051100004F1F0073868C0F3400098B194F81C011E
:1051200003280FD1102206F1080104F1380001F024
:10513000D1FA38B9386A40F002003862642120465A
:10514000FFF746FB21462846FCF7DBFF0400DFD1D2
:10515000F1BD2DE9F8430546AF6A696A462F8846D6
:105160006BD3B8F83C00002867D00026463F01F119
:105170004609002408E00C4606E0032BFBD0052B73
:1051800004BF081DFCF7D9FE711CB94209D209EB16
:10519000060119F80630487818B106EBC006B74288
:1051A000EBD2E86A274610B900F049F8FEE7002C78
:1051B00043D0FCF797FF3EE004F1F0063068C0F3FF
:1051C0004000A0B394F81C01012830D1B878A06445
:1051D000102207F1100104F14C00FCF7BFFE102271
:1051E00008F1160104F15C00FCF7B8FE306A40F0EB
:1051F000010030620021B162B968B868000200F4B1
:105200007F0040EA0160B968BA68090A01F47F4189
:10521000084340EA126070620221306A40F00200E6
:10522000306284F81C110020214600F010F8E86A72
:105230002146FCF766FF0400BED1BDE8F183502093
:1052400080F31188BFF34F8FBFF36F8F7047F8B5AE
:105250000C0084B002D1FFF7F2FFFEE704F5887579
:10526000F0B10020A86028736846002100220023C6
:10527000002680E84E00FF218DF8001002228DF8F4
:1052800001208DF80F2000213E20FDF760F918B1B4
:1052900004636946FFF7AEFE42F21077012053E047
:1052A000287B012841F288374FF47A7627D1A86805
:1052B000401C0328A8600FD200202873287B0028F8
:1052C000D2D0022825D004285DD005285DD1002148
:1052D000A9602973374659E0582204F1900104F17E
:1052E0003800FCF73BFE2868400840002860002199
:1052F0002868A96040F0020028600220DDE703284A
:10530000DCD12968C1F3400000B300200221A8606D
:1053100029732968C1F3400050B121F002012960CE
:105320000123A26C04F14C0104F1380000F057FE97
:1053300000215620FDF70BF920B1046304F1380178
:1053400000F091FC3746032028731FE0A86803286B
:1053500004D2401CA86002202873DAE7C8070BD5E6
:105360006F68DFF840C0ACFB07013246002302F053
:105370009FF80746042001E00620002728732046F6
:10538000FCF72BF99AE70520287327B13946204608
:10539000FFF71EFA03E000212046FFF75DFA05B093
:1053A000F0BD000040420F0060B1436A99890829AE
:1053B00004D04DF68652914202D0704702F070BC84
:1053C00002F032BD704738B503460020502513B9AE
:1053D00000F018F8FEE75C6A14B900F013F8FEE775
:1053E000A489082C04D04DF68655AC4205D032BDB8
:1053F0001846BDE8384002F0BABC1846BDE838404F
:1054000002F09CBD85F31188BFF34F8FBFF36F8F00
:1054100070472E002DE9F04186B0466A046BF08992
:105420000025B0F5807F04BF308A082845D1B07CC4
:10543000062804BFF07C04283FD106F11C00DFF8E9
:105440000C7602680092D6F82680B86E40B107F15B
:10545000640107F16C00FEF7CCFC012808BFBD66B3
:10546000B07DC10729D40098010201F47F0141EA0F
:105470000061000A00F47F400143009841EA106196
:1054800001F10141B1F1807F17D3002C15D02168C3
:1054900002468A4212D1B86E00280ED10122BA66A5
:1054A000204600F040FAFEF7A8FA386607F16C00D3
:1054B000FEF783FC42F2107078668EE0D4F8F000BC
:1054C000C0F3C0000028F8D0B08AB0F5807F03D0C8
:1054D000B0F5007F54D080E0884504F1E80720D182
:1054E00000F082F8002878D0009D2246294600F07E
:1054F00078F84FF40070B082062206F1160106F12A
:105500002000FCF72BFDC6F826500622394606F18E
:105510001600FCF723FD06F11C002168016002253E
:105520005BE0424501BF6068024001408A4254D1BD
:10553000062102A8FFF792F80622DFF8141506F1FB
:10554000200001F0C7F838B1062202A906F12000B8
:1055500001F0C0F8002840D100F046F800283CD007
:10556000019501AA04A9684600F026F9012804BFA4
:105570000198A04231D10099224600F032F82CE087
:10558000D6F826008842174604D0384600F032F894
:10559000012803D12246394600F023F8DFF8B4444D
:1055A0002068D0B1FCF75AF9142801BF21684A6A73
:1055B000D2F81A00874210D1012302918DF80430ED
:1055C000002101A8FCF78AF801281CBF2068FDF71C
:1055D00016F800202060FFF735F9284606B0BDE830
:1055E000F08106F1160078E0062206F11601384631
:1055F00001F070B830B5014600200022DFF84C34CD
:1056000014011D598D4203D0521C062AF8DB30BD0F
:105610001A190120D17A01B9002030BD7FB50446A6
:10562000FCF71CF90025142802D0282814D036E0F5
:10563000606A00F10E06206BF16842680068114054
:10564000024091422BD1F068FFF7D4FF38BBF168DC
:10565000206B00F068F921E0606A00F10E06B07975
:10566000062818BF11281AD106F10800FCF7FEFE23
:10567000012814D16A4601A906F1080000F0F0F9EA
:1056800068B900215620FCF762FF38B1216B016335
:1056900006F10801E26AC26200F0E5FA0125284637
:1056A00004B070BD2DE9F0410400884613D00026F7
:1056B000DFF8987330013B58434506D13D18062268
:1056C0002146281D01F006F818B1761C062EF1DBE4
:1056D00001E09620A872BDE8F0812DE9FE4F8146D9
:1056E0000D46934602212846FCF75CFD002861D058
:1056F0004FF0FF3800240295CDF804804FF0FF0AE8
:10570000DFF8487300940025B9F1000F07EB041689
:1057100006D006224946301D00F0DCFF00B9012505
:1057200030680299884208D00DB101940AE0B07A3D
:10573000504507D28246009404E0B9F1000F05D02D
:10574000A5B9A046641C062CDDDB00E0A0460D4692
:105750000198009C002810D4B8F1000F044610D422
:10576000102107EB0810FCF7B9FA0AE09621B17294
:105770000120F072C6F80CB01CE0B8F1000F58BF61
:10578000444607EB0417B9F1000F3D600BD0062229
:105790004946381DFCF7E2FB96200121B872F972E8
:1057A000C7F80CB006E0B8F1000F03D505200021C2
:1057B000B872F972BDE8F78F2DE9F84305468846BF
:1057C0005020B8F1000F144602D100F0E7F8FEE7D0
:1057D00015B900F0E3F8FEE714B900F0DFF8FEE7D2
:1057E0000022226000212F683846FCF799FC3846D9
:1057F00000F054FCC0B14146384602F0ECFB0020FA
:10580000FCF770FC022603E001460020FCF779FC5F
:1058100038B1D0F8F010C1F380010029F4D1206034
:1058200001263046BDE8F283380EFF280BD1062250
:1058300087494046FCF792FB04213846FCF7B2FC4E
:105840000028EDD0EBE728680421FCF7ABFC38B961
:105850004020FCF7E1FD08B1876802E0206002E02B
:105860002F6820600FB90226DBE700260020774969
:1058700001EB0019D9F80030BB4203D0401C0628C8
:10588000F6DB0EE099F80B0008B9022609E00622C3
:1058900009F104014046FCF761FBD9F80C002060D7
:1058A00001262F60BDE770B50025684C04EB051696
:1058B000B07A68B1411EF07AB17210B1B17A0429A0
:1058C00002DA306800F05FF8B07A08B90021316080
:1058D0006D1C062DEADBFEF790F80546206E20B120
:1058E000281A44F6216188421CD35B48006816E000
:1058F00000F0DEFA12E000F1F0063268C2F3C001F7
:1059000000291CBF0168002908D0920812F001028A
:1059100002D0012AECD001E000F005F8706B0028FD
:10592000E9D1256670BDFEB5054605F1F0070E46C6
:105930003868C0F3800028BB286818B300212A20EB
:10594000FCF705FE04001DD066612563386BE0623C
:10595000204600F02AF8FCF735FA30B1386B88B1F0
:10596000C368012221469847F7BD02218DF8001037
:1059700001944FF0FF316846FBF7B0FE10B92046A6
:10598000FCF73DFEF7BD10B504460C21FCF70AFC00
:1059900018B12146BDE81040C5E710BD80F311885D
:1059A000BFF34F8FBFF36F8F704738B50446502158
:1059B00014B900F02CF8FEE7A06A2A2802D200F001
:1059C00026F8FEE7206B10B900F021F8FEE7656AC3
:1059D000224926222846FCF7C1FA206B00F1E80193
:1059E0000622A81DFCF7BAFA206B00F1E801062296
:1059F00005F11600FCF7B2FA206B026805F11C01F4
:105A00000A602A216069C5F82600A16231BD81F3D0
:105A10001188BFF34F8FBFF36F8F704770B50400CD
:105A20000A4D0CD0002605EB0610C268A24204BF46
:105A30001021FCF753F9761C062EF4DB70BD2846C6
:105A4000BDE870406021FEF709BE000000000020A4
:105A500090180008DC5401202895012074130108D7
:105A60002DE9F04106468846144600F029FCE8B1CD
:105A70004146304600F0AFFDB4B10020FCF732FBE8
:105A800003E029460020FCF73CFB05000BD0D5F8CD
:105A9000F000C0F380000028F3D005F13800FCF7D7
:105AA000E5FC0128EDD12560012722E000F034F863
:105AB0000746F0B93046FCF7D9FC05463046FCF7FE
:105AC0004FFB10B1ACB1206013E0012D14D1FCF7F5
:105AD00009FB03E029460020FCF713FB050008D072
