:020000040800F2
:10000000F86D012085870008DF820008E182000882
:10001000E3820008E5820008E78200080000000093
:100020000000000000000000000000001D3100087A
:10003000E982000800000000C53000085F2A0008BF
:10004000B5870008B9870008BD870008C187000888
:10005000C5870008C9870008CD870008D187000838
:10006000EB82000805830008D5870008D9870008BF
:10007000DD870008E1870008E5870008E9870008B8
:10008000ED870008F1870008F5870008F987000868
:10009000FD87000801880008058800080988000815
:1000A0000D880008118800081588000819880008C4
:1000B0001D88000821880008258800082988000874
:1000C0002D88000831880008358800083988000824
:1000D0003D8800081F830008418800084588000803
:1000E000498800084D880008518800085588000894
:1000F000598800085D880008618800086588000844
:10010000698800086D8800087188000875880008F3
:10011000798800087D88000823830008818800080A
:100120008588000889880008298300088D880008D0
:100130009188000875820008958800089988000851
:100140009D880008A1880008A58800082B83000866
:10015000A9880008AD880008B1880008B5880008A3
:10016000B9880008BD880008C1880008C588000853
:10017000C9880008CD880008D18800080000000068
:10018000D5880008D988000840F0200070472DE984
:10019000F14FB0B0924604910DF142013A9A2B9181
:1001A00099464A7000200AE01AF8011B0498309A18
:1001B00090470028049000F044860D98401C0D9054
:1001C0009AF8000058B12528EED100200021002225
:1001D0000790089109920A910B920C9104E00D98F6
:1001E00000F031BE41F001011AF8010F2028F9D0CA
:1001F00023280CD02B2804D02D2805D0302809D056
:100200000BE041F00201EFE741F00401ECE741F0BF
:100210000801E9E741F01001E6E72A280FD1D9F8F3
:10022000002052F8040BC9F8002000280F9003D5D5
:1002300040420F9041F004010AF1010A14E00F92CC
:10024000DFF8082C0AE00F9B934205DA03EB8304E6
:1002500000EB440030380F900AF1010A9AF80000D0
:10026000A0F130030A2BEED39AF800202E2A03D0F7
:100270004FF0FF300E9029E01AF8010F2A2809D11B
:10028000D9F8002052F8040BC9F800200E900AF1AA
:10029000010A1BE02D280CBF0AF1010A00200022F0
:1002A0000E92DFF8A84B0BE040B90E9BA34205DA93
:1002B00003EB830502EB4502303A0E920AF1010A84
:1002C0009AF80020A2F130030A2BEDD3ADF84010CC
:1002D0000FF67C309AF8001000F0FCFE08B11AF816
:1002E000010B8DF842009DF84200682805D19AF86C
:1002F000001068290CD1622006E06C2804BF9AF82F
:1003000000106C2904D171208DF842000AF1010A15
:1003100012AA06921AF801BBBBF125002CD01C389A
:1003200000F09781001F022840F29381133800F0FB
:10033000BA84093800F08D81801E00F04F85401E80
:1003400000F0FC84401E022840F28381001F00F070
:10035000F584401F00F0F280401E00F0A484401E8F
:1003600000F0DA80C01E0ED0801E00F09C84C01EFB
:1003700000F0998400F03DBD0122252107928DF8FF
:10038000481000F042BDD9F8000050F8044BC9F8FD
:100390000000002C059440F0AB802B994878002891
:1003A00000F0A1804FF0FF340FF6AC2000F0AAFE61
:1003B000241A40F0468500F028BD01236A4602A9B0
:1003C000304600F00DFE002840F03B85641EF4D15D
:1003D0003096079C12AF74B1309E17F8011B049839
:1003E000B0470028049000F02C850D98401C641E36
:1003F0000D90F2D130960A9C3021002C8DF800101F
:100400000CDD309E01236A4602A9304600F0E8FD6B
:10041000002840F01685641EF4D13096059F089C94
:1004200074B1309E17F8011B0498B047002804905F
:1004300000F007850D98401C641E0D90F2D1309697
:100440000B9C3021002C8DF800100CDD309E012318
:100450006A4602A9304600F0C3FD002840F0F1844E
:10046000641EF4D1309605980899099C471874B118
:10047000309E17F8011B0498B0470028049000F044
:10048000E0840D98401C641E0D90F2D130960C9CB7
:100490003021002C8DF800100CDD309E01236A46BF
:1004A00002A9304600F09CFD002840F0CA84641E7A
:1004B000F4D130969DF8400041077FF581AE2020B1
:1004C000002D8DF800007FF77BAE309C01236A463B
:1004D00002A9204600F084FD002840F0B2846D1E81
:1004E000F4D130946CE60FF65830059000F08DBCD6
:1004F0000E9D002D04D5204600F024FE044608E0A1
:100500002A460021204600F027FE002814BF041BC5
:100510002C46089400F079BCD9F8001051F8040B6F
:10052000C9F8001020F00002002121F0FF33CDE9CE
:10053000022312AC0594782100F04CBC2B9948782A
:1005400020B14FF0FF340FF6C8202FE79DF842008E
:10055000622860D0682817D06A283FD06C2806D05F
:10056000712847D074282CD07A281DD062E0D9F8A1
:10057000001051F8040BC9F80010002866D14FF0A4
:10058000FF340FF6A42011E7D9F8001051F8040B3E
:10059000C9F8001020B94FF0FF340FF68C2005E7A2
:1005A0000D99018000F031BCD9F8001051F8040B0E
:1005B000C9F80010002849D14FF0FF340FF6682029
:1005C000F4E6D9F8001051F8040BC9F8001000281F
:1005D0003CD14FF0FF340FF65020E7E6D9F8001079
:1005E00051F8040BC9F8001080B94FF0FF340FF632
:1005F0003820DBE6D9F8001051F8040BC9F80010D8
:1006000020B94FF0FF340FF62020CFE60D9AD31714
:10061000C0E90023F9E3D9F8001051F8040BC9F838
:10062000001020B94FF0FF340FF6FC10BEE60D9914
:100630000170EAE3D9F8001051F8040BC9F8001072
:1006400020B94FF0FF340FF6E010AFE60D990160CE
:10065000DBE39DF842004C2807BFD9F80010CA1D03
:10066000D9F80000C21D22F00702C9F80020D2E923
:1006700000010832C9F80020CDE90201C80F02D0FC
:1006800007982D210AE0BDF84000810702D50798A0
:100690002B2103E0C00705D50798202112AA115489
:1006A000401C079012A807994BF0200300EB010CA7
:1006B000DDE90201CDE92C01612BCDF814C021AC9C
:1006C0000BD00E98002848BF062105D404BF4BF07C
:1006D0002000672801D101210E91DDE902014F00C0
:1006E00047EAD0777E15FF174FF0FF32974208BFD9
:1006F000964210D1090341EA10510003002908BFB6
:10070000002808D0ABF1610503211A2D089118D3F8
:100710000FF6341110E0DDE902014A00521512F122
:10072000010F11D108030FD1ABF1610503211A2D7F
:1007300008911FD30FF618110322604600F038FD10
:1007400063E30FF60011F7E7DDE902016A4600F006
:100750003BFDCDE902014BF02000612811D1059845
:1007600030220270811C0591BBF1610F0CBF782112
:10077000582102E00FF6D401DEE741700798801C93
:100780000790DDE9020120F0000231F0004308BFCC
:10079000002A02D10026002542E14BF02008B8F1E2
:1007A000610F40F092800E99002947BF21200190EF
:1007B000491C0191019FDDE92C017F1C00220023CF
:1007C000DDE9024500F038FD38BF85F000450098AE
:1007D0008DF88420001F002F00900DF1850632DD7A
:1007E000204629460022002300F040FD2BD21C2287
:1007F00000F056FD04460D4600F0F0FDFF1F002FEF
:10080000804609DD00F006FE02460B4620462946DA
:1008100000F0C8FE04460D46F01D0721B8F1000F98
:100820000CDD491E5EBF08F00F0200F8012D4FEAF3
:100830002818F3D502E0002200F8012D491EFAD550
:10084000C61D002FCCDC0DF18500361A01980DF184
:1008500085048642D8BF304600282FD4B04206DA3D
:100860000DF185010A5C082AA8BF0F2100DA0021DA
:10087000024621AB134400E0401E13F80159521EFA
:100880008D42F9D00F2904D10DF185018B5C5B1CE1
:100890008B54002A04D50099091D21AC401C0091FD
:1008A000411E0BD4621813783033DDB23A2DA4BF49
:1008B0005B443A3B491E02F80139F4D50E9A002AEE
:1008C00040F1AC80411E0E91A8E00099DFF80027AE
:1008D00047F29750414391FBF2F20092DDE92C453B
:1008E000C2F10702002A25F0004504DD2046294612
:1008F00000F04AFB0BE052420020DFF8D81600F06F
:1009000043FB02460B462046294600F0BDFE044646
:100910000D46B8F1660F06BF009F0A3706270E98EE
:100920003F18142FC8BF142730208DF884000DF114
:100930008506002F34DD2046294600F0C9FF014618
:100940000A4606F1080304200A26B2FBF6F606EB77
:10095000860EA2EB4E02303203F8012C0A22B6FBBF
:10096000F2F202EB820EA6EB4E063036401E03F882
:10097000026DE9D1083F002F03F10806D9DD0846D2
:1009800000F0B8FF02460B462046294600F00AFE5A
:100990000022DFF8443600F0BBFF04460D46CAE7EC
:1009A0000DF18500361A0DF1850404E00098401E13
:1009B000761E0090641C20783028F7D0B8F1660FBE
:1009C00002D10098401C04E0B8F1650F0CBF012073
:1009D00000200E9940188642B8BF701E00281DD412
:1009E000B04204DA215C3429C8BF392100DC30214F
:1009F0000246631E9D1800E0401E15F80169521E54
:100A00008E42F9D0392902D1A15C491CA154002A97
:100A100004D50099491C1C46401C00910646009DC7
:100A200001F064F8406A0778DDF8388030B20028B9
:100A300002DC01260FF21C644BF02000662808BF80
:100A40006D1C16D0672845D128B210F1040F47DB82
:100A5000404545DA9DF840006D1C010703D430B2D3
:100A60004045D8BF804628B2B8EB000848BF4FF0D9
:100A700000080FFA85FBBBF1000F00F3B380089864
:100A8000411C0891302205990A54B8F1000F03DC8B
:100A90009DF84000010704D50898411C089105996C
:100AA0000F5418EB0B0FB8BFC8F100052DB2684208
:100AB000454432B20B909542B8BF2E46059B08982C
:100AC00036B2099632462146184400F071FBAD1B40
:100AD0000C95D1E0BBF1610F17D14FF0700B19E00D
:100AE00030B2404504DA9DF840100A0758BF8046EE
:100AF000B8F1010848BF4FF00008BBF1670F14BF01
:100B00004FF0450B4FF0650B04E0BBF1410F08BF00
:100B10004FF0500B0898411C0891B8F1000F05994F
:100B200014F8012B0A5403DC9DF8400001071AD584
:100B30000898411C0891B8F1000F05990F5412DD77
:100B4000761E30B28045B8BF46460598089B32B243
:100B50002146184400F02CFB089836B23018089053
:100B6000A8EB06000B9005980899014428B20028CC
:100B700081F800B003D42B204870891C04E02D229A
:100B80004A700546891C6D4200202CAA0AE02B46BB
:100B90000A2593FBF5F505EB8504A3EB440302F866
:100BA000013B401C2DB2002DF1DC012806DC4BF08E
:100BB0002002652A04BF302201F8012B00282CAA4C
:100BC00008D1302001F8010B06E0401E135C3033E1
:100BD00001F8013B0028F8DC059A08981044091A2E
:100BE000099149E030B229B288421CDA0598089B85
:100BF00032B22146184400F0DBFA089936B2711877
:100C00000891ABEB0600B8F1000F0B9003DC9DF8E8
:100C10004000020704D5059847540999491C0991D9
:100C2000CDF8308028E00598089B2AB22146184468
:100C300000F0BEFA0898761B5844B8F1000F0890EF
:100C400003DC9DF840100A0703D5411C0891059963
:100C50000F5430B28045B8BF46460598089B32B263
:100C600004EB0B01184400F0A3FA089836B23018D0
:100C70000890A8EB06000B909DF8400000F01400CF
:100C8000102840F0C280079A08980B99821809989A
:100C90008A1882180C980F998018884280F2B580C3
:100CA000081A0A90B1E09DF84200622808D068282E
:100CB0000ED06A2814D06C281FD0712810D01CE0E8
:100CC000D9F8001051F8040BC9F80010C0B21AE0AE
:100CD000D9F8001051F8040BC9F8001080B212E0E6
:100CE000D9F80000C21D22F00702C9F80020D2E99D
:100CF00000010832C9F8002006E0D9F8001051F8C8
:100D0000040BC9F800100021CDE902019DF8400054
:100D100002075AD5DDE90201002908BF002854D096
:100D20004BF02002782A50D1079812A930230B5497
:100D3000401C421C079201F800B046E09DF84200BA
:100D4000622808D068280ED06A2814D06C281FD0DA
:100D5000712810D01CE0D9F8001051F8040BC9F824
:100D6000001040B21AE0D9F8001051F8040BC9F88D
:100D7000001000B212E0D9F80000C21D22F00702F4
:100D8000C9F80020D2E900010832C9F8002006E0C5
:100D9000D9F8001051F8040BC9F80010C117CDE9BB
:100DA0000201002902D507982D210AE0BDF8400074
:100DB000810702D507982B2103E0C00705D50798C6
:100DC000202112AA1154401C079012A8079901442F
:100DD0000591594602A800F04DF816E00120079051
:100DE000D9F8001051F8040BC9F800108DF848002C
:100DF0000BE001202521BBF1000F07908DF8481072
:100E000003D0022107918DF849B00F9D07980A99E8
:100E10002D1A08986D1A0B992D1A09986D1A0C99AC
:100E20002D1A9DF840006D1A41073FF5D2AA2020E7
:100E3000002D8DF800007FF7CCAA309E2C46FFF7DE
:100E4000BCBA4FF0FF3031B0BDE8F08FCBCCCC0C4A
:100E5000686A6C747A4C00007072696E74665F73B5
:100E60003A2062616420257320617267756D656E3A
:100E7000740000002DE9FC4D06468846376940465F
:100E80006F2808BF082405D0FFF77EF9782814BF23
:100E90000A241024D6E900013C2582468B46B8F18D
:100EA000640F18BFB8F1690F05D1002903D5DAF135
:100EB000000A6BEB4B0BBBF1000F08BFBAF1000F40
:100EC0000CD1306B50B9082C3AD196F83800010794
:100ED00036D530223B2587F83B2031E08DF8008065
:100EE000504659462246002300F006FE3032D0B26A
:100EF0006D1E3A2801950EDA7A555046594622461B
:100F0000002300F0F9FD82465FEA010B08BFBAF149
:100F1000000F05D108E09DF800001218513AEBE7E8
:100F2000F06879198842DBD3082C09D196F838008B
:100F3000010705D5785D302802D06D1E3020785528
:100F4000C5F13C02306BB26179198242F16008DA76
:100F5000318F821A4FF6EF70014031873262BDE85F
:100F6000F38D00280ED596F8380000F014001028F4
:100F700008D1736B7069316A1B1A5B1A9B1A002BBC
:100F8000C8BF3362BDE8F38D2DE9D04306460F4656
:100F900014464FF00008DFF8449012E0E00707D550
:100FA00042464B463046394600F0B2FC06460F46F4
:100FB0004046494642464B4600F0AAFC6410804633
:100FC0008946002CEAD130463946BDE8D08300007E
:100FD000A08601000000F03F84D797410000244024
:100FE000F8B505460E4617461C4600205CB117F8BA
:100FF000011BB068A847B06030B1F06A401CF062D5
:101000000020641EF3D1F2BD4FF0FF30F2BD0000AE
:101010007072696E74665F733A20256E206469731E
:10102000616C6C6F776564007072696E74663A20EB
:1010300062616420256E20617267756D656E740053
:10104000000000006E616E004E414E00696E660049
:10105000494E46003000F0B40246106895681318F7
:10106000506803EB5004C00748BF4D44A3422DD045
:1010700013F8016B16F0030004BF13F8010BC01C3A
:1010800031090F2907D113F8011B0F3103E013F8C1
:10109000017B05F8017B401EF9D10029E6D013F849
:1010A000010BC6F38106032E08BF13F8016B00EB9A
:1010B0000620404228440026B71E8F421EBF10F86B
:1010C000017B05F8017B761CF6D1CFE7F0BC02F17D
:1010D0000C007047C9B202788A421AB11CBF10F8DE
:1010E000012FF9E718BF002070478268521C826008
:1010F000426832B10268531C036011704168491E96
:101100004160704780B500B906A005490B681BB166
:1011100022220021984701E000F071FD222002BD4B
:10112000F0690120636F6E73747261696E74206878
:10113000616E646C65723A20626164206D657373E0
:101140006167650000F1010310F8011B11B110F88F
:10115000011BFBE7C01A7047C9B2830706D0521EB5
:1011600022D310F8013B9942F7D11FE0083A13D37C
:1011700002F1040241EA012141EA014150F8043B35
:10118000121F21BF4B40A3F1013C2CEA030C1CF0C1
:10119000803FF3D0C9B2001F0832521E24BF10F89E
:1011A000013B91EA030FF8D818BF0120401E704799
:1011B0004AB1000011F8013B521E00F8013B1CBF70
:1011C00011F8013BF8E7704710B5144600F002F83B
:1011D000226010BDC1F30A5343B14A0012F5001F4B
:1011E00028D2A3F2FE32A1EB0251704750EA410C23
:1011F00020D001F0004C31EA0C01B1FA81F204BFB9
:10120000B0FA80F3D2180B3AB2F120032CBF00FAE7
:1012100003F1914041EA0C013EBFC2F1200C20FADB
:101220000CF319439040524240F2FD33D21A01EBC5
:10123000035170470022704741EA030C50EA4C0CFE
:1012400052EA0C0C4FF4001C09D307D01CEB410FE1
:101250009CBF1CEB430F8B4208BF824270471CEBC4
:10126000430FFBD8994208BF9042704741EA030CF4
:1012700050EA4C0C52EA0C0C4FF4001C09D307D076
:101280001CEB410F9CBF1CEB430F994208BF9042DF
:1012900070471CEB410FFBD88B4208BF824270475E
:1012A000124254D440F2FF7C1CEA11530FD0634524
:1012B00031D09B1863453CBF01EB0251704701F0F0
:1012C000004141EA0C510020AFF30080704750EA22
:1012D000410320D001F0004C91EA0C011CD0B1FA7E
:1012E00081F30B3B9A420DD9D21A994051EA0C0175
:1012F000C3F1200C20FA0CFC61449840531C40F2CE
:10130000FF7CD7E7914041EA0C01C2F1200C20FAA2
:101310000CF3194390407047B0FA80F31533202B3B
:10132000E0D3202AEED3203A203B9A4209D9D21AA0
:1013300000FA03F141EA0C010020531C40F2FF7C4B
:10134000B8E700FA02F141EA0C010020704752426E
:1013500040F2FF7C1CEA11530DD06345DBD0B2EBA9
:10136000030C3CBFA1EB025170470CF1010221EAD2
:10137000035141F4801150EA410CCCD001F0004CF3
:10138000352A27DC30B481EA0C01B2F1200309DAF6
:10139000C2F12003044601FA03F5D0402843D140AE
:1013A0009C400CE0C3F12002450020FA03F418BF72
:1013B00044F0010421FA03F091400C43002174F140
:1013C000004550F1000051EB0C01244230BC7FF489
:1013D0007BAF70476146002076E72E00C1F30A53C9
:1013E00040F21E42D31A0CDDCA0283F3070342EA1D
:1013F000505242F00042DA4002EBE17282EAE170C0
:1014000070476FEAE17203F2E13008B182F0004008
:101410007047430010F0004160B148BF4042B0FA4D
:1014200080F29040D21CC2F5846241EA025202EB83
:10143000D021400570470000841A71EB030604D2E6
:101440006E40001BB141121973414FF4001C1CEB9C
:10145000410F34BF7CEB430683E00C0DA4EB135625
:10146000362E00F37C80012E45EAC32341DC43EA9B
:10147000525312BFD20292025B08240545EAC121F1
:1014800041EA5051D2EBC020994125D407D1B0FA9E
:1014900080F610FA06F162D00020203608E0B1FA9A
:1014A00081F6B140C6F1200220FA02F21143B040A9
:1014B0004FEAF474B4EB465434F001064FEA740476
:1014C0000AD8D6F50016760D04F00044F04061FA13
:1014D00006F25040F1404840C00A40EA415021F035
:1014E000004128BF5FEA500550F1000044EBD121D4
:1014F00035E0DB0A45EAC121C90AB6F120050EDD57
:1015000042EA0242120CC5F1200603FA06F6EB404D
:1015100042EA06056D42984161F100010DE062FA70
:1015200006F5F240554063FA06FC82EA0C02F340ED
:101530005A406D42904161EB030111F4801F05D1C7
:10154000641E620502D06D004041494121F48011C2
:10155000430875F1004350F1000041EB045170BCA9
:1015600070471CEB410F15D223F0004352EA4306AB
:101570000BD04FEA4C0CBCEB410F04D80C0D661E8F
:10158000342EB7DDEBE7801A994150EA410608BFD7
:101590000021E4E708BF1CEB430F28BF6FF00001F8
:1015A000DDE7000070B491EA030F4FF000457FF5CE
:1015B00043AF6B40841A71EB030603D2001BB141A9
:1015C000121973414FF4001C1CEB410F34BF7CEB2C
:1015D000430442E00C0DA4EB1356352E4FDC45EAD4
:1015E000C323DB0A45EAC121C912B6F120050DDD8E
:1015F00063FA05F6EB4086EA0305124218BF45F090
:101600000105C01851F100010CD213E062FA06F591
:10161000F2405540F3415A40B340F3405A408018DD
:10162000594107D349085FEA30005FEA350528BF12
:1016300045F0010501F58011420875F1004250F1B5
:10164000000041EB04514E0016F5001F70BC38BF7E
:1016500070470020090D090570471CEB410F10D29F
:1016600052EA43060BD0BCEB410F05D80C0DAB433F
:10167000661E342EB6DD02E0AB438018594170BCC3
:10168000704770BC70470000F0B540F2FF7581EA0A
:10169000030C0CF0004C15EA11541DBF15EA13574A
:1016A000AC42AF42E5E0BC41C1F31301C3F3130305
:1016B000801A994143F4801304D2641E00184941F2
:1016C00080185941C90241EA5051B1FBF3F603FBBE
:1016D0001611A2FB0675D7EBC020A94102D2761ED7
:1016E00080185941C90241EA5051B1FBF3FE03FB96
:1016F0001E11A2FB0E75D7EBC020A94103D2AEF19B
:10170000010E80185941890241EA9051760546EA56
:101710008E2EB1FBF3F603FB1611A2FB0675D7EB79
:101720008020A94102D2761E80185941C90241EA9F
:1017300050514EEA060EB1FBF3F603FB1611A2FB65
:101740000675D7EBC020A94102D2761E80185941F8
:10175000C90241EA5051B1FBF3F703FB1711A2FB99
:101760000735D3EBC020A94167F100070CBF004249
:1017700047F0010766F3D5274FEA1E31B80814F584
:10178000806412DDBD0775F1004250EB0E5051EB45
:10179000045111F5801F5CBF41EA0C01F0BD4CF013
:1017A0007F6141F0E0410020F0BDBD076D0840EAD7
:1017B0000E5041F48011D4F10104B4F120060ADA8C
:1017C000C4F120060200E04001FA06F3E1401843AC
:1017D000B24015430EE0342C13DCC6F1200445EA78
:1017E00040056D0820FA06F2154321FA06F0A140E3
:1017F0000D43002175F1004250F1000051EB0C0146
:10180000F0BD00205FEA0C01F0BDCFB992185B413A
:10181000B3FA83F704BFB2FA82F6BF190B3FB7F1F0
:1018200020062FBF02FA06F3BB40C7F1200622FABA
:1018300006F638BF3343BA401CB1E419641E33E7DF
:101840007F4231F00041B1FA81F404BFB0FA80F672
:10185000A4190B3CB4F120062FBF00FA06F1A140F9
:10186000C4F1200620FA06F638BF3143A0403C1BE5
:101870001AE7AC421ABF05EA1357AF4212E050EA2A
:1018800041061CBF52EA4306BFE750EA4107304613
:1018900061461CBF41EA0551F0BD52EA430C08BF46
:1018A000C143F0BD00204FF4001616EB410F98BF66
:1018B00016EB430F08BF16EB410F24BFC14305E0F1
:1018C00016EB430F0CBF61464CEA0551F0BD00001A
:1018D000400D40F21E4C40EAC120BCEB115C40F0D0
:1018E000004003D48CF30701C84070476FEAE170F1
:1018F0007047000050B1B0FA80F18840C91CC1F5B2
:101900008461090501EBD02140057047014670470D
:1019100030B540F2FF7C1CEA11541DBF1CEA135580
:10192000644565453FE0641981EA030C6FF35F533A
:101930000CF0004C43F48013C90241F0004141EA2D
:10194000505EC5021100A5FB020200284FF0000006
:10195000EEFB01204FF00001E3FB052118BF42F030
:101960000102401800214941E3FB0E01A4F5806407
:101970000D0302D292184041494154F1010470DD37
:10198000450872F1004250F1000051EB0451A1F5FD
:10199000801102D441EA0C0130BD40F2FF7E4CEAD6
:1019A0000E51002030BD0CEA1355644518BF654543
:1019B00081EA030C0CF0004C41D050EA410E1CBFF0
:1019C00052EA430E02E06146002030BD24422C441E
:1019D0001BD15FEA050EF6D0090302BF01460020C5
:1019E000AEF1140EB1FA81F5AEEB050401FA05FE75
:1019F0000C35C5F1200100FA05F5C8404EEA000E8D
:101A00006FF35F5343F480139CE733F00043B3FA62
:101A100083F504BFB2FA82FE75440B3D641BB5F139
:101A2000200E2FBF02FA0EF3AB40C5F1200E22FAB2
:101A30000EFE38BF43EA0E03AA40641C7CE750EA5E
:101A4000410E14BF52EA430E6FF000014FF400152F
:101A500015EB430F8EBF194615EB410F9DE7B4D828
:101A600030BDD4F10104B4F120050FDAC4F1200532
:101A7000520828BF42F0010210FA05FE01FA05F5EE
:101A80007244E2BFE0402843E1400FE0352C9ADC8D
:101A9000C5F1200452EA400220FA05F218BF42F0D4
:101AA000010231FA05F0A1400A43002172F100421F
:101AB00050F1000051EB0C0130BD0000FFE7413850
:101AC0001A288041C00F7047A0F10901052901D3F0
:101AD000202801D10120704700207047A0F141016A
:101AE0001A2938BF203070470148704701487047B5
:101AF0004C32002014320020D3BBD9B1B2F5803F64
:101B00005BD2022A1ED98C46B1FBF2F102FB11C353
:101B10001B0443EA1043B3FBF2FC02FB1C3380B20C
:101B200040EA0343B3FBF2F002FB103240EA0C4000
:101B300000237047022A05D98446B0FBF2F002FB6D
:101B400010C270474AB105D100F0010249085FEAAE
:101B50003000704700220023704700F053B80B009C
:101B60000200002100207047F7D3002200237047B5
:101B7000904271EB030CF2D370B5B1FA81F4B3FA71
:101B800083F52C1BA340C4F1200532FA05F633433C
:101B9000A2405FF00046E64002E05B085FEA3202E6
:101BA000841A71EB030524BF204629467641F4D3FD
:101BB00002000B003000002170BD70B5B1FA81F455
:101BC000B2FA82F5C4F120046419B4F12006DAD324
:101BD000B2405FF00044F440002502E052085FEAA2
:101BE0003303C61A71EB020E24BF304671466441BE
:101BF0006D41F3D302000B002000290070BD0120CD
:101C000000F002B87047000080B5AFF30080024AD0
:101C100011001820ABBEFBE7260002002DE9F043BF
:101C200085B000240D9D0494502615B900F0A7FD41
:101C3000FEE70E9C14B900F0A2FDFEE758270097BE
:101C4000DDF800E0BEF1580F02D000F098FDFEE78D
:101C5000174688468146009A1E465821204600F0C5
:101C6000DFFD0222256384F8552000200C9A0390A2
:101C700004A901910092029433463A4641464846EF
:101C800000F009F814B1204600F047F80498FFE787
:101C900005B0BDE8F0832DE9F8430A9C80460D4667
:101CA0001646206B9946A522B10000F0BDFD216BC0
:101CB00001EB8600061FF608F600502165B10022F0
:101CC000AB5CA01880F83430A85C10B1521C0A2A12
:101CD000F6D3002084F83D00089F0F2F04D381F332
:101CE000118800F0BDFBFEE7099DE762A764201D97
:101CF00000F0C4FD04F1180000F0C0FD2461C7F13C
:101D00000F07A76164624A464146304600F0E4FD91
:101D1000206005B12C60BDE8F1832DE9F04100F0B1
:101D200077F8DFF87055DFF87075E86C401CE864F0
:101D30001426E86B40BBEC63E86C01282CD100252D
:101D400006FB05F0384400F08CFD6D1C0F2DF7D319
:101D5000DFF8405505F17C0000F083FD05F19008A7
:101D6000404600F07EFD284600F07BFD05F11400A2
:101D700000F077FD05F1280000F073FD05F17C000F
:101D80002864C5F8448007E0A86D28B9E06AE96BCB
:101D9000CA6A904228BFEC63A86EE16A401C2064C6
:101DA00001236A6D8B404E431A43391D6A65221D1B
:101DB000895900F00DF9B9196161BB595B1CBB5120
:101DC000A86600F03BFEA86D40B1E86BC16AE06A0E
:101DD000814203D200F025F800F042FBBDE8F0811B
:101DE00080B580B1DFF8B4148A6F521C8A67896F9E
:101DF000012902D000F031FBFEE7002100F0C6FC13
:101E000000F06EF818B900F006F800F029FB01BDEB
:101E1000044600F0FABDDFF830164FF0805008603D
:101E20007047DFF824264FF0805111607047201D65
:101E300000F040BDF0B589B05FF0000123A206AB11
:101E4000505C585410B1491C0A29F9DB0024DFF812
:101E50004C540FF2C54600210591049103AA04A930
:101E600005A800F045FE0598049902900022009212
:101E700001910023039A06A9304605EB8407FFF77A
:101E8000CDFE386718B10120641C002CE3DD012869
:101E900008BF00F043FE502101280FD181F31188C3
:101EA00000F0DEFA4FF0FF30E8660121A96500205E
:101EB000286500F033FD686F09B0F0BD10F1010F27
:101EC000F9D181F3118800F0CBFAFEE749444C4583
:101ED00000000000DFF8C403816F491C8167704770
:101EE000F8B500F092FDDFF8AC63B06F0024002578
:101EF00020B900F074F800F0B3FAFEE7B06F401EAE
:101F0000B067B06F00285FD1F06C002840D15BE073
:101F1000F068C468E269A06A216A9160226AE16996
:101F2000516004F118024168914204BF216A416086
:101F3000A5620168491E0160A2686069E16891605C
:101F4000E268A1685160221D4168914204BFE168C6
:101F50004160656114220168491E01600121E76A40
:101F6000706DB940084370655743DFF82C03011DBD
:101F7000221DC95900F02CF8C1196161C3595B1CBD
:101F8000C351F16BC86AE16A88423CBF01223266E4
:101F900030680028BCD10CB100F0FAF9F46D44B1FE
:101FA00000F025F808B101203066641EF8D1002049
:101FB000F065306E40B1F26BDFF88C144FF080505A
:101FC0000125086000F04CFA00F038FD2846F2BD0B
:101FD000A1608B68E3608B685A608A60704750210B
:101FE00081F311887047DFF8B402006D7047F8B5CF
:101FF000A84EB06F0024002840F08A80356D6D1C1B
:10200000356510D1316C086820B1FFF7E8FF00F0AA
:1020100027FAFEE7306C716C31647064706E401C9E
:10202000706600F0B5F9F06E9B491422854262D3C8
:102030005AE0336CD868C3685868854266D3D3F8D1
:1020400008C05869DF68CCF80870D3F80CC09F68E6
:10205000CCF8047003F1040C4768674504BFDF68DF
:10206000476000275F6107687F1E0760986AA8B114
:10207000D3F81CC01F6ACCF80870D3F820C0DF6901
:10208000CCF8047003F1180C4768674504BF1F6A59
:10209000476000279F6207687F1E07604FF0010CB2
:1020A000D86A776D0CFA00FC4CEA07077765504355
:1020B00001F1040E03F1040C5EF800709F60D7F884
:1020C00008E0C3F80CE0D7F808E0CEF804C0C7F881
:1020D00008C00F185F610F587F1C0F50F06BC76A64
:1020E000D86A874238BF0124336C18680028A0D111
:1020F0004FF0FF33F366F06BC36A5A4389580229E5
:1021000028BF0124306E30B1012404E0F066F2E70C
:10211000F06D401CF0652046F2BD5E4A906F10B134
:1021200001211166704710661421506D5A4BB0FAA8
:1021300080F0C0F11F0048431918086838B95021D1
:1021400081F31188BFF34F8FBFF36F8FFEE74868AD
:102150004068486001F10803984204BFC8684860BD
:102160004868C168D163D06B704710B50C4610B990
:1021700000F073F9FEE7474AD36B03F1180100F052
:1021800080FB2046BDE81040012100F0FFBAF8B501
:102190000B4610B900F061F9FEE741683D4CE66B73
:1021A000F1618D68E66B3562E76B8E6807F11805A3
:1021B0007560E56B05F118068E60E16B8862046856
:1021C000641C04600AB14FF0FF331146BDE8F440CF
:1021D000184600F0DBBAF0B5C068C06810B900F06E
:1021E0003CF9FEE7C369816A026A9A60036AC269C0
:1021F0005A6000F118034A689A4204BF026A4A60B2
:102200000A68521E0A600023224A916F41BB85680A
:102210004169C468AC60C56884686C60051D4C6821
:10222000AC4204BFC4684C60436101260C68641E64
:102230000C601421C46A556DA640354355654C4366
:1022400015490D1D061D2D598560AF68C760AF6823
:102250007E60AE600D1945610F597F1C0F510CE077
:102260005168C16100F118038C6804628C68636076
:102270008B6013461168491C11608362D16BC06A80
:10228000CB6A834203D2012101201166F0BD0020F8
:10229000F0BD0000843000207866012084300020EA
:1022A000DFF878154A6E0260096D41607047F8B535
:1022B00004460D46502014B900F0D0F8FEE715B9D9
:1022C00000F0CCF8FEE700F0A0FBDFF85005016D50
:1022D00062682E688B1A16F1010F12D0476ED4F87F
:1022E00000C0674505D0914203D300200124286037
:1022F0000CE0B34207D2F31A2B60416E2160006DEF
:102300006060002402E0002028600124D9E0DFF8AA
:102310000C1501200866704710B5DFF8FC4400F08A
:1023200008F821680229FAD3FFF775FD00F098F844
:10233000F5E738B5DFF8E44411E000F066FB206A09
:10234000C568281D00F0B6FAE06C401EE064A06C81
:10235000401EA06400F072FB284600F004F8A06C58
:102360000028EAD131BD10B5044694F8550040B9B3
:10237000206B00F026FE2046BDE8104000F021BE94
:1023800010BD0128F7D00228FAD000F066F8FEE769
:10239000DFF888140A6C106818B94FF0FF32CA666B
:1023A0007047086CC2681368CB667047DFF86C141E
:1023B000886D08B901207047886F08B902207047FE
:1023C0000020704770B504460021002C3AD0DFF899
:1023D0004C54E86B5022844204D082F3118800F000
:1023E0003FF8FEE7E06C20B982F3118800F038F87E
:1023F000FEE7E26AA36C401E9A42E06422D008BB6A
:10240000FFF715FD012628B9686DE16A06FA01F1AA
:1024100088436865231DA16CE162C1F10F00A061D2
:1024200014206A6D8E404143DFF8EC031643021D11
:102430006E655258A2609568E56095686B6000F023
:1024400005F80121084670BD04ED00E093604218D4
:1024500062614458641C44507047502080F31188D6
:10246000BFF34F8FBFF36F8F7047F8B50D46164619
:1024700000F070F8F86B006D28B9F86B012180F856
:10248000541006B1012400F0D9FA1CB101213046E4
:1024900000F07CF9FFF724FD24B118B9FFF7BBFC6D
:1024A000FFF7DEFF00F0B1FAF86B046D2CB1002DE0
:1024B00014BF0020601EF96B08650020F96B81F8DD
:1024C000540000F0BBFA2046F2BD2DE9F8438846DF
:1024D00091461D4600F03EF8F86B089E90F85400B7
:1024E00002280BD0F86B016D21EA0808C0F8508073
:1024F0000120F96B81F8540006B1012400F09EFA26
:102500001CB10121304600F041F9FFF7E9FC24B18C
:1025100018B9FFF780FCFFF7A3FF00F076FA15B1BA
:10252000F86B006D2860F86B90F85400022818BF13
:10253000002406D1F86B016D21EA0909C0F850901A
:102540000124F96B002081F8540000F077FA20464E
:10255000BDE8F283002438B1502080F31188BFF326
:102560004F8FBFF36F8FFEE7DFF8B072B86F401C7C
:10257000B86700F04ABA00002DE9F84304469046D7
:1025800099460126502724B987F31188FFF768FF81
:10259000FEE721B187F31188FFF762FFFEE7089D90
:1025A00000F070FAEFF3118187F31188FFF758FFFD
:1025B0000DB1206D2860022094F85430974A84F8B9
:1025C0005400B9F1040F1AD8DFE809F00803110626
:1025D0001500206D48EA0008C4F85080012B57D13F
:1025E000A06AA0B187F31188FFF73AFFFEE7206DDC
:1025F000401C2065F2E7022BEED1002648E0106D6A
:102600000028EBD087F31188FFF72AFFFEE7906FD1
:1026100050BBA5686069E368AB60E568A3686B6060
:10262000251D4368AB4204BFE36843600025656134
:1026300003685B1E0360E56A506D06FA05F300F05F
:1026400098F85D437D59A560AF68E760271DD5F810
:1026500008C0CCF80470AF60E56A6B43C5186561CB
:10266000C7587F1CC75009E05068E06104F11803A7
:102670008568256285686B6000F075F8D06BC36A69
:10268000E06A834204D2099800B106600120106616
:1026900081F311883046BDE8F283F8B5044615464B
:1026A000502614B900F06BF8FEE711B100F067F89E
:1026B000FEE700F0E7F9EFF3118100F060F894F81D
:1026C0005400022284F85420236D5B1C01282365EA
:1026D00046D1A06A10B100F052F8FEE74F4A906F61
:1026E00050BBA6686069E368B360E668A36873607E
:1026F000261D4368B34204BFE36843600026666159
:1027000003685B1E03600123E66A506DB34000F06E
:1027100030F85E43BE59A660B768E760271DD6F85B
:1027200008C0CCF80470B760E66A7343C6186661E7
:10273000C7587F1CC75009E05068E06104F11803D6
:10274000866826628668736000F00DF8D06BC36AF5
:10275000E06A834204D20DB1012028600123136690
:1027600081F31188F1BD8360A2621068401C106083
:1027700070471843506514232748071D704786F398
:102780001188BFF34F8FBFF36F8F70472DE9F84368
:10279000224E376DD6F84080D6F844900C46F16B47
:1027A0000546081D00F086F830B9F06B716DC06AFF
:1027B000012282409143716515F1010F15D1A4B139
:1027C000F06AF26B90608168F26BD160F36B8268A3
:1027D000191D5160F16B0A1D826006F12800F16B32
:1027E0004861B06A401CB06213E0F06BED194560BF
:1027F000BD42F06B05D2011D4846BDE8F44300F030
:1028000040B8011D404600F03CF8F06E854238BFEC
:10281000F566BDE8F1830000786601208430002071
:10282000002200F031BC000062F30F2262F31F426D
:1028300000B500BF130096469446103928BFA0E8A3
:102840000C50FAD85FEA417C28BF0CC048BF40F862
:10285000042BC90728BF20F8022B48BF00F8012B22
:1028600000BD4FF0FF3200F1080182604160C1609D
:1028700000F108020261002101607047002101613E
:10288000704730B50A6812F1010F08BF036907D01D
:1028900000F1080300E023465C682568AA42FAD2EA
:1028A0005A684A6091608B60596008610168491CF0
:1028B000016030BD4368016982689A60836842683C
:1028C0005A604A68824204BF83684B6000220261FA
:1028D0000868401E08607047490810B54900A0F11B
:1028E00020034FF0807499611A60DC616FF002027E
:1028F0000FF20D01596140F8242D203810BD000061
:102900006B494A68502012F1010F80F31188BFF320
:102910004F8FBFF36F8F00D0FEE7FEE77CB56549B0
:10292000654A08685023904202D100F067F8FEE73C
:102930000868624A904202D100F060F8FEE78868B9
:102940005F4CC26AA24202D000F058F8FEE7806BEA
:102950005C4A904202D000F051F8FEE700205A4A4B
:102960000190FF2614788DF8014016701578504CB0
:102970008DF800509DF8005015F05005257002D1DB
:1029800000F03CF8FEE79DF80000C04310F0500F47
:1029900009D000F033F8FEE7401C01909DF80000DC
:1029A00040008DF800009DF8000003060198F3D464
:1029B00008280FBF00200198C0F10700000200F4B2
:1029C000E060A0609DF8010010700A6A42F47F0286
:1029D0000A620022086A40F07F400862CA6100F083
:1029E0005DFB0020606000F0B7FB3848016841F0F3
:1029F0004041016000F0A0FB002076BD83F3118808
:102A0000BFF34F8FBFF36F8F7047502080F3118853
:102A1000BFF34F8FBFF36F8F25494A68521C012ABD
:102A20004A600AD12A490A68130606D080F3118841
:102A3000BFF34F8FBFF36F8FFEE770471C494868A5
:102A400038B9502080F31188BFF34F8FBFF36F8FD9
:102A5000FEE7401E486008BF80F31188704780B5CC
:102A6000502080F31188BFF34F8FBFF36F8FFFF7B4
:102A7000BEFA18B116494FF080500860002282F368
:102A8000118801BD10B5EFF3058050211028084AC8
:102A900005D3104B185C1478A04200F01FF8906822
:102AA0000D4A136803F4E063984200F017F810BD74
:102AB0006830002000ED00E071C20F4170C20F418C
:102AC0001D310008C530000800E400E034EF00E0EC
:102AD00004ED00E0F0E300E00CED00E006D281F34D
:102AE0001188BFF34F8FBFF36F8FFEE77047000071
:102AF000084B036003F158000860822111607047A1
:102B0000054B036003F1580008604FF482711160B7
:102B1000704700007C5C01203852012010B586B05F
:102B200000F064F9DFF81443A068C0B100210591FA
:102B3000049103AA04A905A8FFF7E2FF05980499E8
:102B400002900222009201910023039A0FF2F421D5
:102B50000FF2E500FFF762F80028E06005D1502190
:102B600081F3118800F030F8FEE7012006B010BDB7
:102B70007FB50B460021502620B986F3118800F05E
:102B800023F8FEE7DFF8B452AC68B4B1062B00932B
:102B90000192029004DB86F3118800F015F8FEE73D
:102BA000FFF704FC022807BF089A00230023002235
:102BB000A868694600F067FB0146FFE7084604B0D5
:102BC00070BD502080F31188BFF34F8FBFF36F8F1C
:102BD000704770B504460D46164604E0A069216AA8
:102BE000451920468847A1692B4632464919204697
:102BF00000F0E1F80028F1D170BDF8B504468F4827
:102C00000D460168CA68D668301DFFF753FE06F10D
:102C10002007387A410705D52A4621463046FFF776
:102C2000D8FF02E000F0FE00387230463968BDE897
:102C3000F4400847000000002DE9FF410FF214287E
:102C40007E4E3168086810B90124002702E0C86888
:102C500007680024FFF73EF9684600F08FF8054644
:102C60000098E8B944B9BD420BD3FFF739F92946BA
:102C70003846FFF7C2FF15E0706801684C1EA4419A
:102C8000E40FB0682246791B00F0E6FCFFF728F954
:102C900040B96B494FF080500860FFF795FF01E0A5
:102CA000FFF71EF901A898E80E0080E80E0006E084
:102CB00094F82870B80736D4204600F082F9B0683E
:102CC000002201A900F079FB0028BAD00198002861
:102CD000F5D4039C606910B1201DFFF7EBFD684639
:102CE00000F04CF807460198401E0828E7D8DFE8B6
:102CF00000F021211A070621211A0700DFE7D7E794
:102D000094F8281041F0010184F828100298A0617D
:102D100010B9FFF756FFFEE7C1193B463A46204679
:102D200000F049F8CBE794F8280000F0FE0084F8A2
:102D30002800C4E794F8280040F0010084F8280037
:102D40003A460299A0690B464118204600F033F834
:102D50000028B4D094F82800410707D50299A0694B
:102D600041183A462046FFF734FF03E000F0FE002A
:102D700084F828002046216A8847A0E770B50446F9
:102D8000FFF731F92D4E0546306985420AD3002000
:102D900035612060284670BDD06800684FF0FF3173
:102DA000FFF72BFF326810680028F5D1706830609B
:102DB00072600120ECE738B500248A42416000616E
:102DC0001E4D06D38169D21A8A4206D2011D686857
:102DD00007E09A4203D2994201D3012403E0011D86
:102DE0002868FFF74EFD204632BD00001CB5FFF7F6
:102DF0000CFE124CA068E0B904F11400FFF731FD9D
:102E000004F12800FFF72DFD04F1140004F128015E
:102E1000002220606160009204F13C0304F18C0206
:102E20000C210A2000F0EFF9A06010B107A100F01A
:102E3000F2FBBDE81340FFF701BE0000A4670120CC
:102E400004ED00E0546D722053766300546D7251AE
:102E50000000000000000000000000000000000072
:102E60002DE9F84504004FF00008454612D014F152
:102E7000080F0ED2083414F0070F0BD004F007002F
:102E8000C0F108004FF0FF31091AA14228BF041910
:102E900000D20024FFF71EF87949886801F11C026E
:102EA000D8B901F11C0717F0070F4FF48230134611
:102EB00005D0D31DDB08DB00C3F582301018C01825
:102EC0000838C008C0000B604D6088604560056030
:102ED000C71A5F6018600F61CF605027002C60D464
:102EE0005FD0CB68A3425CD3D1F800E08C46964516
:102EF00022BF644E8E19764502D200F05BF8FEE7E1
:102F0000DEF80400A0420BD2DEF8000040B1F44627
:102F10008646964528BF7645F2D200F04BF8FEE78C
:102F2000886886453DD0DCF8000000F1080890452F
:102F300028BF46450AD3DEF80020CCF80020DEF892
:102F40000460A64205D200F035F8FEE700F032F842
:102F5000FEE7361B112E10D30EEB040A1AF0070001
:102F600002D000F027F8FEE70EF104000651CEF87B
:102F700004404EF80420CCF800A0DEF804000C69F0
:102F80001B1AA34298BF1C460C61CB6040F0004066
:102F9000CEF80400CEF8005008F007054A69521C2C
:102FA0004A61FEF79DFF15B100F004F8FEE74046C8
:102FB000BDE8F28587F31188BFF34F8FBFF36F8FA2
:102FC0007047002800D170472DE9F0412C4C04F1E6
:102FD0001C08A0F108065025464522BF294827189D
:102FE000B74205D37168002905D400F042F8FEE726
:102FF00000F03FF8FEE7306810B100F03AF8FEE765
:1030000021F000417160FEF765FFE16870684118CA
:10301000E16000E004462068B042FBD318498C42CE
:1030200006D0444528BFA74202D200F022F8FEE7AE
:103030006268A318B34203D17068821862602646A2
:1030400072682368B018984208D18868834204D017
:103050005868821872601B6800E003463360B4420F
:1030600018BF26608869401C8861BDE8F041FEF702
:1030700037BF85F31188BFF34F8FBFF36F8F704752
:10308000DC3200201B0401004018491C1CBFB1F1B8
:10309000010100F8012DF9D1704700000748084BE5
:1030A00000210160002282604FF47A721968B1FB3E
:1030B000F2F2521E426007210160704710E000E00A
:1030C00080300020EFF30980BFF36F8F264B1A6822
:1030D0001EF0100F08BF20ED108A20E9F04F10609D
:1030E00009B44FF0500080F31188BFF34F8FBFF346
:1030F0006F8FFFF712F84FF0000080F3118809BCC2
:1031000019680868B0E8F04F1EF0100F08BFB0EC67
:10311000108A80F30988BFF36F8F7047124B1968CC
:103120000868B0E8F04F80F30988BFF36F8F4FF065
:10313000000080F3118870470C480068006880F335
:1031400008884FF0000080F3148862B661B6BFF3C0
:103150004F8FBFF36F8F00DFDFF81400016841F479
:103160007001016070470000C030002008ED00E0F1
:1031700088ED00E070B50D460446502124B981F376
:10318000118800F06BF8FEE7E06B002836D04FF0B6
:10319000FF32236CB2FBF0F098422FD3FFF735FCDF
:1031A000206CE16B226800FB01F3491E4843104488
:1031B0001344A3600026A663E060626004F144004B
:1031C0004FF0FF310170417065B9206990B100F096
:1031D0008FF978B1DFF878144FF08050086000F074
:1031E0003DF807E004F11000FFF73BFB04F1240079
:1031F000FFF737FBFFF722FC012070BD81F3118838
:1032000000F02CF8FEE77CB51C46502324B983F36C
:10321000118800F023F8FEE708B12AB131B983F331
:10322000118800F01BF8FEE70029F8D15025009521
:10323000009E502E04D083F3118800F00FF8FEE7B3
:10324000069B009D012684F846600094DBB200F0E6
:103250000AF8204676BD502080F31188BFF34F8FC7
:10326000BFF36F8F704738B5049D1C4600290CBF13
:103270002D602A60E863296428460121FFF77AFF60
:1032800085F84C4031BD2DE9F64782B004461E4614
:1032900000F032F95FEA010A01D1206C70B9022E08
:1032A00002D1E06B01280ED1FFF780F880B90398B6
:1032B00070B187F31188FFF7D1FFFEE787F311881C
:1032C000FFF7CCFFFEE787F31188FFF7C7FFFEE7A4
:1032D00027460024DFF878834FF080592EE00398CA
:1032E00000284BD014B900F0F0F80124FFF7A6FB3A
:1032F000FEF7F0FDFFF789FB07F1440000F0EAF864
:1033000004BF0022027000F0EEF804BF00224270F9
:10331000FFF794FB00F0E3F8002844D1FFF775FBBA
:10332000B86BF96B884214BF00250125FFF786FBB7
:1033300045BB384600F032F9FEF7D2FDFFF765FBDA
:10334000B86BF96B884201D3022EC8D13246514680
:10335000384600F0DBF8796A29B107F12400FEF75E
:103360003AFF08B904E018B1C8F80090FFF776FFFB
:10337000FFF764FB012004B0BDE8F087FFF75EFBB8
:103380000020F8E7039907F11000FEF7EEFE38463B
:1033900000F004F9FEF7A4FD0028CFD1C8F8009092
:1033A000FFF75CFFCAE7384600F0F8F8FEF798FD33
:1033B000E6E704F12400FEF70EBF2DE9F7430646C9
:1033C0000F460024502526B985F31188FFF746FFE4
:1033D000FEE70FB9306C48B9FEF7E8FF80B90298F4
:1033E00070B185F31188FFF739FFFEE785F3118887
:1033F000FFF734FFFEE7304600F0D0F8FEF770FD2F
:10340000FFF703FBB56BDFF84882002D4FF08059C2
:1034100037D1029800284AD014B900F056F8012498
:10342000FFF70CFBFEF756FDFFF7EFFA06F144003D
:10343000415711F1010F04BF0022027000F053F850
:1034400004BF00224270FFF7F9FA02A96846FEF7AE
:103450002EFF002830462ED100F0D2F80028CAD026
:10346000029906F12400FEF780FE304600F096F83F
:10347000FEF736FD0028C3D1C8F80090FFF7EEFE36
:10348000BEE73946304600F075F86D1EB563306909
:1034900040B106F11000FEF79EFE18B1C8F800908A
:1034A000FFF7DCFEFFF7CAFA0120BDE8FE83FFF755
:1034B000C5FA0020F9E700F071F8FEF711FD30467B
:1034C00000F09EF800289BD0F3E76846FEF7E8BEC0
:1034D00005F1440090F9001011F1010F704703A9A4
:1034E0006846FEF7E4BE90F9011011F1010F704734
:1034F00004F11000FEF76FBE502734B987F311882E
:10350000BFF34F8FBFF36F8FFEE77047F8B50646E6
:103510001446B56B326C002742B9306830BBB068D6
:10352000FEF750FF00210746B1601FE064B97068E4
:10353000FDF73EFE7068316CB268084490427060DE
:1035400014D33068706011E0F068FDF731FE306C24
:10355000F16840420144F1603268914202D2B168A0
:103560000844F060022C01D105B16D1E6D1CB563DD
:103570003846F2BD026C002A0B4600D1704710B5E8
:10358000C16884681144C160A14224BF0168C16060
:10359000C168BDE810401846FDF70ABEF8B50446FC
:1035A000FFF733FA04F1440090F9015005E0FFF70A
:1035B00000FF08B1FEF7ABFE6D1E68B2012802DB0A
:1035C000606A0028F3D104F144054FF0FF366E70B5
:1035D000FFF734FAFFF719FA95F9007005E0FFF7E5
:1035E00087FF08B1FEF793FE7F1E78B2012802DB49
:1035F00020690028F3D12E70BDE8F140FFF71EBA14
:1036000010B50446FFF701FAA06B441EA441FFF772
:1036100015FAE00F10BD70B5002210B9FFF71BFEC0
:10362000FEE7A1B100240B4D05EBC4067368984278
:1036300009D0002A02BF55F83430002B3246641CF2
:10364000082CF1D300E032460AB11160506070BD21
:1036500004ED00E088690120F8B504460D461646E1
:10366000FFF7D3F904F1380797F90C0010F1010FB7
:1036700004BF0021397397F90D0010F1010F04BF49
:1036800000217973FFF7DAF9386828B932462946FC
:1036900004F12400FEF77BFD2046BDE8F2407DE703
:1036A0000EB418B504469DF81100012818D1A06B7E
:1036B00020F48030A063E168DFF844090140E16054
:1036C000E16821F44011E1609DF81800012803D160
:1036D000E06840F48010E060204600F066FC10E0F6
:1036E000E06840F04000E060204600F05EFC9DF89D
:1036F00015100029A16B0CBF41F4803121F48031F9
:10370000A1639DF80E10012907D1A16841F00601BF
:10371000A160A16841F02001A16012BC5DF810FB1E
:1037200010B5022A58D1DFF8DC28DFF8DC3852184F
:103730009A4238BF4FF4705150D3DFF8D028DFF8E9
:10374000D03852189A4238BF4FF4605146D3DFF850
:10375000C428DFF8C43852189A4238BF4FF4505189
:103760003CD3DFF8B828DFF8B83852189A4238BF8F
:103770004FF4405132D3DFF8AC28DFF8AC385218A0
:103780009A4238BF4FF4305128D3DFF8A028DFF831
:10379000A03852189A4238BF4FF420511ED3DFF898
:1037A000B428DFF8B43852189A4215D3DFF8AC4881
:1037B000DFF8AC286418944238BF4FF400510DD3A1
:1037C000DFF8A028DFF8A038511899422CBF4FF439
:1037D000C0514FF4E05101E04FF41051C26822F49F
:1037E0007052C260C2681143C160002010BD816880
:1037F00041F0010102E08168490849008160002030
:10380000704738B504460025E06820F0C040012923
:10381000E0600FD1E06840F00050E0600A2000F066
:1038200035FC60690A35C10701D4C82DF6D3C82D0F
:1038300011D10EE069B9E06840F08040E0600A20F4
:1038400000F024FC60690A35C107F0D5C82DF6D315
:10385000EDE7012032BD002032BD0EB42DE9F0436A
:103860008046044600270021002004EB8102491C09
:103870000F29C2F80401F8D39DF8265008F5006618
:1038800055B9706840F002007060A06B40F4001001
:10389000A06300F0D6FB06E0A06B20F40010A0634C
:1038A000A06B40F40020A06308F560610020086070
:1038B0009DF82100012806D19DF81F20002A14BF81
:1038C0000121002100E00321204600F0BEF8102174
:1038D000204600F077F800B10127204600F094F868
:1038E00000B101270020306100217161F0614FF6C5
:1038F0007F329DF81C104FF090434FF0006C8146D2
:1039000007E00026CEF80060CEF81090CEF8082030
:10391000401C884210D208EB401606F5106EDEF807
:103920000060002EEDD5002806BF08F51066C6F829
:1039300000C0CEF80030E7E7002007E00026CEF810
:103940000060CEF81090CEF80820401C884210D2BB
:1039500008EB401606F5306EDEF80060002EEDD55F
:10396000002806BF08F53066C6F800C0CEF8003063
:10397000E7E708F500680021D8F8100020F480700F
:10398000C8F81000A1616FF0804060619DF81E00D2
:1039900000F050FBDFF8D4060143A1619DF822003E
:1039A00018B1A06940F00800A061012D05D1A069FF
:1039B00040F0804040F00400A0613846BDE8F003CC
:1039C0005DF810FB18B500220092DFF8A426009BDA
:1039D0005B1C0093009B934212D20469002CF6D525
:1039E00000238901009341F0200101610099491CE5
:1039F00000910099914203D203699906F6D401E03F
:103A0000032012BD002012BD81B000210091DFF81B
:103A10006016009A521C0092009A8A4210D20369E2
:103A2000002BF6D50022009210230361009A521C4D
:103A30000092009A8A4203D20369DA06F6D401E0C2
:103A4000032000E0002001B0704700F5006002682C
:103A500011432AE200F50060806810F0060006D0ED
:103A6000022818BF062801D1022070470F20704796
:103A700070B50A784E781346012502F00F0200EB6C
:103A8000431405FA02F2012E00F50060DFF8E45558
:103A90000CD1C669324304F51064C2612068020487
:103AA00011D400F012F840EA83500AE0C36943EAF7
:103AB000024304F53064C3612068020403D400F0BB
:103AC00004F805432560002070BD20688A680979E4
:103AD000C2F30A02104340EA8140704730B500F05B
:103AE0003AF80DD100F5106000F023F8AC4300F077
:103AF00019F824EA0303D3610268DFF87C150DE0AE
:103B000000F5306000F015F824EA054400F00AF8EA
:103B100024EA0344D4610268DFF860150A400260B9
:103B2000002030BDD463D469097801F00F018B40C7
:103B300070470468002C07D5046844F000640460F2
:103B4000056845F080450560D46B0D7805F00F05DC
:103B500003FA05F570470B784C7800F5006200EB2E
:103B600043100123012C7047F8B50D4604466978CF
:103B700028782746012907F5006307EB4016DFF890
:103B800000C5DFF800E57BD1296906F5106661B94B
:103B900030690EEA000EC6F810E0316941F40021E8
:103BA00031613069C00CC00435E03169C90CC90409
:103BB000316131690EEA010EC6F810E02969D5F8C5
:103BC00008E058B97046884288BF0846286107F562
:103BD0001067386940F40020386117E07144491ECD
:103BE000B1FBFEF031690CEAC04747EA010CC6F8A8
:103BF00010C02979012909D1316921F0C041316111
:103C00004007316900F0C0400843306130692969DC
:103C1000C1F312010843012A306109D1E86900B1FA
:103C2000706100F075F8326842F0044232606DE075
:103C3000306840F004403060297901290BD02869B0
:103C4000002863D0586B2A78012102F00F029140BE
:103C5000084358635AE09868C10504D4306840F0BE
:103C60000050306003E0316841F0805131600092D3
:103C700020462B692A78E9689BB200F0A7F845E056
:103C800006F530663169C90CC904316131690EEA43
:103C9000010EC6F810E0AC68296970B901B12C6159
:103CA00007F530672C62C4F31204386904433C61A1
:103CB000386940F4002038611DE041B93069C4F32F
:103CC000120404433461306940F4002012E06118AA
:103CD000491EB1FBF4F080B244432C620CEAC040B0
:103CE000316940EA010CC6F810C03069296AC1F395
:103CF000120108433061012A02D1E86800B1706105
:103D000000F006F8306840F0044030600020F2BD5A
:103D1000287901280BD19868C10504D4306840F097
:103D2000005030607047316841F080513160704719
:103D300078B5002200920B784D7800EB4314012DEA
:103D400042F2117318D104F510642568002D2DD5A9
:103D500000F034F804F51064256845F080452560CE
:103D600000F026F821D20D7800EB451606F5106616
:103D70003468002CF4D419E004F530642568002D73
:103D800014D500F01BF804F53064256845F0804533
:103D9000256000F00DF808D20D7800EB451606F509
:103DA00030663468002CF4D400E00122104672BD65
:103DB000009C641C0094009C9C427047256845F060
:103DC000006525600C7800EB44147047B8B5059C7D
:103DD000E4B264B9DB1C07E000EB023751F8045B86
:103DE00007F58057641C3D60B4EB930FF4D30020BB
:103DF000B2BD38B5930802F00302002400F58050EC
:103E000003E0056841F8045B641C9C42F9D313008D
:103E10000DD000686C46002320600098521EDC0024
:103E20005B1C95B2E040002D01F8010BF5D108466E
:103E300032BD0A78497800EB421001290CBF00F529
:103E4000106000F530600168002904D41AB10168DF
:103E500021F080410160026842F4001202600020FB
:103E600070470A7800EB42104A78012A0CBF00F52F
:103E7000106000F53060026822F4001202600979D7
:103E8000032918BF022903D1016841F08051016064
:103E90000020704700F500600901026822F4FE620C
:103EA000026001F4FE61036819430160002070475D
:103EB00000F5606100F500600A68920892000A60EF
:103EC000416821F002010AE000F5606100F5006040
:103ED0000A68920892000A60416841F0020141605C
:103EE000002070470146486989690840704700F51D
:103EF00000618869C9690840000C704700F50061DD
:103F00008869C969084080B27047024602EB4110D7
:103F100000F5306002F50062806851690840704722
:103F2000024602F5006302EB411218695B6B01F077
:103F30000F0102F51062CB40DB01926803F08003B1
:103F4000184310407047406900F00100704700F5C9
:103F5000106100F500600A68D20AD2020A60416866
:103F600041F48071BBE710B5036CDFF81C41A3423C
:103F700000F5306002D30368002B14D400230361E2
:103F80000129046944F400240461036943F018031F
:103F90000361036943F0C043036104D142610168D6
:103FA00041F080210160002010BD81B00146002059
:103FB0000090DFF8BC200098401C009000989042D0
:103FC00018D20B69002BF6D50A2001E00098401E9C
:103FD000009000980028F9D1086940F001000861BC
:103FE0000098401C00900098904203D20B69D807BB
:103FF000F6D401E0032000E0002001B0704700008B
:10400000BFFFBDFF405327FF00350C00401E1BFFC4
:1040100040420F0000DC0BFF804F1200808CF9FE45
:1040200020D6130060B6E5FE60E3160000D3CEFE96
:1040300040771B0018B9A06940F01000A061A16989
:104040007047A06B20F40020A063A06B20F48020B8
:1040500070470000C05BB3FEC091210000CA91FE12
:1040600020753800E05459FEE09C410000383C8047
:104070000100000F00800010007833EC0078F3EFAF
:104080000000F81FFFFF07E00B30544F38B504461F
:1040900000F010F814F1010F054602D00448017831
:1040A000641800F007F8401BA042FAD331BD00BFEE
:1040B0007430002001484068704700BF7430002011
:1040C0007CB5040053D0266804F29445687820B982
:1040D00000212970204600F0BBFC03206870B6F177
:1040E000A04F04BF0020A0712068FFF784FB83B0BD
:1040F00000F047F80EBC2068FFF7D2FA002834D150
:1041000020680021FFF77DFB78BB002124200026DA
:104110000DE010FB01F22244012353751175D18586
:104120000023491C1376D66113625662C9B2227904
:104130009142EEDB00210DE010FB01F2224402F57A
:104140001572002311705370491C16719360D6606C
:104150001361C9B222799142EEDB83B000F011F80D
:104160000EBC2068FFF779FB18B1022068700120AF
:1041700076BD6074012169702068FFF7A5FE0020FC
:1041800076BD211D68460D22FDF712B810B500F06E
:1041900057FB01D1022010BD00F04CFB01D500F00F
:1041A00056FBFFF724FB20683EE32DE9F84F054658
:1041B00086B0286802900190FFF7C5FE002840F005
:1041C000288300F029FB002800F02383019800F5E4
:1041D000006005F2CC418268C2F30D20886000F0D7
:1041E0001BFB800704D52868416901F00201416189
:1041F00000F012FBC00633D52868816921F0100158
:10420000816105F515710298066A06F00F022420F7
:1042100042438C18C6F3434002280FD147F6F07092
:10422000064218D0E1680298C6F30A12FFF7E1FDD2
:10423000E068C6F30A110844E06007E006280AD1E6
:104240000298082205F29C41FFF7D3FD6169C6F38D
:104250000A10411861612868816941F0100181618B
:104260002868019EFFF73EFE000306F5006640F158
:10427000D0802868DFF8A8B5FFF739FE00242F4664
:1042800005004FF4004A63E0002C04BFD7F8640235
:10429000002809D107F29C4200211846FFF763FE6F
:1042A00002E008B120209060E1B2384600F014FC32
:1042B0005FEA08701FD50821C9F808103868016C3A
:1042C000039100EB441000F530608168039A5A4571
:1042D00003D3090448BFC0F808A0384600F0F6FB35
:1042E0000398584507D3B979012904D1386807F2F2
:1042F0009C42FFF738FE5FEAC86044BF1021C9F84E
:1043000008105FEA887014D502994869010603D540
:10431000706840F4806070600098C178012905D110
:104320000022C270E1B2384600F01CFC0220C9F83D
:1043300008005FEA886044BF2021C9F808105FEADE
:10434000884044BF4FF40051C9F80810641C6D0840
:104350005ED0E807FAD53868E1B2FFF7D6FD8046AF
:10436000019800EB441000F53069242107F5157021
:10437000614301445FEAC870009199D50121C9F8F1
:1043800008103B68196C03EB441202F53062D2F856
:1043900008C097F806E0BEF1010F0CF020002BD109
:1043A0005FEA0C7305D5594582D35FEA0C412CD4E2
:1043B0007EE710B1202090607AE71CF0280FFBD137
:1043C000594502D35FEA0C411FD4009800F10C015B
:1043D00048691269C2F31202801A002C88600AD15F
:1043E000486820B9386807F29C42012156E70868FE
:1043F0008A6802440A6057E7DFF828E471457FF4D1
:1044000043AF5FEA0C417FF54CAFC2F808A04FE71D
:104410003D4600F001FA400340F1BB802868FFF7F9
:104420006DFD0390002438E0401A0599D1F808A0EA
:10443000824588BF82460AF103004FEA900BA879B3
:1044400000901FFA8AF37968E2B24846FFF7BEFC93
:104450007868F96850448A447860C7F80CA009EB82
:10446000441000F51060816989B2594505D3B868D8
:10447000F968814201D20028D6D1F868B96888422B
:1044800007D309F50068D8F8341004980140C8F83B
:104490003410641C0398400803900398002878D0D7
:1044A000C107F6D52868E1B2FFF73AFD80460198CA
:1044B00000EB441000F510692420012200FB04FAEF
:1044C00004F00F00824005EB0A01D2435FEAC87393
:1044D00001F11C0704921CD5726B049802407263B0
:1044E0000122C9F80820A87901280ED1086A3A6883
:1044F00002440A62002C04BF686A002805D12868BB
:1045000005F29C420121FFF72EFDE1B2284600F0A2
:10451000EDFA5FEA087044BF0821C9F808105FEAA5
:10452000C86044BF1021C9F808105FEA486044BF62
:104530004021C9F8081005F114005FEA887182442F
:1045400011D502982146FFF73DFA9AF80310012988
:1045500006D100228AF80320E1B2284600F006FBCB
:104560000220C9F808005FEA086092D5F968B868C7
:10457000D5F8009088428CD3DAF808B0401A834509
:1045800088BF83460BF103004FEA900BCDF814A0CF
:1045900065E700F041F9002805F2CC4414D57168B4
:1045A0004908490071602078012805D10021217057
:1045B000284600F073FB02E0284600F0CFFA286896
:1045C000416901F00041416100F026F900050AD57A
:1045D000B168C80744BF284600F0ABFA28684169B3
:1045E00001F40061416100F017F9C00451D5716810
:1045F00049084900716010212868FFF7E3F9019824
:1046000000214FF67F3214E000EB411303F51066F2
:1046100003F53063B260491C376827F40017376030
:104620009A601E6826F400161E601F6847F0006737
:104630001F602B799942E7D3019000F50061C869AA
:1046400040F00110C861E87B50B1D1F8840040F01F
:104650000B00C1F88400486C40F00B00486409E08E
:10466000486940F4005040F02B004861086940F070
:104670000B00086105F29C42086820F4FE600860A7
:10468000A9792868FFF76FFC2868416901F4805117
:10469000416100F0C1F8800415D52868FFF757FC88
:1046A0002868FFF7D7F9E87100F080FB0146EA7946
:1046B0002868FFF735F8284600F025FA2868416990
:1046C00001F40051416100F0A7F8000707D5284622
:1046D00000F015FA2868416901F00801416105F20E
:1046E000572700F099F8000613D50299886920F041
:1046F00080008861012609E024207043395C01298B
:1047000003D1F1B2284600F095F9761C287986424B
:10471000F2D300F081F8C00225D5019E01274FF0A9
:10472000240817E006EB471000F5106008FB07F1BE
:10473000006805F11802535C012B0AD1002808D546
:1047400029440122CA7547F08001C9B2284600F009
:1047500071F97F1C28798742E4D301962868416962
:1047600001F48011416100F057F8800236D5029AB9
:10477000019B0120242100E0401C2E79B04228D268
:1047800003EB401606F5306C01FB00F72F44DCF814
:10479000006007F2572797F801C0BCF1010FEBD179
:1047A000002EE9D594F808C0C6F300460CF0010CC1
:1047B0006645E1D101263E70976947F08007976111
:1047C00056693706D8D403F50063586840F4007082
:1047D00058602868416901F40011416100F01CF83B
:1047E000400007D5284600F0C5F92868416901F066
:1047F0008041416100F010F840070AD529684C68F3
:10480000600744BF284600F0B9F9286841680C43A6
:10481000446007B0BDE8F08F2868FFF763BB000075
:104820000B30544F0A31544FFFF742FB002084F8FD
:10483000940410BD012284F89424CB685A06704772
:10484000044694F894242068012A01467047637B4B
:10485000012B03D18A6B42F480328A63704710B512
:10486000044694F89404012801D1022010BD0120CF
:1048700084F8940461742068FFF70CFBD6E738B520
:10488000054601F00F042420444328190C0647BFB5
:1048900000F11404012000F515740020607001F08F
:1048A0000F012170C2F30A026078A260237108B17F
:1048B00021786183022B04BF0020607195F8940475
:1048C000012801D1022032BD012085F8940421463F
:1048D0002868FFF7CDF877E010B5044601F00F0225
:1048E00000F09AF800F08BF801D1022010BD00F022
:1048F0008DF8FFF7F3F899E738B500F026F804F5DE
:10490000157401F00F012361002500F024F808BFA1
:10491000E26113E001F00F01242251430844D0F872
:104920006802704738B500F010F8143401F00F0138
:104930002361012500F00FF808BFE2618279006869
:104940002146FFF711F9002032BD01F00F052424A4
:1049500065434419704700232170E260636165700C
:1049600081790129704738B505460C46297904F04C
:104970000F00814201D2012032BD2421220605D53B
:104980004843284400F11401012005E011FB04F123
:10499000681800F515710020487001228A7004F033
:1049A0000F040C7095F89404012801D1022032BD47
:1049B00085F894242868FFF73CFA2CB9A97928686F
:1049C00005F29C42FFF7CFFA002085F8940432BD2F
:1049D00010B5044601F00F022079904201D2012067
:1049E00010BD00F019F80023837000F008F801D121
:1049F000022010BD00F00AF8FFF733FA16E701F0C5
:104A00000F01017094F8941401297047012284F871
:104A1000942401462068704724204243A0180A06C7
:104A200003D5143001234370704700F51570002240
:104A30004270704701F00F0324225343C218090645
:104A40004CBF02F1140102F515710068FFF770B94F
:104A500010B586B00446142101A800F0DFF92268E1
:104A6000B2F1A04F30D10020824C0090216841F07B
:104A7000010121600221206800F0010000904FF444
:104A8000C050009A019000220392049202910A22DF
:104A9000059201A9784800F0C5F9616841F08001EC
:104AA0006160002000900022616941F480416161F1
:104AB0000821606900F4804000900098432000F0D5
:104AC000BEFA432000F0D8FA06B010BD00F29C41B7
:104AD000D0F8E00400F025BB0B46242253430344E6
:104AE000D0F8E004D3F8602200F049BB0B46242242
:104AF00053430344D0F8E0041A6A00F07DBBD0F8B9
:104B0000E00400F012BC38B504460125E07908B98C
:104B1000002503E0022818BF00F0E2FCD4F8E0040E
:104B2000294600F0EBFBD4F8E004BDE8324000F089
:104B3000B5BB10B50446D4F8E00400F0E2FB2068F1
:104B400000F56060016841F001010160E07A20B188
:104B50004A48016841F00601016010BDD0F8E00448
:104B600000F0DABBD0F8E00400F0FBBBD0F8E004C2
:104B700000F0E9BBD0F8E00400F009BCD0F8E00494
:104B800000F007BC10B5017829BB3D4CC4F8E00427
:104B9000C0F8C8424FF0A04020600421002002224B
:104BA000A07160812073E0812171E2716272204600
:104BB000FFF786FA08B100F093FC8021204600F050
:104BC000B2FC40220021204600F08CFC8022012112
:104BD000204600F087FC002010BD80B5D0F8C80248
:104BE000FFF7D4FABDE802404FE010B51C4613466B
:104BF000D0F8C8022246FFF742FEBDE8104044E06C
:104C000080B5D0F8C802FFF767FEEBE780B5D0F8B3
:104C1000C802FFF7A8FEE5E780B5D0F8C802FFF7A5
:104C2000D7FEDFE7D0F8C82201F07F0324204343FA
:104C3000D018090601D5807D704790F8560270475C
:104C400080B5D0F8C802FFF70AFECBE780B5D0F8F0
:104C5000C802FFF767FEC5E780B5D0F8C802FFF7C6
:104C60004BFEBFE7D0F8C802FFF754BE05487047B7
:104C700000000000303802400000024010ED00E06B
:104C8000544D0120DC5E012070470146002021B117
:104C9000022901D1012070470320704770470000AE
:104CA0002DE9F04104000E4654D0554F386800F00D
:104CB0000700B04202D200F073F84BD12068514D8A
:104CC000810712D5400703D5A96841F4E051A960D6
:104CD0002078010703D5A86840F46040A860A9685F
:104CE000A06821F0F0010143A9602178C80729D507
:104CF0006068012802D129688A0305E0022818BFEC
:104D0000032803D129688A0103D423E029688A078C
:104D100020D5A968890840EA8100A860FFF7CAF990
:104D20008046A868616800F00C00B0EB810F09D0E4
:104D3000FFF7C0F9A0EB080041F289318842F0D3B7
:104D400003202BE0386800F00700864204D200F010
:104D500027F801D0012021E02078420705D5A96875
:104D6000E06821F4E0510143A9602178080706D5E5
:104D7000A968206921F4604141EAC001A96000F0FE
:104D8000D7FBAA682049214BC2F30312895CC840B3
:104D900018601F48006800F0FBFB0020BDE8F081B0
:104DA0003E70396801F00701B1427047174800684A
:104DB00070471648174A006813681749C3F38222E0
:104DC000FFE7895CC840704710B50F220260114AA6
:104DD000136803F003034360146804F0F004846074
:104DE000136803F4E053C3601268D20802F4E0527F
:104DF00002610348026802F007020A6010BD000069
:104E0000003C024000380240E48600088030002068
:104E10007C30002008380240A48700080022FDF7FB
:104E200007BD00002DE9F84F00226E4CDFF8B88175
:104E30004FF00F0901230F6893401F409F4240F03D
:104E4000CA804FEA420C032505FA0CF56FEA050EFD
:104E50004D6805F00306012E1CBF05F00305022D69
:104E600010D18568CE680EEA050506FA0CF63543C2
:104E70008560456825EA03034D68C5F30015954034
:104E80002B43436093000D7905F00305032D1ED0DD
:104E9000C5688E680EEA050506FA0CF63543C5604E
:104EA0000D7905F00305022D11D1D50800EB85051C
:104EB00003F01C06D5F820B009FA06FA2BEA0A0B13
:104EC000D1F810A00AFA06F646EA0B062E6205682B
:104ED0000EEA05060D7905F0030505FA0CF545EA1D
:104EE000060CC0F800C04D6815F4403F73D04FF079
:104EF000000ECDF800E04FEA920CD8F8005045F4CF
:104F00008045C8F8005003F00C03D8F800E0374D96
:104F10000EF4804ECDF800E0DDF800E055F82C608E
:104F200009FA03F5AE43324DA84208BF4FF0000E18
:104F30002AD0304DA84208BF4FF0010E24D02E4D8C
:104F4000A84208BF4FF0020E1ED02C4DA84208BF49
:104F50004FF0030E18D02A4DA84208BF4FF0040EA0
:104F600012D0284DA84208BF4FF0050E0CD0264D98
:104F7000A84208BF4FF0060E06D0244DA8420CBF31
:104F80004FF0070E4FF0080E0EFA03F3DFF85CE067
:104F900033434EF82C30FE43A3684D683340ED0296
:104FA00048BF3B43A360E3684D683340AD0248BF50
:104FB0003B43E36063684D683340AD0348BF3B4308
:104FC0006360236806EA030C4B68DB0348BF47EACB
:104FD0000C0CC4F800C0521C0F2A7FF62BAFBDE8A2
:104FE000F18F0000003C0140443802400838014085
:104FF000000002400004024000080240000C024091
:10500000001002400014024000180240001C024040
:105010000901020002D41E48815470471D4B02F062
:105020000F021A4402F8041C70471B490A6860F317
:105030000A2240F2FA5060F31F420A60704770B5CE
:10504000154B1C68C4F302230124C3F10705052D89
:105050002EBF0F2504FA05F56D1E1E1D072E34BF49
:105060000023DB1E2940994004FA03F3BDE8704099
:105070005B1E1A401143CBE7010007D4012200F068
:105080001F01064B8A40400943F82020704700006A
:1050900000E400E018ED00E00CED00E000E100E0CD
:1050A00010B508B9032010BD00F527730024DC619A
:1050B0009C625C6301B19961012119700270BDE8C5
:1050C0001040FFF75FBD1CB50022ADF8002009B904
:1050D000032016BD00F52E742160E16900EB81000C
:1050E000D0F8B822D16A11B168468847A061206A19
:1050F000401C2062002016BDFFF76FBD0246002055
:10510000D2F8B83213B110461A681047704710B57C
:10511000D0F8B8325A689047002400B103242046E2
:1051200010BD38B5044604F2AA25284600F0B8FCA4
:1051300004F5257001210160828B817D426011F0B0
:105140001F0003D002280DD006D311E029462046C7
:10515000BDE8344000F072BA29462046BDE834402C
:1051600000F0BEBB29462046BDE8344000F0F0BB4D
:105170002046BDE8344001F08001FFF747BD38B557
:105180000446080004F5257328D11968032914D1B1
:1051900004F5AC7001890568A94210D2C3686D1A84
:1051A00019440560C160D4F85821B4F86001824206
:1051B00038BF0246204600F0D9FC002032BD187AE4
:1051C000032807D1596A086920B100221A642046D1
:1051D00009698847204600F0D1FCEEE7187A0328D9
:1051E000EBD15A6A90690028E7D000251D6420465B
:1051F0009269BDE83840104738B50546080005F506
:1052000025743DD12168022934D1288CA969024630
:105210008A4208D26B6A8A1A1918AA6169622846FA
:1052200000F091FC0DE013D16869904210D36168E1
:1052300088420DD200220021284600F084FC002084
:1052400060600023002200212846FFF705FD11E0E1
:10525000207A032807D1616AC86820B1002222643D
:105260002846C968884780212846FFF7CFFC284692
:1052700000F08BFC207B08B100212173002032BD9F
:10528000207A0328FAD1626A50690028F6D00023F8
:10529000236428465269BDE83840104738B50446B3
:1052A00004F5257001210172002202606260002174
:1052B000016102730025406A00281CBF4268002A71
:1052C00003D02046904700B103254023002200214F
:1052D0002046FFF78AFC04F5B07001214022C1701E
:1052E00002804023002280212046FFF77EFC01201F
:1052F00084F8230040212184284632BD0174002017
:10530000704700F52770017804291CBF02784270AD
:10531000042101700020704700F5277001780429EE
:1053200004BF417801700020704780B500F52771F7
:105330000A78032A05D1C96900291EBFC969002955
:105340008847002002BD10B500F019F80AB9032003
:1053500010BD1B78032B02D1126A02B190470020C6
:1053600010BD10B500F00BF80AB9032010BD1B7872
:10537000032B02D1526A02B19047002010BD00F504
:1053800027739A6B00EB8204D4F8B8227047002090
:10539000704700F52771012210B50A700024CA6910
:1053A0002AB141685268C9B2904700B1032420462F
:1053B00010BD00207047002070477CB504460D46A4
:1053C000217863880026994212D2ADF8001000E0DF
:1053D0000026BDF800106288914209D2694600F0AB
:1053E00009F841780529F4D10646B178A942EFD1F0
:1053F000304676BD0A880378D3180B8001780844BC
:105400007047000080B500F0C7FB00F00BF800F01B
:1054100039FC00F01DFD00F04DFD00F075FD00F0C1
:10542000B3FEFEE780B592B0302106A8FFF7F6FC88
:10543000142101A8FFF7F2FC002000902548016824
:1054400041F080510160006800F080500090002021
:10545000009900902048016841F4804101604FF4B8
:105460008031006800F4804000900120009A07918C
:1054700002224FF480010C920D9108224FF4A87182
:105480000E920F910690022207211092119106A808
:1054900000F0B0FE08B100F023F8022102910022D2
:1054A00003920F204FF4A051019004914FF48052C9
:1054B0000592052101A8FFF7F3FB08B100F010F8F1
:1054C00013B000BD00680549884208BF01F01AB852
:1054D000704700004038024000700040001000405B
:1054E00072B6FEE770B50068436A0C0003D143EA68
:1054F0000242826215E0846A03EB1443002406E052
:1055000000EB8505641CD5F8046103EB1643E5B296
:105510004E1EB542F4D300EB810043EA0242C0F8CC
:105520000021002070BD006841620020704700002B
:1055300030B5144C606800F00C00042802D0082834
:1055400002D01DE0104830BD2268206800234102CF
:1055500002F03F0204D525680B49C5F3881003E02B
:1055600020680A49C0F38810A1FB0001FCF7C4FAC7
:105570002168C1F30141491C4900B0FBF1F030BD85
:10558000024830BD0438024000127A000024F400C2
:1055900078B587B00446002000902048016841F0AB
:1055A0001001016001A9006800F01000009002A83D
:1055B000009AFFF709FC059810B9FFF7FAFB02E023
:1055C000FFF7F7FB4000164D1649174B2960B0FB5B
:1055D000F3F0401E40F2E73268600021EA60296182
:1055E000A960A961284600F095FF060012D128465F
:1055F00000F09DFF06000DD13620FFF73DFD102C79
:1056000007D2002221463620FFF719FD0748046023
:1056100000E00126304608B070BD0000403802406E
:10562000406901200010004040420F007C30002003
:105630004178007840EA0120704700002DE9FC41E4
:105640000D460446287810F060004FF0000804F57D
:1056500027770ED0202818BF402840F03581BA6B3C
:1056600004EB82032046D3F8B842A26890478046F4
:105670002CE16978092937D8DFE811F0FB0019011E
:1056800025010E0125018B000A002501E900A60075
:10569000ADF800806888010A012900F074800229B1
:1056A00065D0032927D006291CD0072904BF207CF8
:1056B000002819D1FA69116B6846884707224270A1
:1056C000E988002900F0FC80BDF80020002A6ED097
:1056D0001146EA88914288BF1146ADF800100A468B
:1056E0000146D5E0207C002840F0ED80FA69516B3E
:1056F00068468847E4E7C0B20528F5D8DFE800F03F
:105700002E251C130B03B8698269002A4FD0207C18
:1057100069469047D4E7B8694269002A47D0207C9F
:1057200069469047CCE7B86902690AB900F0CBB87E
:10573000207C69469047C3E7B869C2680AB900F09F
:10574000C2B8207C69469047BAE7B86982680AB94E
:1057500000F0B9B8207C69469047B1E7B869426863
:105760000AB900F0B0B8207C69469047A8E7207CD1
:10577000F9690028684603D1896A884702229EE7B2
:10578000C96A8847FAE7BB69207C1A68694690476E
:1057900096E7A888002804BFE888002859D16E88B9
:1057A000802E80F090803878032806F07F0600F085
:1057B0008A80BE7031462046FFF742FA00F0C2F8F8
:1057C000B6BB0121397081E0424E68883070317873
:1057D0000846022802D300F0B8F835E03A78022AE9
:1057E0001BD0032A2BD129B902203870616000F048
:1057F00074F865E06168884262D000F06DF8317835
:1058000061602046FFF77AFC5FEA000858D000F09C
:105810009CF8616800F060F80AE0002950D06060F0
:105820002046FFF76BFC5FEA000803D000F08DF81C
:10583000022002E000F086F80320387046E000F015
:1058400084F8317800F049F84FF003083EE0E8882A
:10585000012838D13978491E012904D9891E32D14D
:105860000122211D14E0C4F80880012204F108017E
:105870000EE03878401E022825D8EA88022A22D174
:105880000121E160B86808B10321E16004F10C0175
:10589000204600F04FF919E06888012808BFB86079
:1058A0000ED002280FD1A888000A387108E0387895
:1058B000401E022807D86A88012A07D1C7F8088045
:1058C00000F040F802E0294600F040F84046BDE80C
:1058D000F6810000F5690120C9B22046FFF717BC28
:1058E000F8B50D4604462878002710F060001CBF6C
:1058F0002028402822D104F527763078401E02283F
:105900001CD8A988CAB2022A18D2C9B22046FFF709
:1059100050FDFF2810D078B9F269906860B1B76384
:1059200029469268204690470746E88840B93800E3
:1059300006D100F007F803E0032701E000F005F8C6
:105940003846F2BD204600F019B929462046BCE091
:105950002DE9F8430E4605463078347910F06000A2
:105960004FF0000805F527770AD0202818BF4028F7
:1059700075D121462846FFF71EFDFF283DD172E074
:105980007078002843D0012814D0032867D13978D3
:10599000022915D0032962D1708838B9002C18BFAC
:1059A000802C03D0F08808B900F076F8284600F083
:1059B000E5F858E03878022802D003280AD04EE0F3
:1059C000002C18BF802C4AD000F066F8802100F02F
:1059D00064F848E07088002845D114F07F0103D0B6
:1059E00021462846FFF718F9284600F0C7F8214657
:1059F0002846FFF7E0FCFF2835D0A0BBB863F96963
:105A00008A6882B331462846904780462BE01422AC
:105A100004F07F003B7850432918022B01F5AA7946
:105A200004F0800002D0032B10D018E0002C18BF27
:105A3000802C14D108B101F1140989F80E800222DA
:105A400009F10E01284600F075F80CE004F00F0390
:105A500012FB03F22A4448B192F8230080B9314680
:105A6000284600F032F84046BDE8F28392F8630120
:105A70000028F4D0002C18BF802C04D1002008E0AE
:105A800001F11409F6E721462846FFF7CBF800B1EB
:105A9000012089F80E00D2E721462846FFF7B6B864
:105AA00038B50D46044628782070A81C69786170C6
:105AB0002D1DFFF7BDFD60802846FFF7B9FDA080D2
:105AC000A81CFFF7B5FDE08031BD10B5044680216C
:105AD000FFF79CF82046BDE810400021FFF796B87C
